{
  "_format": "hh3-artifact-1",
  "contractName": "reMint100Verifier",
  "sourceName": "contracts/reMint100Verifier.sol",
  "abi": [
    {
      "inputs": [],
      "name": "ConsistencyCheckFailed",
      "type": "error"
    },
    {
      "inputs": [],
      "name": "GeminiChallengeInSubgroup",
      "type": "error"
    },
    {
      "inputs": [],
      "name": "ProofLengthWrong",
      "type": "error"
    },
    {
      "inputs": [
        {
          "internalType": "uint256",
          "name": "logN",
          "type": "uint256"
        },
        {
          "internalType": "uint256",
          "name": "actualLength",
          "type": "uint256"
        },
        {
          "internalType": "uint256",
          "name": "expectedLength",
          "type": "uint256"
        }
      ],
      "name": "ProofLengthWrongWithLogN",
      "type": "error"
    },
    {
      "inputs": [],
      "name": "PublicInputsLengthWrong",
      "type": "error"
    },
    {
      "inputs": [],
      "name": "ShpleminiFailed",
      "type": "error"
    },
    {
      "inputs": [],
      "name": "SumcheckFailed",
      "type": "error"
    },
    {
      "inputs": [
        {
          "internalType": "bytes",
          "name": "proof",
          "type": "bytes"
        },
        {
          "internalType": "bytes32[]",
          "name": "publicInputs",
          "type": "bytes32[]"
        }
      ],
      "name": "verify",
      "outputs": [
        {
          "internalType": "bool",
          "name": "verified",
          "type": "bool"
        }
      ],
      "stateMutability": "view",
      "type": "function"
    }
  ],
  "bytecode": "0x610100604052348015610010575f5ffd5b5062100000608052601460a0527f276c6fc950283c17aecf2ec973127b8434500037cbe18c086bd9af767a90f46760c05260fd60e05260805160a05160c05160e051615cad6100dd5f395f81816101b0015261090201525f61018e01525f8181605b01528181609401528181610101015281816101d201528181610a3001528181610b3d01528181610bdc01528181610c0a01528181610c9001528181611524015281816115d3015281816116060152818161181001528181612b4a0152612e4d01525f5050615cad5ff3fe608060405234801561000f575f5ffd5b5060043610610029575f3560e01c8063ea50d0e41461002d575b5f5ffd5b61004061003b366004615476565b610054565b604051901515815260200160405180910390f35b5f5f61007f7f00000000000000000000000000000000000000000000000000000000000000006102ee565b905061008c81602061554e565b85146100ee577f0000000000000000000000000000000000000000000000000000000000000000856100bf83602061554e565b6040516359895a5360e01b81526004810193909352602483019190915260448201526064015b60405180910390fd5b5f6100f76103e4565b90505f61012588887f00000000000000000000000000000000000000000000000000000000000000006103f9565b9050601082604001516101389190615565565b85146101575760405163fa06659360e01b815260040160405180910390fd5b60405163995bf45760e01b81525f9073__$1a5d2a6a191b83b16bb3986513de612d69$__9063995bf457906101fa9085908b908b907f0000000000000000000000000000000000000000000000000000000000000000907f0000000000000000000000000000000000000000000000000000000000000000907f0000000000000000000000000000000000000000000000000000000000000000906004016156e3565b610be060405180830381865af4158015610216573d5f5f3e3d5ffd5b505050506040513d601f19601f8201168201806040525081019061023a91906159f9565b905061028a8787808060200260200160405190810160405280939291908181526020018383602002808284375f9201919091525050855185516060810151608090910151919350915060016108ac565b815160a0015261029a8282610a13565b6102b7576040516313f8744360e31b815260040160405180910390fd5b6102c2828483610bc8565b6102df576040516352ec174560e11b815260040160405180910390fd5b50600198975050505050505050565b5f806102fc6002600861554e565b905061030a6002600461554e565b6103149082615aa3565b9050600161032360098561554e565b61032d919061554e565b6103379082615aa3565b90506103456001602961554e565b61034f9082615aa3565b905061035d6001600361554e565b6103679082615aa3565b905061037460018461554e565b61037e9082615aa3565b905061038c6001600461554e565b6103969082615aa3565b905060026103a5600185615565565b6103af919061554e565b6103b99082615aa3565b90506103c660028061554e565b6103d09082615aa3565b90506103dd601082615aa3565b9392505050565b6103ec614fc2565b6103f4611c0a565b905090565b61040161514c565b5f805b60108110156104635761043086838761041e602083615aa3565b9261042b93929190615ab6565b612545565b8351826010811061044357610443615add565b6020020181815250506020826104599190615aa3565b9150600101610404565b50610487858286610475604083615aa3565b9261048293929190615ab6565b612558565b6020830152610497604082615aa3565b90506104aa858286610475604083615aa3565b6040808401919091526104bd9082615aa3565b90506104d0858286610475604083615aa3565b60608301526104e0604082615aa3565b90506104f3858286610475604083615aa3565b60a0830152610503604082615aa3565b9050610516858286610475604083615aa3565b60c0830152610526604082615aa3565b9050610539858286610475604083615aa3565b6080830152610549604082615aa3565b905061055c858286610475604083615aa3565b60e083015261056c604082615aa3565b905061057f858286610475604083615aa3565b610100830152610590604082615aa3565b90506105a3858286610475604083615aa3565b610120830151526105b5604082615aa3565b90506105c885828661041e602083615aa3565b6101408301526105d9602082615aa3565b90505f5b83811015610657575f5b600981101561064e5761060187848861041e602083615aa3565b84610160015183601c811061061857610618615add565b6020020151826009811061062e5761062e615add565b6020020181815250506020836106449190615aa3565b92506001016105e7565b506001016105dd565b505f5b60298110156106ab5761067486838761041e602083615aa3565b836101800151826029811061068b5761068b615add565b6020020181815250506020826106a19190615aa3565b915060010161065a565b506106bd85828661041e602083615aa3565b6101a08301526106ce602082615aa3565b90506106e1858286610475604083615aa3565b610120830151602001526106f6604082615aa3565b9050610709858286610475604083615aa3565b61012083015160026020020152610721604082615aa3565b9050610734858286610475604083615aa3565b6101c0830152610745604082615aa3565b905061075885828661041e602083615aa3565b6101e0830152610769602082615aa3565b90505f5b610778600185615565565b8110156107c157610790868387610475604083615aa3565b83610200015182601b81106107a7576107a7615add565b60200201526107b7604083615aa3565b915060010161076d565b505f5b83811015610814576107dd86838761041e602083615aa3565b83610220015182601c81106107f4576107f4615add565b60200201818152505060208261080a9190615aa3565b91506001016107c4565b505f5b60048110156108685761083186838761041e602083615aa3565b836102400151826004811061084857610848615add565b60200201818152505060208261085e9190615aa3565b9150600101610817565b5061087a858286610475604083615aa3565b61026083015261088b604082615aa3565b905061089e858286610475604083615aa3565b610280830152509392505050565b5f600180826108d9866108d4896108cf6108ca8a6310000000615aa3565b6125da565b6125f2565b61260d565b90505f6108f7876108f28a6108cf6108ca8b6001615aa3565b612626565b90505f5b61092660107f0000000000000000000000000000000000000000000000000000000000000000615565565b811015610993575f6109508c838151811061094357610943615add565b602002602001015161264e565b9050610960866108cf868461260d565b9550610970856108cf858461260d565b945061097c848b61260d565b9350610988838b612626565b9250506001016108fb565b505f5b60108110156109fa575f8a82601081106109b2576109b2615add565b602002015190506109c7866108cf868461260d565b95506109d7856108cf858461260d565b94506109e3848b61260d565b93506109ef838b612626565b925050600101610996565b50610a058484612663565b9a9950505050505050505050565b5f5f610a2883606001518561014001516125f2565b905060015f5b7f0000000000000000000000000000000000000000000000000000000000000000811015610b1a575f86610160015182601c8110610a6e57610a6e615add565b602002015180519091505f90610a8c908360015b602002015161260d565b9050848114610aae576040516313f8744360e31b815260040160405180910390fd5b5f876080015184601c8110610ac557610ac5615add565b60200201519050610ad68382612671565b9550610b0a856108cf60016108d4856108cf8e604001518b601c8110610afe57610afe615add565b60200201516001612626565b9450505050806001019050610a2e565b505f610b34866101800151865f01518760200151856127d3565b9050600160025b7f0000000000000000000000000000000000000000000000000000000000000000811015610b9157610b8782886080015183601c8110610b7d57610b7d615add565b60200201516125f2565b9150600101610b3b565b50610bb7610ba4836108cf600185612626565b6108d4896101a0015189606001516125f2565b91508382145b979650505050505050565b5f610bd1615235565b5f610c008460c001517f000000000000000000000000000000000000000000000000000000000000000061284c565b90505f6003610c307f00000000000000000000000000000000000000000000000000000000000000006024615aa3565b610c3a9190615aa3565b610c45906003615aa3565b6001600160401b03811115610c5c57610c5c6158aa565b604051908082528060200260200182016040528015610c85578160200160208202803683370190505b5090505f6003610cb67f00000000000000000000000000000000000000000000000000000000000000006024615aa3565b610cc09190615aa3565b610ccb906003615aa3565b6001600160401b03811115610ce257610ce26158aa565b604051908082528060200260200182016040528015610d1b57816020015b610d086152a5565b815260200190600190039081610d005790505b509050610d4e610d49876101000151855f81518110610d3c57610d3c615add565b6020026020010151612626565b612915565b84610120018181525050610d83610d49876101000151855f81518110610d7657610d76615add565b602002602001015161260d565b610140850181905261012085015160e0880151610da4926108d491906125f2565b845260c0860151610dd490610db890612915565b6108cf8661012001516108f28a60e001518961014001516125f2565b6020850152815160019083905f90610dee57610dee615add565b602002602001018181525050876102600151815f81518110610e1257610e12615add565b60209081029190910101526101e088015160c085015260a080870151908501528351610e3d90612985565b60408501526020840151610e5090612985565b60608501526040840151825183906001908110610e6f57610e6f615add565b60209081029190910101525f5b6024811015610f1657610e9785604001518660a001516125f2565b83610ea3836002615aa3565b81518110610eb357610eb3615add565b602002602001018181525050610ef08560c001516108d48b61018001518460298110610ee157610ee1615add565b60200201518860a001516125f2565b60c086015260a08086015190880151610f0991906125f2565b60a0860152600101610e7c565b505f5b6005811015610fe4575f610f2e601e83615aa3565b90505f610f3c602484615aa3565b9050610f6d858381518110610f5357610f53615add565b60200260200101516108d489606001518a60a001516125f2565b858381518110610f7f57610f7f615add565b602002602001018181525050610fbc8760c001516108d48d61018001518460298110610fad57610fad615add565b60200201518a60a001516125f2565b60c088015260a080880151908a0151610fd591906125f2565b60a08801525050600101610f19565b50876101c0015181600181518110610ffe57610ffe615add565b602002602001018190525086606001518160028151811061102157611021615add565b602002602001018190525086608001518160038151811061104457611044615add565b60200260200101819052508660a001518160048151811061106757611067615add565b60200260200101819052508660c001518160058151811061108a5761108a615add565b60200260200101819052508660e00151816006815181106110ad576110ad615add565b6020026020010181905250866101000151816007815181106110d1576110d1615add565b6020026020010181905250866101200151816008815181106110f5576110f5615add565b60200260200101819052508661014001518160098151811061111957611119615add565b602002602001018190525086610160015181600a8151811061113d5761113d615add565b6020026020010181905250866101c0015181600b8151811061116157611161615add565b602002602001018190525086610180015181600c8151811061118557611185615add565b6020026020010181905250866101a0015181600d815181106111a9576111a9615add565b6020026020010181905250866101e0015181600e815181106111cd576111cd615add565b602002602001018190525086610200015181600f815181106111f1576111f1615add565b60200260200101819052508661022001518160108151811061121557611215615add565b60200260200101819052508661024001518160118151811061123957611239615add565b60200260200101819052508661026001518160128151811061125d5761125d615add565b60200260200101819052508661028001518160138151811061128157611281615add565b6020026020010181905250866102a00151816014815181106112a5576112a5615add565b6020026020010181905250866102c00151816015815181106112c9576112c9615add565b6020026020010181905250866102e00151816016815181106112ed576112ed615add565b60200260200101819052508661030001518160178151811061131157611311615add565b60200260200101819052508661032001518160188151811061133557611335615add565b60200260200101819052508661034001518160198151811061135957611359615add565b602002602001018190525086610360015181601a8151811061137d5761137d615add565b602002602001018190525086610380015181601b815181106113a1576113a1615add565b6020026020010181905250866103a0015181601c815181106113c5576113c5615add565b6020026020010181905250866103c0015181601d815181106113e9576113e9615add565b6020026020010181905250876020015181601e8151811061140c5761140c615add565b6020026020010181905250876040015181601f8151811061142f5761142f615add565b602002602001018190525087606001518160208151811061145257611452615add565b602002602001018190525087608001518160218151811061147557611475615add565b60200260200101819052508761010001518160228151811061149957611499615add565b60200260200101819052508760e00151816023815181106114bc576114bc615add565b60200260200101819052508760a00151816024815181106114df576114df615add565b60200260200101819052508760c001518160258151811061150257611502615add565b60200260200101819052505f61154887608001518660c001518b6102200151877f0000000000000000000000000000000000000000000000000000000000000000612997565b9050611572815f8151811061155f5761155f615add565b60200260200101518661012001516125f2565b608086018190526102208a01515160e08901516115a392916108d49161159891906125f2565b8861014001516125f2565b608086015260e08701516115b690612af5565b60a08601525f6115c860246002615aa3565b90505f5b6115f760017f0000000000000000000000000000000000000000000000000000000000000000615565565b811015611808575f61162a60017f0000000000000000000000000000000000000000000000000000000000000000615565565b8210159050806117995761165e610d498b61010001518985600161164e9190615aa3565b81518110610d3c57610d3c615add565b6101208901526101008a015161168e90610d49908961167e866001615aa3565b81518110610d7657610d76615add565b61014089015260a08801516101208901516116a991906125f2565b61016089015260a088015160e08b01516116d1916116c6916125f2565b8961014001516125f2565b61018089018190526116f4906116e690612985565b6108d48a6101600151612985565b866116ff8486615aa3565b8151811061170f5761170f615add565b6020026020010181815250505f6117488961018001518e61022001518560016117389190615aa3565b601c8110610b7d57610b7d615add565b9050611782816108d48b6101600151888760016117659190615aa3565b8151811061177557611775615add565b60200260200101516125f2565b905061179289608001518261260d565b60808a0152505b6117b86117ae8960a001518c60e001516125f2565b8b60e001516125f2565b60a08901526102008c015182601b81106117d4576117d4615add565b6020020151856117e48486615aa3565b815181106117f4576117f4615add565b6020908102919091010152506001016115cc565b5061183460017f0000000000000000000000000000000000000000000000000000000000000000615565565b61183e9082615aa3565b905061185e6118568961010001518a60c00151612626565b600190612663565b60e08701515261010088015160c08901516118a291611856916108f2907f07b0c561a6148404f086204a9f36ffb0617942546750f230c893619174a57a76906125f2565b60e0878101805160200192909252815180516040909101529051805160609091015260a0870151908901516118e4916118da916125f2565b8960e001516125f2565b60a08701525f5b6004811015611992575f61191d8860e00151836004811061190e5761190e615add565b60200201518960a001516125f2565b905061192881612985565b886101000151836004811061193f5761193f615add565b602002015260a088015160e08b015161195891906125f2565b8860a001818152505061198488608001516108d4838f61024001518660048110610b7d57610b7d615add565b6080890152506001016118eb565b506101008601515184518590839081106119ae576119ae615add565b602090810291909101810191909152610100870151908101516119d2916002610a82565b846119de836001615aa3565b815181106119ee576119ee615add565b60209081029190910101526101008601516060015184611a0f836002615aa3565b81518110611a1f57611a1f615add565b60209081029190910101525f5b6003811015611a81578a61012001518160038110611a4c57611a4c615add565b60200201518483611a5c81615af1565b945081518110611a6e57611a6e615add565b6020908102919091010152600101611a2c565b506040518060400160405280600181526020016002815250838281518110611aab57611aab615add565b60200260200101819052508560800151848280611ac790615af1565b935081518110611ad957611ad9615add565b602002602001018181525050611b038a61024001518960c001518a608001518d6101a00151612b00565b611b205760405163a2a2ac8360e01b815260040160405180910390fd5b5f8a6102800151905080848381518110611b3c57611b3c615add565b6020026020010181905250886101000151858381518110611b5f57611b5f615add565b602002602001018181525050611b736152bd565b611b7d8587612e3d565b8152611b8882612f59565b602082018190528c5182515f92611ba0929190612f9f565b90505f5f611bb08f5f0151613025565b91509150611bbd826130e6565b611bc6816130e6565b8351611bd3908385613185565b84526020840151611be5908285613185565b602085018190528451611bf7916131b4565b9f9e505050505050505050505050505050565b611c12614fc2565b50604080516103e081018252621000008152601460208083019190915260fd82840152825180840184527f25f1cc20cd68cee6b42f67740c4d6139a22371eebb1e8a3735f7d45125de615881527f039e4a120474f773b94caafcb52f4e878b859250203e5035ac5cbe796d5f8b1b818301526060830152825180840184527f1ebaed6635e54e077284d15f40d2912067ea9b715b1ba29ddaaf9cc61dfc6b3f81527f066afa165ac804f9496acc7febba7401bed758e5699dd59d5f8cff877b4ab682818301526080830152825180840184527f29f486e2d81750e4f3fd5f920942767fc753f69c2fbc366c09c04f057fc5179a81527f03d211182a062738c6fa52997ed6119bb8b965078e5927c2490437dc4f8b40f38183015260a0830152825180840184527f165c5fa31e16d337fd655aefd64cda301620a914fa3fb7fc1b434a2fa0ebd40381527f0e9c8abfcd167166cf063f70fdde64eb1f578c6160d068671c8a9467f9a981108183015260c0830152825180840184527f1594641866243ac62508a108ae4b0622a0505e08f0142ebf13be5e4c3259a14781527f037d95c9612b2b6b87b166543a82bbe2f6df6dbe0d32e3ddc429bac361eda9d08183015260e0830152825180840184527f1633ef1614bd3c8eec97084ce77244c3e337612c5f1bec9e202943f524ff26b481527f1d49c1b850b07bd463980116c1a63678392b396610aae753ee7cb3af743e6a3d81830152610100830152825180840184527f152a2783eece020fed05a3383a559f830bd3947a5939a9cfd2c8f9220835b5ee81527f040e67b3cfb495e302305a932be4d9ffab609cf3826b4194bde336c6bf1b1aee81830152610120830152825180840184527f1ea3b9e0354d7fab1c171e0bae710d68674e634af87dba1dd68a9fb58667735c81527f1e34547998ec42b123b51f84208adb47c012e33cdbd105f6465861119a336d6b81830152610140830152825180840184527f291a83e050647ba8bfc1946638467366a17a8c36b6a671bb31d9209655ac74f881527f2ef0cc1cc1cda015f14c54a612c80ba30e1238f4800918639c31c479ecc196db81830152610160830152825180840184527f16abb1eac4d161923e8bb150e213191c3f45c997fed2254e9e8031ca3d72696d81527f038f9dac95dc66688940397cb2ed2c1ebc31b59cba296ce90a4122d777c5344c81830152610180830152825180840184527f0f0215613df6f5091d986f1509aefc48ace3e49709def2b121c542a35c6f381481527f1897451b3a4128a636fc3479ccb4b06195a70c7c1b68b429447d64b037002d9e818301526101a0830152825180840184527f245660f82d88051783186ea7c9603d7005f69396035ad241f87a8a50138ed13581527f1c2cc67dd4c4d9e75a36e6550d15a5476f6b60f03e09b37f71ed7f09c3e6d005818301526101c0830152825180840184527f1b70cfd7c2feec6160acdd318629cd1a5f00fe8db6caa49cc8f6fe062cda620e81527f1bf76cba60989d48ed4cc02e85a750fcdbe1054d390cbfbc7feedbfc3285cda7818301526101e0830152825180840184527f15e6e10e0632284201f429180aaea2ccee9c7cea7da74444a5351f63ebf5727c81527f0fa779485451ac9a5754c375af1ddfc34d454a22ab9b97d7f74945039faabe9f81830152610200830152825180840184527f2afab274aa47657458a982f6eaba6781b956bdbc44d23024ffbd2ae79aa34aed81527f0e3cec0ef70a89eb8acb4762da5947892e3a9cee9e8c48ea256b3cf415df7dd281830152610220830152825180840184527f145b16410e4f423f131d9ebe82b63d8cc2ac7e96a21f6301b6c9a4b3adc121f081527f12812d49ddff0a6cd277f4aef2cdb03e6e44eac347352393e53f134d995bc81581830152610240830152825180840184527f259cf0b4e189a6c950b95c6ebffbb04ffd7bd1edd0dfce7107e9568323c2ec8c81527f10f38cff98eb6e058036fa86f1fbadd07b6007ce55b25636cef1b30d4608769781830152610260830152825180840184527f0a6083c985ffd920e6f16bf163b5033d5d1668c7ed20d43ee3ba7c0ea5bb5fdd81527f25ce1469f5c15c22f707945b18bd755acfd9a1dedd18b42c6e78705299c93c5281830152610280830152825180840184527f2637c7d3c16557ccb96bf77edfd7a34cfed4e907ac0945997369ecd20c28b85681527f0a09ea84b0d1946bde4d3f1f7a9fcb303f8ff4748d84b6bb0be7f63654a7f430818301526102a0830152825180840184527f18169a04266229b9a19ad3cd6f72172080c69d5a96a3c376e4d7f597bcd174d881527f083252504e7977089bfb1fa2aa55c770bdf717b3b9ca306da729496abd6e3cd7818301526102c0830152825180840184527f1b3494b4137236e14befa4acb171dde96e6b4dbf23f712bf0dc13771a274ec5681527f17ff273e187fd373fcc0f02b71937ebe1876c360abd02be7a1584e550818a682818301526102e0830152825180840184527f18395f6bf3134a2a42d80f47f9aacbe58163651fc388d4f4effd1cfae8d3f42e81527f1769b447ac3fb2909ae14850a8dbe1be6ba4525e24e6e520b83c733393c4ad3781830152610300830152825180840184527f146bd15649e0c9cfdd3088d33677a15465f6f4c3c031ce36a2c03b7fdd036efe81527f13f36ca5218d300a77f2027a11f43abaf96c56c27e5206d5bde4044f60e5c81381830152610320830152825180840184527f1b60d695d8a2df16c11604f56b94687388296bfb8068a26812b907fe6b6fff7681527f19a5151364918e8fa0f72378b21a3c78e013b5de119163b2432418a53ec80e2a81830152610340830152825180840184527f0ca74b7b723968d0352369d989524dab36d1b2c7a78759801e66efb314ae55d181527f1cdb97051b3269d183737e2984ea63a7df07058b2a09d3dad28e68e8ecc5b80581830152610360830152825180840184527f17002f56bd86090dab7d100016ede4ce893c6690a0d787727e6d17373ce528ec81527f07a9365b235aaf9f921e99d1a08f70bece66a411c484a11a1a4590252787953c8183015261038083015282518084018452600181526002818301526103a083015282518084019093527f04b962bafb31b0b104b446c8a26e7bedfb851c8c2a0a6905c41366a14275e7ae83527f0f09f81733935f7ca5189ee47f6558f3d6a9ef06de99f622d8bb34b268bd4c94908301526103c081019190915290565b5f6103dd6125538385615b09565b61264e565b6125606152a5565b60408051808201909152805f516020615bf85f395f51905f5261258660205f8789615ab6565b61258f91615b09565b6125999190615b26565b81526020908101905f516020615bf85f395f51905f52906125be906040908789615ab6565b6125c791615b09565b6125d19190615b26565b90529392505050565b5f5f516020615c385f395f51905f52825b0692915050565b5f5f516020615c385f395f51905f5282840990505b92915050565b5f5f516020615c385f395f51905f528284089392505050565b5f5f516020615c385f395f51905f52825f516020615c385f395f51905f520384089392505050565b5f5f516020615c385f395f51905f52826125eb565b5f6103dd836108cf84612915565b5f5f604051806101200160405280619d8081526020015f516020615c585f395f51905f5281526020016105a081526020015f516020615bd85f395f51905f52815260200161024081526020015f516020615bd85f395f51905f5281526020016105a081526020015f516020615c585f395f51905f528152602001619d8081525090505f600190505f5f90505b600981101561271e57612714826108cf8784612626565b91506001016126fd565b506127276152d0565b5f5b600981101561277857612759610d4985836009811061274a5761274a615add565b60200201516108cf8985612626565b82826009811061276b5761276b615add565b6020020152600101612729565b505f5b60098110156127be576127b4856108d489846009811061279d5761279d615add565b6020020151858560098110610b7d57610b7d615add565b945060010161277b565b506127c984836125f2565b9695505050505050565b5f6127dc6152ef565b6127e78682856133a8565b6127f386868386613554565b6127ff86868386613740565b61280a868285613965565b612815868285613b59565b61282186868386613ea2565b61282c86828561434e565b612837868285614760565b612842868285614b21565b6127c98185614e21565b60605f826001600160401b03811115612867576128676158aa565b604051908082528060200260200182016040528015612890578160200160208202803683370190505b50905083815f815181106128a6576128a6615add565b602090810291909101015260015b8381101561290d576128e8826128cb600184615565565b815181106128db576128db615add565b6020026020010151612af5565b8282815181106128fa576128fa615add565b60209081029190910101526001016128b4565b509392505050565b5f5f8290505f604051602081526020808201526020604082015282606082015260025f516020615c385f395f51905f520360808201525f516020615c385f395f51905f5260a082015260205f60c08360055afa80612971575f5ffd5b505f51608091909101604052949350505050565b5f516020615c385f395f51905f520390565b60605f826001600160401b038111156129b2576129b26158aa565b6040519080825280602002602001820160405280156129db578160200160208202803683370190505b509050825b8015612aea575f856129f3600184615565565b81518110612a0357612a03615add565b602002602001015190505f89600184612a1c9190615565565b601c8110612a2c57612a2c615add565b602002015190505f612a87612a4b612a44858d6125f2565b60026125f2565b6108f28b612a5a600189615565565b601c8110612a6a57612a6a615add565b60200201516108cf612a81886108cf60018a612626565b87612626565b9050612aa8816108cf610d49612aa2876108cf600189612626565b8661260d565b99508990508085612aba600187615565565b81518110612aca57612aca615add565b60200260200101818152505050505080612ae390615b45565b90506129e0565b509695505050505050565b5f61260782836125f2565b5f600181612b19612b1387610100614e7a565b83612626565b905080612b395760405163835eb8f760e01b815260040160405180910390fd5b612b4161530e565b80518390525f5b7f0000000000000000000000000000000000000000000000000000000000000000811015612c2a575f612b7c82600961554e565b612b87906001615aa3565b905084835f0151826101008110612ba057612ba0615add565b60200201525f612bb1826001615aa3565b90505b612bbf600983615aa3565b811015612c20578351612bff90612bd7600184615565565b6101008110612be857612be8615add565b60200201518a85601c8110610b7d57610b7d615add565b8451826101008110612c1357612c13615add565b6020020152600101612bb4565b5050600101612b48565b50608081018390525f602082018190525b610100811015612d2857612c5c612c5683608001518a6125f2565b85612626565b8260a00151826101008110612c7357612c73615add565b602002015260a0820151612c9d90826101008110612c9357612c93615add565b6020020151612915565b8260a00151826101008110612cb457612cb4615add565b602002018181525050612cfa82602001516108d4845f0151846101008110612cde57612cde615add565b60200201518560a00151856101008110610b7d57610b7d615add565b60208301526080820151612d1b905f516020615c185f395f51905f526125f2565b6080830152600101612c3b565b505f612d39836108cf610100612915565b9050612d498260200151826125f2565b602083015260a0820151612d64905f5b6020020151826125f2565b604083015260a0820151612d9090612d7f6001610100615565565b6101008110612d5957612d59615add565b60608301526040820151612da6908a6002610b7d565b60c08301819052612df3906108d4612dcb8b5f516020615c185f395f51905f52612626565b60208d015160408e01516108cf91612de291612626565b8e5160208901516108f291906125f2565b60c083018190526060830151612e2891612e1c916108d4906108cf8e600260200201518c612626565b6108f2858c6003610b7d565b60c08301819052159998505050505050505050565b612e456152a5565b5f6003612e737f00000000000000000000000000000000000000000000000000000000000000006024615aa3565b612e7d9190615aa3565b612e88906003615aa3565b90505f5b81811015612ebe57612eb6858281518110612ea957612ea9615add565b60200260200101516130e6565b600101612e8c565b50604051600190815b60018401811015612f235760208102870160208202870181515160408501528151602001516060850152805160808501525050604080830160606040850160075afa8316925060408260808460065afa90921691600101612ec7565b5080518452602081015160208501525080612f51576040516352ec174560e11b815260040160405180910390fd5b505092915050565b612f616152a5565b5f516020615bf85f395f51905f5282602001515f516020615bf85f395f51905f52612f8c9190615565565b612f969190615b26565b60208301525090565b5f5f5f612fab86613025565b91509150612fb7615352565b82518152602080840151818301528251604080840191909152838201516060840152875160808401528782015160a0840152865160c08401528682015160e084015251610bbd9161300a91849101615b5a565b6040516020818303038152906040528051906020012061264e565b61302d6152a5565b6130356152a5565b82516020808501516040860151606087015160cc90811b608892831b604494851b90961795909517949094178652608087015160a088015160c089015160e08a0151871b90841b91851b9092171717868401526101008701516101208801516101408901516101608a0151871b90841b91851b909217171785526101808701516101a08801516101c08901516101e09099015190951b9790911b9390911b1791909117939093179281019290925291565b805160208201515f5f516020615bf85f395f51905f528380095f516020615bf85f395f51905f5260035f516020615bf85f395f51905f52838709085f516020615bf85f395f51905f52848509149150508061317f5760405162461bcd60e51b8152602060048201526019602482015278706f696e74206973206e6f74206f6e2074686520637572766560381b60448201526064016100e5565b50505050565b61318d6152a5565b6131956152a5565b61319f8386614edb565b90506131ab8185614f31565b95945050505050565b81516020808401518351848301516040805194850195909552938301919091527f198e9393920d483a7260bfb731fb5d25f1aa493335a9e71297e485b7aef312c260608301527f1800deef121f1e76426a00665e5c4479674322d4f75edadd46debd5cd992f6ed60808301527f090689d0585ff075ec9e99ad690c3395bc4b313370b38ef355acdadcd122975b60a08301527f12c85ea5db8c6deb4aab71808dcb408fe3d1e7690c43d37b4ce6cc0166fa7daa60c083015260e08201526101008101919091527f260e01b251f6f1c7e7ff4e580791dee8ea51d87a358e038b4efe30fac09383c16101208201527f0118c4d5b837bcc2bc89b5b398b5974e9f5944073b32078b7e231fec938883b06101408201527f04fc6369f7110fe3d25156c1bb9a72859cf2a04641f99ba4ee413c80da6a5fe46101608201527f22febda3c0c0632a56475b4214e5615e11e6dd3f96e6cea2854a87d4dacc5e556101808201525f9081906101a00160405160208183030381529060405290505f5f60086001600160a01b03168360405161334a9190615b8e565b5f60405180830381855afa9150503d805f8114613382576040519150601f19603f3d011682016040523d82523d5f602084013e613387565b606091505b50915091508180156127c95750808060200190518101906127c99190615ba4565b5f6133b4846007614f92565b90507f183227397098d014dc2822db40c0ac2e9419f4243cdcb848a1f0fac9f80000005f61341561340f6133e9856003612626565b6108cf6134046133f98b5f614f92565b6108cf8c601d614f92565b6108cf8b601c614f92565b836125f2565b905061349661348b613472613459613440856108d46134358d6002614f92565b6108cf8e601c614f92565b6108d461344e8c6003614f92565b6108cf8d601d614f92565b6108d46134678b6004614f92565b6108cf8c601e614f92565b6108d46134808a6005614f92565b6108cf8b601f614f92565b6108d4886001614f92565b90506134b5816108d46134aa866001612626565b6108cf8a6027614f92565b90506134c181846125f2565b90506134cd81856125f2565b8552505f90506135076134fd6134f26134e788601c614f92565b6108d489601f614f92565b6108f2886024614f92565b6108d4875f614f92565b9050613518816108cf846002612626565b9050613529816108cf846001612626565b905061353581836125f2565b905061354181846125f2565b9050808460015b60200201525050505050565b5f5f5f61358a61358061356889601c614f92565b6108d46135768b6012614f92565b8a606001516125f2565b876080015161260d565b90506135c3816108cf6135b96135a18b601d614f92565b6108d46135af8d6013614f92565b8c606001516125f2565b896080015161260d565b90506135e8816108cf6135b96135da8b601e614f92565b6108d46135af8d6014614f92565b905061360d816108cf6135b96135ff8b601f614f92565b6108d46135af8d6015614f92565b92505f905061363161358061362389601c614f92565b6108d46135768b600e614f92565b9050613656816108cf6135b96136488b601d614f92565b6108d46135af8d600f614f92565b905061367b816108cf6135b961366d8b601e614f92565b6108d46135af8d6010614f92565b90506136a0816108cf6135b96136928b601f614f92565b6108d46135af8d6011614f92565b91505f90506136c76136c16136b6896020614f92565b6108d48a601a614f92565b846125f2565b90506136fc816108f26136f66136de8b6028614f92565b6108d46136ec8d601b614f92565b8c60a001516125f2565b856125f2565b905061370881856125f2565b6040860152505f61372b6136f661372089601b614f92565b6108cf8a6028614f92565b9050808560035b602002015250505050505050565b5f5f61379e61378661376e6137596135b98a6016614f92565b6108d46137678b6017614f92565b8a516125f2565b6108d461377c8a6018614f92565b89602001516125f2565b6108d4613794896019614f92565b88604001516125f2565b91505f6137d56137bc6137b289601c614f92565b886080015161260d565b6108d46137ca8a6003614f92565b6108cf8b6024614f92565b90505f6137fe6137e689601d614f92565b6108d46137f38b5f614f92565b6108cf8c6025614f92565b90505f61382861380f8a601e614f92565b6108d461381d8c6001614f92565b6108cf8d6026614f92565b905061386761384f613841856108d4868d5f01516125f2565b6108d4848c602001516125f2565b6108d461385d8c6004614f92565b8b604001516125f2565b93505050505f61387b6136c1886021614f92565b90505f61388c6136c1896021614f92565b90505f6138c46138ab6138a08b6023614f92565b6108d48c6006614f92565b6108f26138b98c6023614f92565b6108cf8d6006614f92565b90505f6138e2612b136138d787896125f2565b6108cf8d6021614f92565b90506138ee81886125f2565b90505f6139166139086139028d6006614f92565b876125f2565b6108f26139028e6022614f92565b90505f6139248c6023614f92565b90505f613934612b1383846125f2565b60808c0185905260a08c01849052905061394e818b6125f2565b8b6006602002015250505050505050505050505050565b5f6139715f6001612626565b90505f61397f5f6002612626565b90505f61398d5f6003612626565b90505f6139a961399e88601d614f92565b6108f289601c614f92565b90505f6139c56139ba89601e614f92565b6108f28a601d614f92565b90505f6139e16139d68a601f614f92565b6108f28b601e614f92565b90505f6139fd6139f28b6024614f92565b6108f28c601f614f92565b905083613a0e816108cf818b61260d565b9050613a1e816108cf878a61260d565b9050613a2e816108cf878961260d565b9050613a3f816108cf8d6008614f92565b9050613a4b818a6125f2565b60e08b01525082613a60816108cf818b61260d565b9050613a70816108cf868a61260d565b9050613a80816108cf868961260d565b9050613a91816108cf8d6008614f92565b9050613a9d818a6125f2565b6101008b01525081613ab3816108cf818b61260d565b9050613ac3816108cf858a61260d565b9050613ad3816108cf858961260d565b9050613ae4816108cf8d6008614f92565b9050613af0818a6125f2565b6101208b01525080613b06816108cf818b61260d565b9050613b16816108cf848a61260d565b9050613b26816108cf848961260d565b9050613b37816108cf8d6008614f92565b9050613b43818a6125f2565b610140909a019990995250505050505050505050565b613b926040518060e001604052805f81526020015f81526020015f81526020015f81526020015f81526020015f81526020015f81525090565b613b9d84601d614f92565b8152613baa84601e614f92565b6020820152613bba846024614f92565b6040820152613bca846027614f92565b6060820152613bda846026614f92565b6080820152613bea846025614f92565b60a08201525f613bfb856002614f92565b90505f613c08865f614f92565b90505f613c1c8460400151855f0151612626565b90505f613c31856020015186602001516125f2565b606086015190915086905f90613c4790806125f2565b90505f613c65613c5f89602001518a606001516125f2565b886125f2565b90505f613c84613c7d8a60a001518b6040015161260d565b8a5161260d565b9050613c9361390282886125f2565b9050613cba613cb4613cae613ca88487612626565b88612626565b8461260d565b8361260d565b9050613ce2613cd7613ccc83876125f2565b6108cf8f6009614f92565b6108cf60018a612626565b6101608c015250505050602085015160808601515f91613d019161260d565b90505f613d1f613d158860600151886125f2565b8860200151612626565b90505f613d43613d2f84876125f2565b6108d46136f68b60a001518c5f0151612626565b9050613d6b613d60613d55838c6125f2565b6108cf8e6009614f92565b6108cf600189612626565b6101808b0152505f9150613d8c9050613d8583601161260d565b87516125f2565b90505f613d99838461260d565b9050613da5818261260d565b90505f613db38360096125f2565b9050613ddc613dd66136c1613dcf8b60a001518c5f015161260d565b8b5161260d565b82612626565b60c089018190525f90613df790613c5f90613ccc908d6125f2565b9050613e0a8b600b60200201518261260d565b6101608c0152505086515f9250613e319150613d8590613e2a908061260d565b885161260d565b90505f613e71613e4c836108cf8a5f01518b60a00151612626565b60208901516108f290613e5f908061260d565b6108cf8b602001518c6080015161260d565b9050613e8e89600c60200201516108d4613c5f613ccc858d6125f2565b89600c602002015250505050505050505050565b613f0c604051806101e001604052805f81526020015f81526020015f81526020015f81526020015f81526020015f81526020015f81526020015f81526020015f81526020015f81526020015f81526020015f81526020015f81526020015f81526020015f81525090565b613f24613f1a86601e614f92565b85604001516125f2565b808252613f43906108d4613f3988601d614f92565b87602001516125f2565b808252613f58906108d4613d8588601c614f92565b808252613f6a906108d4876001614f92565b80825260208201819052613f83906108f287601f614f92565b8152613f9e613f93866024614f92565b6108f287601c614f92565b6080820152613fbc613fb1866027614f92565b6108f287601f614f92565b60608201526080810151613fd5906108cf816001612626565b6101c082015260808101516140159061400b90614004906108cf60015f516020615c385f395f51905f52615565565b600161260d565b82606001516125f2565b60a0820181905261404b9061403d906108cf614032896002614f92565b6108cf8a6003614f92565b6108cf6136f688600a614f92565b83600e60200201526101c081015161406f9061403d906108cf614032896002614f92565b6101e08401528051614094906108cf614089886002614f92565b6108cf896003614f92565b6101208201525f6140b36140a987601f614f92565b8360200151612626565b90506140c4816108cf836001612626565b60e08301526140e16140d7876026614f92565b86604001516125f2565b60408301819052614104906108d46140fa896025614f92565b88602001516125f2565b60408301819052614124906108d461411d896024614f92565b88516125f2565b6040830152614141614137876027614f92565b8360400151612626565b60408301525f614160614155886026614f92565b6108f289601e614f92565b90506141b261418d61340f614004866080015160015f516020615c385f395f51905f526108cf9190615565565b6108cf614004866040015160015f516020615c385f395f51905f526108cf9190615565565b60c084015260408301516141d4906141ca90806125f2565b8460400151612626565b61010084015260c0830151614200906141f2906108cf8a6004614f92565b6108cf6139028a600a614f92565b6102008601526101c083015161421f906141f2906108cf8a6004614f92565b61022086015261010083015161423e906141f2906108cf8a6004614f92565b61024086015260e0830151614258906108cf896004614f92565b61014084015261427761426c886025614f92565b6108f289601d614f92565b61016084015260808301516142b590614155906142aa90614004906108cf60015f516020615c385f395f51905f52615565565b8561016001516125f2565b61018084018190526101208401516101a085018190526142ec916108d4906108cf6142e18c6005614f92565b6108cf8d6002614f92565b6101a08401819052835161430c91906108d4906108cf6142e18c5f614f92565b6101a08401819052610140840151614324919061260d565b6101a0840181905261433e906108cf6139028a600a614f92565b6101a0840181905285600d613732565b6143876040518060e001604052805f81526020015f81526020015f81526020015f81526020015f81526020015f81526020015f81525090565b6143bc6143a361439886601c614f92565b6108cf876025614f92565b6108d46143b1876024614f92565b6108cf88601d614f92565b81526144016143f66143dd6143d287601c614f92565b6108cf88601f614f92565b6108d46143eb88601d614f92565b6108cf89601e614f92565b6108f2866026614f92565b6040820181905261441690600160441b6125f2565b6040820181905261442c906108f2866027614f92565b60408201819052815161443f919061260d565b60408201819052614455906108cf866005614f92565b6040820152805161446a90600160441b6125f2565b80825261448a906108d461447f876024614f92565b6108cf886025614f92565b808252602082018190526144b1906108f26144a687601e614f92565b6108d488601f614f92565b602082018190526144c7906108cf866004614f92565b60208201528051606082018190526144e4906108d486601f614f92565b60608201819052614508906108f26144fd876026614f92565b6108d4886027614f92565b6060820181905261451d906108cf865f614f92565b8160600181815250505f61454661453c8360200151846040015161260d565b836060015161260d565b9050614557816108cf876003614f92565b905061456f614567866025614f92565b6140006125f2565b60808301819052614585906108d4876024614f92565b60808301819052614598906140006125f2565b608083018190526145ae906108d487601e614f92565b608083018190526145c1906140006125f2565b608083018190526145d7906108d487601d614f92565b608083018190526145ea906140006125f2565b60808301819052614600906108d487601c614f92565b60808301819052614616906108f287601f614f92565b6080830181905261462c906108cf876005614f92565b608083015261463f614567866026614f92565b60a08301819052614655906108d4876025614f92565b60a08301819052614668906140006125f2565b60a0830181905261467e906108d4876024614f92565b60a08301819052614691906140006125f2565b60a083018190526146a7906108d487601f614f92565b60a083018190526146ba906140006125f2565b60a083018190526146d0906108d487601e614f92565b60a083018190526146e6906108f2876027614f92565b60a083018190526146fb906108cf875f614f92565b60a0830181905260808301515f91614713919061260d565b9050614724816108cf886004614f92565b9050614730828261260d565b60c08401819052614749906108cf61390289600b614f92565b60c084018190528560136020020152505050505050565b6147d66040518061022001604052805f81526020015f81526020015f81526020015f81526020015f81526020015f81526020015f81526020015f81526020015f81526020015f81526020015f81526020015f81526020015f81526020015f81526020015f81526020015f81526020015f81525090565b6147ef6147e485601c614f92565b6108d4866002614f92565b815261480a6147ff85601d614f92565b6108d4866003614f92565b602082015261482861481d85601e614f92565b6108d4866004614f92565b604082015261484661483b85601f614f92565b6108d4866005614f92565b60608201528051614878906148719061486a9061486390806125f2565b84516125f2565b83516125f2565b82516125f2565b608082015260208101516148b6906148ac906148a29061489890806125f2565b84602001516125f2565b83602001516125f2565b82602001516125f2565b60a082015260408101516148f4906148ea906148e0906148d690806125f2565b84604001516125f2565b83604001516125f2565b82604001516125f2565b60c082015260608101516149289061400b9061491e9061491490806125f2565b84606001516125f2565b83606001516125f2565b60e0820152608081015160a0820151614941919061260d565b61010082015260c081015160e082015161495b919061260d565b61012082015260a081015161497f90614974908061260d565b82610120015161260d565b61014082015260e08101516149a390614998908061260d565b82610100015161260d565b6101608201526101208101516149b9908061260d565b6101e082018190526149da906149cf908061260d565b82610160015161260d565b6101e08201526101008101516149f0908061260d565b6101a08201819052614a1190614a06908061260d565b82610140015161260d565b6101a08201819052610160820151614a289161260d565b6101808201526101408101516101e0820151614a44919061260d565b6101c0820152614a5861340f85600c614f92565b6102008201819052610280840151610180830151614a83926108d4916108cf906108f28a6024614f92565b8360146020020152614ab383601560200201516108d48361020001516108cf856101a001516108f28a6025614f92565b8360156020020152614ae383601660200201516108d48361020001516108cf856101c001516108f28a6026614f92565b8360166020020152614b1383601760200201516108d48361020001516108cf856101e001516108f28a6027614f92565b836017602002015250505050565b614b736040518061016001604052805f81526020015f81526020015f81526020015f81526020015f81526020015f81526020015f81526020015f81526020015f81526020015f81526020015f81525090565b5f6040518060800160405280614ba87f10dc6e9c006ea38b04b1e03b4bd9490c0d03f98929ca1d7fb56821fd19d3b6e76125da565b8152602001614bd67f0c28145b6a44df3e0149b3d0a30b3bb599df9756d4dd9b84a86b38cfb45a740b6125da565b8152602001614c037e544b8338791518b2c7645a50392798b21f75bb60e3596170067d00141cac156125da565b8152602001614c317f222c01175718386f2e2e82eb122789e352e105a3b8fa852613bc534433ee428b6125da565b90529050614c4e614c4386601c614f92565b6108d4876002614f92565b6101208301819052614c8d90614c8290614c7790614c6c90806125f2565b8561012001516125f2565b8461012001516125f2565b8361012001516125f2565b8252614c9a85601d614f92565b6020830152614caa85601e614f92565b6040830152614cba85601f614f92565b606083015281516020830151614ce29161453c91614cd8919061260d565b846040015161260d565b6080830152614cf56136c186600d614f92565b6101408301528151614d1690614d0c90835f610b7d565b836080015161260d565b60a0830152614d4284601860200201516108d48461014001516108cf8660a001516108f28b6024614f92565b6103008501526020820151614d5d90614d0c90836001610b7d565b60c0830152614d8984601960200201516108d48461014001516108cf8660c001516108f28b6025614f92565b6103208501526040820151614da490614d0c90836002610b7d565b60e0830152614dd084601a60200201516108d48461014001516108cf8660e001516108f28b6026614f92565b6103408501526060820151614deb90614d0c90836003610b7d565b610100830152614e1984601b60200201516108d48461014001516108cf8661010001516108f28b6027614f92565b84601b613548565b815160015b601c811015614e7357614e69826108d48684601c8110614e4857614e48615add565b602002015186614e59600187615565565b601b8110610b7d57610b7d615add565b9150600101614e26565b5092915050565b5f5f8390505f60405160208152602080820152602060408201528260608201528460808201525f516020615c385f395f51905f5260a082015260205f60c08360055afa80614ec6575f5ffd5b505f5160809190910160405295945050505050565b614ee36152a5565b614eeb6152a5565b604051835181526020840151602082015284604082015260408160608360075afa80614f15575f5ffd5b5080518252602080820151908301526060016040529392505050565b614f396152a5565b614f416152a5565b6040518451815260208501516020820152835160408201526020840151606082015260408160808360065afa80614f76575f5ffd5b5080518252602080820151908301526080016040529392505050565b5f82826028811115614fa657614fa6615bc3565b60298110614fb657614fb6615add565b60200201519392505050565b604051806103e001604052805f81526020015f81526020015f8152602001614fe86152a5565b8152602001614ff56152a5565b81526020016150026152a5565b815260200161500f6152a5565b815260200161501c6152a5565b81526020016150296152a5565b81526020016150366152a5565b81526020016150436152a5565b81526020016150506152a5565b815260200161505d6152a5565b815260200161506a6152a5565b81526020016150776152a5565b81526020016150846152a5565b81526020016150916152a5565b815260200161509e6152a5565b81526020016150ab6152a5565b81526020016150b86152a5565b81526020016150c56152a5565b81526020016150d26152a5565b81526020016150df6152a5565b81526020016150ec6152a5565b81526020016150f96152a5565b81526020016151066152a5565b81526020016151136152a5565b81526020016151206152a5565b815260200161512d6152a5565b815260200161513a6152a5565b81526020016151476152a5565b905290565b604051806102a00160405280615160615371565b815260200161516d6152a5565b815260200161517a6152a5565b81526020016151876152a5565b81526020016151946152a5565b81526020016151a16152a5565b81526020016151ae6152a5565b81526020016151bb6152a5565b81526020016151c86152a5565b81526020016151d5615390565b81526020015f81526020016151e86153bd565b81526020016151f56153eb565b81526020015f81526020016152086152a5565b81526020015f815260200161521b61540a565b81526020016152286152ef565b815260200161512d615438565b604051806101c001604052805f81526020015f81526020015f81526020015f81526020015f81526020015f81526020015f8152602001615273615438565b8152602001615280615438565b81526020015f81526020015f81526020015f81526020015f8152602001606081525090565b60405180604001604052805f81526020015f81525090565b604051806040016040528061513a6152a5565b6040518061012001604052806009906020820280368337509192915050565b604051806103800160405280601c906020820280368337509192915050565b6040518060e00160405280615321615456565b81526020015f81526020015f81526020015f81526020015f8152602001615346615456565b81526020015f81525090565b6040518061010001604052806008906020820280368337509192915050565b6040518061020001604052806010906020820280368337509192915050565b60405180606001604052806003905b6153a76152a5565b81526020019060019003908161539f5790505090565b604051806103800160405280601c905b6153d56152d0565b8152602001906001900390816153cd5790505090565b6040518061052001604052806029906020820280368337509192915050565b604051806103600160405280601b905b6154226152a5565b81526020019060019003908161541a5790505090565b60405180608001604052806004906020820280368337509192915050565b604051806120000160405280610100906020820280368337509192915050565b5f5f5f5f60408587031215615489575f5ffd5b84356001600160401b0381111561549e575f5ffd5b8501601f810187136154ae575f5ffd5b80356001600160401b038111156154c3575f5ffd5b8760208284010111156154d4575f5ffd5b6020918201955093508501356001600160401b038111156154f3575f5ffd5b8501601f81018713615503575f5ffd5b80356001600160401b03811115615518575f5ffd5b8760208260051b840101111561552c575f5ffd5b949793965060200194505050565b634e487b7160e01b5f52601160045260245ffd5b80820281158282048414176126075761260761553a565b818103818111156126075761260761553a565b805f5b601081101561317f57815184526020938401939091019060010161557b565b80518252602090810151910152565b805f5b600381101561317f576155c084835161559a565b60409390930192602091909101906001016155ac565b805f5b601c81101561317f578151845f5b60098110156156065782518252602092830192909101906001016155e7565b5050506101209390930192602091909101906001016155d9565b805f5b602981101561317f578151845260209384019390910190600101615623565b805f5b601b81101561317f5761565984835161559a565b6040939093019260209190910190600101615645565b805f5b601c81101561317f578151845260209384019390910190600101615672565b805f5b600481101561317f578151845260209384019390910190600101615694565b8183525f6001600160fb1b038311156156ca575f5ffd5b8260051b80836020870137939093016020019392505050565b6156ee818851615578565b5f602088015161570261020084018261559a565b50604088015161571661024084018261559a565b50606088015161572a61028084018261559a565b50608088015161573e6102c084018261559a565b5060a088015161575261030084018261559a565b5060c088015161576661034084018261559a565b5060e088015161577a61038084018261559a565b5061010088015161578f6103c084018261559a565b506101208801516157a46104008401826155a9565b506101408801516104c08301526101608801516157c56104e08401826155d6565b506101808801516157da612460840182615620565b506101a08801516129808301526101c08801516157fb6129a084018261559a565b506101e08801516129e083015261020088015161581c612a00840182615642565b506102208801516158316130c084018261566f565b50610240880151615846613440840182615691565b5061026088015161585b6134c084018261559a565b5061028088015161587061350084018261559a565b506135c06135408301526158896135c0830187896156b3565b613560830195909552506135808101929092526135a0909101529392505050565b634e487b7160e01b5f52604160045260245ffd5b60405161014081016001600160401b03811182821017156158e1576158e16158aa565b60405290565b604051601f8201601f191681016001600160401b038111828210171561590f5761590f6158aa565b604052919050565b5f60c08284031215615927575f5ffd5b60405160c081016001600160401b0381118282101715615949576159496158aa565b604090815283518252602080850151908301528381015190820152606080840151908201526080808401519082015260a0928301519281019290925250919050565b5f82601f83011261599a575f5ffd5b5f6103606159a7816158e7565b9150830181858211156159b8575f5ffd5b845b828110156159d25780518252602091820191016159ba565b509195945050505050565b5f82601f8301126159ec575f5ffd5b5f6103806159a7816158e7565b5f610be0828403128015615a0b575f5ffd5b50615a146158be565b615a1e8484615917565b8152615a2d8460c0850161598b565b6020820152615a408461042085016159dd565b60408201526107a08301516060820152615a5e846107c085016159dd565b6080820152610b4083015160a0820152610b6083015160c0820152610b8083015160e0820152610ba0830151610100820152610bc09092015161012083015250919050565b808201808211156126075761260761553a565b5f5f85851115615ac4575f5ffd5b83861115615ad0575f5ffd5b5050820193919092039150565b634e487b7160e01b5f52603260045260245ffd5b5f60018201615b0257615b0261553a565b5060010190565b80356020831015612607575f19602084900360031b1b1692915050565b5f82615b4057634e487b7160e01b5f52601260045260245ffd5b500690565b5f81615b5357615b5361553a565b505f190190565b5f8183825b6008811015615b7e578151835260209283019290910190600101615b5f565b5050506101008201905092915050565b5f82518060208501845e5f920191825250919050565b5f60208284031215615bb4575f5ffd5b815180151581146103dd575f5ffd5b634e487b7160e01b5f52602160045260245ffdfe30644e72e131a029b85045b68181585d2833e84879b9709143e1f593effffd3130644e72e131a029b85045b68181585d97816a916871ca8d3c208c16d87cfd47204bd3277422fad364751ad938e2b5e6a54cf8c68712848a692c553d0329f5d630644e72e131a029b85045b68181585d2833e84879b9709143e1f593f000000130644e72e131a029b85045b68181585d2833e84879b9709143e1f593efffec51a264697066735822122025d60b373f988b998822bd4d1fa45aec0884f54f2ed4a146c7b3514f2f10a06a64736f6c634300081c0033",
  "linkReferences": {
    "project/contracts/reMint100Verifier.sol": {
      "ZKTranscriptLib": [
        {
          "length": 20,
          "start": 581
        }
      ]
    }
  },
  "deployedLinkReferences": {
    "project/contracts/reMint100Verifier.sol": {
      "ZKTranscriptLib": [
        {
          "length": 20,
          "start": 360
        }
      ]
    }
  },
  "immutableReferences": {
    "7763": [
      {
        "length": 32,
        "start": 91
      },
      {
        "length": 32,
        "start": 148
      },
      {
        "length": 32,
        "start": 257
      },
      {
        "length": 32,
        "start": 466
      },
      {
        "length": 32,
        "start": 2608
      },
      {
        "length": 32,
        "start": 2877
      },
      {
        "length": 32,
        "start": 3036
      },
      {
        "length": 32,
        "start": 3082
      },
      {
        "length": 32,
        "start": 3216
      },
      {
        "length": 32,
        "start": 5412
      },
      {
        "length": 32,
        "start": 5587
      },
      {
        "length": 32,
        "start": 5638
      },
      {
        "length": 32,
        "start": 6160
      },
      {
        "length": 32,
        "start": 11082
      },
      {
        "length": 32,
        "start": 11853
      }
    ],
    "7765": [
      {
        "length": 32,
        "start": 398
      }
    ],
    "7767": [
      {
        "length": 32,
        "start": 432
      },
      {
        "length": 32,
        "start": 2306
      }
    ]
  },
  "inputSourceName": "project/contracts/reMint100Verifier.sol",
  "buildInfoId": "solc-0_8_28-9e5e38c3ca0e712c1ee6204952eafec4a16c7ef7"
}