{
  "_format": "hh3-artifact-1",
  "contractName": "Split",
  "sourceName": "contracts/Split.sol",
  "abi": [
    {
      "inputs": [
        {
          "internalType": "address",
          "name": "_tokenAddress",
          "type": "address"
        },
        {
          "internalType": "address[]",
          "name": "_recipients",
          "type": "address[]"
        },
        {
          "internalType": "uint256[]",
          "name": "_amounts",
          "type": "uint256[]"
        }
      ],
      "name": "split",
      "outputs": [],
      "stateMutability": "nonpayable",
      "type": "function"
    }
  ],
  "bytecode": "0x6080604052348015600e575f5ffd5b506102858061001c5f395ff3fe608060405234801561000f575f5ffd5b5060043610610029575f3560e01c806346de8a471461002d575b5f5ffd5b61004061003b36600461017e565b610042565b005b845f5b8481101561011357816001600160a01b031663a9059cbb87878481811061006e5761006e6101fc565b90506020020160208101906100839190610210565b868685818110610095576100956101fc565b6040516001600160e01b031960e087901b1681526001600160a01b03909416600485015260200291909101356024830152506044016020604051808303815f875af11580156100e6573d5f5f3e3d5ffd5b505050506040513d601f19601f8201168201806040525081019061010a9190610230565b50600101610045565b50505050505050565b80356001600160a01b0381168114610132575f5ffd5b919050565b5f5f83601f840112610147575f5ffd5b5081356001600160401b0381111561015d575f5ffd5b6020830191508360208260051b8501011115610177575f5ffd5b9250929050565b5f5f5f5f5f60608688031215610192575f5ffd5b61019b8661011c565b945060208601356001600160401b038111156101b5575f5ffd5b6101c188828901610137565b90955093505060408601356001600160401b038111156101df575f5ffd5b6101eb88828901610137565b969995985093965092949392505050565b634e487b7160e01b5f52603260045260245ffd5b5f60208284031215610220575f5ffd5b6102298261011c565b9392505050565b5f60208284031215610240575f5ffd5b81518015158114610229575f5ffdfea2646970667358221220aff31c05204fee896876c3cada2d78409f11144893cd11282be390fd59d9a9e164736f6c634300081c0033",
  "linkReferences": {},
  "deployedLinkReferences": {},
  "immutableReferences": {},
  "inputSourceName": "project/contracts/Split.sol",
  "buildInfoId": "solc-0_8_28-4aa6070234f8ac303480dee7b024f0416d3e39f9"
}