{
  "_format": "hh3-artifact-1",
  "contractName": "WormholeToken",
  "sourceName": "contracts/WormholeToken.sol",
  "abi": [
    {
      "inputs": [
        {
          "components": [
            {
              "internalType": "address",
              "name": "contractAddress",
              "type": "address"
            },
            {
              "internalType": "uint8",
              "name": "size",
              "type": "uint8"
            }
          ],
          "internalType": "struct Verifier[]",
          "name": "_verifiers",
          "type": "tuple[]"
        },
        {
          "internalType": "bytes32",
          "name": "_powDifficulty",
          "type": "bytes32"
        },
        {
          "internalType": "uint256",
          "name": "_reMintLimit",
          "type": "uint256"
        },
        {
          "internalType": "uint16",
          "name": "_maxTreeDepth",
          "type": "uint16"
        }
      ],
      "stateMutability": "nonpayable",
      "type": "constructor"
    },
    {
      "inputs": [
        {
          "internalType": "address",
          "name": "spender",
          "type": "address"
        },
        {
          "internalType": "uint256",
          "name": "allowance",
          "type": "uint256"
        },
        {
          "internalType": "uint256",
          "name": "needed",
          "type": "uint256"
        }
      ],
      "name": "ERC20InsufficientAllowance",
      "type": "error"
    },
    {
      "inputs": [
        {
          "internalType": "address",
          "name": "sender",
          "type": "address"
        },
        {
          "internalType": "uint256",
          "name": "balance",
          "type": "uint256"
        },
        {
          "internalType": "uint256",
          "name": "needed",
          "type": "uint256"
        }
      ],
      "name": "ERC20InsufficientBalance",
      "type": "error"
    },
    {
      "inputs": [
        {
          "internalType": "address",
          "name": "approver",
          "type": "address"
        }
      ],
      "name": "ERC20InvalidApprover",
      "type": "error"
    },
    {
      "inputs": [
        {
          "internalType": "address",
          "name": "receiver",
          "type": "address"
        }
      ],
      "name": "ERC20InvalidReceiver",
      "type": "error"
    },
    {
      "inputs": [
        {
          "internalType": "address",
          "name": "sender",
          "type": "address"
        }
      ],
      "name": "ERC20InvalidSender",
      "type": "error"
    },
    {
      "inputs": [
        {
          "internalType": "address",
          "name": "spender",
          "type": "address"
        }
      ],
      "name": "ERC20InvalidSpender",
      "type": "error"
    },
    {
      "inputs": [],
      "name": "InvalidShortString",
      "type": "error"
    },
    {
      "inputs": [
        {
          "internalType": "string",
          "name": "str",
          "type": "string"
        }
      ],
      "name": "StringTooLong",
      "type": "error"
    },
    {
      "inputs": [],
      "name": "VerificationFailed",
      "type": "error"
    },
    {
      "anonymous": false,
      "inputs": [
        {
          "indexed": true,
          "internalType": "address",
          "name": "owner",
          "type": "address"
        },
        {
          "indexed": true,
          "internalType": "address",
          "name": "spender",
          "type": "address"
        },
        {
          "indexed": false,
          "internalType": "uint256",
          "name": "value",
          "type": "uint256"
        }
      ],
      "name": "Approval",
      "type": "event"
    },
    {
      "anonymous": false,
      "inputs": [],
      "name": "EIP712DomainChanged",
      "type": "event"
    },
    {
      "anonymous": false,
      "inputs": [
        {
          "indexed": false,
          "internalType": "uint256",
          "name": "leaf",
          "type": "uint256"
        }
      ],
      "name": "NewLeaf",
      "type": "event"
    },
    {
      "anonymous": false,
      "inputs": [
        {
          "indexed": true,
          "internalType": "uint256",
          "name": "nullifier",
          "type": "uint256"
        },
        {
          "indexed": false,
          "internalType": "bytes",
          "name": "encryptedTotalMinted",
          "type": "bytes"
        }
      ],
      "name": "Nullified",
      "type": "event"
    },
    {
      "anonymous": false,
      "inputs": [
        {
          "indexed": true,
          "internalType": "address",
          "name": "from",
          "type": "address"
        },
        {
          "indexed": true,
          "internalType": "address",
          "name": "to",
          "type": "address"
        },
        {
          "indexed": false,
          "internalType": "uint256",
          "name": "value",
          "type": "uint256"
        }
      ],
      "name": "Transfer",
      "type": "event"
    },
    {
      "inputs": [],
      "name": "AMOUNT_OF_VERIFIERS",
      "outputs": [
        {
          "internalType": "uint8",
          "name": "",
          "type": "uint8"
        }
      ],
      "stateMutability": "view",
      "type": "function"
    },
    {
      "inputs": [],
      "name": "MAX_TREE_DEPTH",
      "outputs": [
        {
          "internalType": "uint16",
          "name": "",
          "type": "uint16"
        }
      ],
      "stateMutability": "view",
      "type": "function"
    },
    {
      "inputs": [],
      "name": "POW_DIFFICULTY",
      "outputs": [
        {
          "internalType": "bytes32",
          "name": "",
          "type": "bytes32"
        }
      ],
      "stateMutability": "view",
      "type": "function"
    },
    {
      "inputs": [],
      "name": "RE_MINT_LIMIT",
      "outputs": [
        {
          "internalType": "bytes32",
          "name": "",
          "type": "bytes32"
        }
      ],
      "stateMutability": "view",
      "type": "function"
    },
    {
      "inputs": [],
      "name": "TOTAL_BURNED_DOMAIN",
      "outputs": [
        {
          "internalType": "uint256",
          "name": "",
          "type": "uint256"
        }
      ],
      "stateMutability": "view",
      "type": "function"
    },
    {
      "inputs": [
        {
          "internalType": "uint256",
          "name": "",
          "type": "uint256"
        }
      ],
      "name": "VERIFIER_SIZES",
      "outputs": [
        {
          "internalType": "uint8",
          "name": "",
          "type": "uint8"
        }
      ],
      "stateMutability": "view",
      "type": "function"
    },
    {
      "inputs": [
        {
          "components": [
            {
              "internalType": "uint256",
              "name": "tokensPerEthPrice",
              "type": "uint256"
            },
            {
              "internalType": "uint256",
              "name": "maxFee",
              "type": "uint256"
            },
            {
              "internalType": "uint256",
              "name": "amountForRecipient",
              "type": "uint256"
            },
            {
              "internalType": "uint256",
              "name": "relayerBonus",
              "type": "uint256"
            },
            {
              "internalType": "uint256",
              "name": "estimatedGasCost",
              "type": "uint256"
            },
            {
              "internalType": "uint256",
              "name": "estimatedPriorityFee",
              "type": "uint256"
            },
            {
              "internalType": "address",
              "name": "refundAddress",
              "type": "address"
            },
            {
              "internalType": "address",
              "name": "relayerAddress",
              "type": "address"
            }
          ],
          "internalType": "struct FeeData",
          "name": "_feeData",
          "type": "tuple"
        },
        {
          "internalType": "uint256",
          "name": "_amountToReMint",
          "type": "uint256"
        }
      ],
      "name": "_calculateFee",
      "outputs": [
        {
          "internalType": "uint256",
          "name": "",
          "type": "uint256"
        },
        {
          "internalType": "uint256",
          "name": "",
          "type": "uint256"
        }
      ],
      "stateMutability": "view",
      "type": "function"
    },
    {
      "inputs": [
        {
          "internalType": "uint256",
          "name": "_root",
          "type": "uint256"
        },
        {
          "internalType": "uint256",
          "name": "_amount",
          "type": "uint256"
        },
        {
          "internalType": "bytes32",
          "name": "_signatureHash",
          "type": "bytes32"
        },
        {
          "internalType": "uint256[]",
          "name": "_totalMintedLeafs",
          "type": "uint256[]"
        },
        {
          "internalType": "uint256[]",
          "name": "_nullifiers",
          "type": "uint256[]"
        }
      ],
      "name": "_formatPublicInputs",
      "outputs": [
        {
          "internalType": "bytes32[]",
          "name": "",
          "type": "bytes32[]"
        }
      ],
      "stateMutability": "view",
      "type": "function"
    },
    {
      "inputs": [
        {
          "components": [
            {
              "internalType": "address",
              "name": "recipient",
              "type": "address"
            },
            {
              "internalType": "uint256",
              "name": "amountToReMint",
              "type": "uint256"
            },
            {
              "internalType": "bytes",
              "name": "callData",
              "type": "bytes"
            },
            {
              "internalType": "bool",
              "name": "callCanFail",
              "type": "bool"
            },
            {
              "internalType": "uint256",
              "name": "callValue",
              "type": "uint256"
            },
            {
              "internalType": "bytes[]",
              "name": "encryptedTotalMinted",
              "type": "bytes[]"
            }
          ],
          "internalType": "struct SignatureInputs",
          "name": "_signatureInputs",
          "type": "tuple"
        }
      ],
      "name": "_hashSignatureInputs",
      "outputs": [
        {
          "internalType": "bytes32",
          "name": "",
          "type": "bytes32"
        }
      ],
      "stateMutability": "view",
      "type": "function"
    },
    {
      "inputs": [
        {
          "components": [
            {
              "internalType": "address",
              "name": "recipient",
              "type": "address"
            },
            {
              "internalType": "uint256",
              "name": "amountToReMint",
              "type": "uint256"
            },
            {
              "internalType": "bytes",
              "name": "callData",
              "type": "bytes"
            },
            {
              "internalType": "bool",
              "name": "callCanFail",
              "type": "bool"
            },
            {
              "internalType": "uint256",
              "name": "callValue",
              "type": "uint256"
            },
            {
              "internalType": "bytes[]",
              "name": "encryptedTotalMinted",
              "type": "bytes[]"
            }
          ],
          "internalType": "struct SignatureInputs",
          "name": "_signatureInputs",
          "type": "tuple"
        },
        {
          "components": [
            {
              "internalType": "uint256",
              "name": "tokensPerEthPrice",
              "type": "uint256"
            },
            {
              "internalType": "uint256",
              "name": "maxFee",
              "type": "uint256"
            },
            {
              "internalType": "uint256",
              "name": "amountForRecipient",
              "type": "uint256"
            },
            {
              "internalType": "uint256",
              "name": "relayerBonus",
              "type": "uint256"
            },
            {
              "internalType": "uint256",
              "name": "estimatedGasCost",
              "type": "uint256"
            },
            {
              "internalType": "uint256",
              "name": "estimatedPriorityFee",
              "type": "uint256"
            },
            {
              "internalType": "address",
              "name": "refundAddress",
              "type": "address"
            },
            {
              "internalType": "address",
              "name": "relayerAddress",
              "type": "address"
            }
          ],
          "internalType": "struct FeeData",
          "name": "_feeData",
          "type": "tuple"
        }
      ],
      "name": "_hashSignatureInputsRelayer",
      "outputs": [
        {
          "internalType": "bytes32",
          "name": "",
          "type": "bytes32"
        }
      ],
      "stateMutability": "view",
      "type": "function"
    },
    {
      "inputs": [
        {
          "internalType": "uint256",
          "name": "_amount",
          "type": "uint256"
        },
        {
          "internalType": "uint256[]",
          "name": "_totalMintedLeafs",
          "type": "uint256[]"
        },
        {
          "internalType": "uint256[]",
          "name": "_nullifiers",
          "type": "uint256[]"
        },
        {
          "internalType": "uint256",
          "name": "_root",
          "type": "uint256"
        },
        {
          "internalType": "bytes",
          "name": "_snarkProof",
          "type": "bytes"
        },
        {
          "internalType": "bytes[]",
          "name": "_encryptedTotalMinted",
          "type": "bytes[]"
        },
        {
          "internalType": "bytes32",
          "name": "signatureHash",
          "type": "bytes32"
        }
      ],
      "name": "_verifyReMint",
      "outputs": [],
      "stateMutability": "nonpayable",
      "type": "function"
    },
    {
      "inputs": [
        {
          "internalType": "address",
          "name": "owner",
          "type": "address"
        },
        {
          "internalType": "address",
          "name": "spender",
          "type": "address"
        }
      ],
      "name": "allowance",
      "outputs": [
        {
          "internalType": "uint256",
          "name": "",
          "type": "uint256"
        }
      ],
      "stateMutability": "view",
      "type": "function"
    },
    {
      "inputs": [],
      "name": "amountFreeTokens",
      "outputs": [
        {
          "internalType": "uint256",
          "name": "",
          "type": "uint256"
        }
      ],
      "stateMutability": "view",
      "type": "function"
    },
    {
      "inputs": [
        {
          "internalType": "address",
          "name": "spender",
          "type": "address"
        },
        {
          "internalType": "uint256",
          "name": "value",
          "type": "uint256"
        }
      ],
      "name": "approve",
      "outputs": [
        {
          "internalType": "bool",
          "name": "",
          "type": "bool"
        }
      ],
      "stateMutability": "nonpayable",
      "type": "function"
    },
    {
      "inputs": [
        {
          "internalType": "address",
          "name": "account",
          "type": "address"
        }
      ],
      "name": "balanceOf",
      "outputs": [
        {
          "internalType": "uint256",
          "name": "",
          "type": "uint256"
        }
      ],
      "stateMutability": "view",
      "type": "function"
    },
    {
      "inputs": [],
      "name": "decimals",
      "outputs": [
        {
          "internalType": "uint8",
          "name": "",
          "type": "uint8"
        }
      ],
      "stateMutability": "view",
      "type": "function"
    },
    {
      "inputs": [],
      "name": "decimalsTokenPrice",
      "outputs": [
        {
          "internalType": "uint256",
          "name": "",
          "type": "uint256"
        }
      ],
      "stateMutability": "view",
      "type": "function"
    },
    {
      "inputs": [],
      "name": "eip712Domain",
      "outputs": [
        {
          "internalType": "bytes1",
          "name": "fields",
          "type": "bytes1"
        },
        {
          "internalType": "string",
          "name": "name",
          "type": "string"
        },
        {
          "internalType": "string",
          "name": "version",
          "type": "string"
        },
        {
          "internalType": "uint256",
          "name": "chainId",
          "type": "uint256"
        },
        {
          "internalType": "address",
          "name": "verifyingContract",
          "type": "address"
        },
        {
          "internalType": "bytes32",
          "name": "salt",
          "type": "bytes32"
        },
        {
          "internalType": "uint256[]",
          "name": "extensions",
          "type": "uint256[]"
        }
      ],
      "stateMutability": "view",
      "type": "function"
    },
    {
      "inputs": [
        {
          "internalType": "address",
          "name": "_to",
          "type": "address"
        }
      ],
      "name": "getFreeTokens",
      "outputs": [],
      "stateMutability": "nonpayable",
      "type": "function"
    },
    {
      "inputs": [
        {
          "internalType": "uint256[3]",
          "name": "input",
          "type": "uint256[3]"
        }
      ],
      "name": "hashPoseidon2T3",
      "outputs": [
        {
          "internalType": "uint256",
          "name": "",
          "type": "uint256"
        }
      ],
      "stateMutability": "view",
      "type": "function"
    },
    {
      "inputs": [
        {
          "internalType": "uint256[6]",
          "name": "input",
          "type": "uint256[6]"
        }
      ],
      "name": "hashPoseidon2T6",
      "outputs": [
        {
          "internalType": "uint256",
          "name": "",
          "type": "uint256"
        }
      ],
      "stateMutability": "view",
      "type": "function"
    },
    {
      "inputs": [],
      "name": "name",
      "outputs": [
        {
          "internalType": "string",
          "name": "",
          "type": "string"
        }
      ],
      "stateMutability": "view",
      "type": "function"
    },
    {
      "inputs": [
        {
          "internalType": "uint256",
          "name": "",
          "type": "uint256"
        }
      ],
      "name": "nullifiers",
      "outputs": [
        {
          "internalType": "uint256",
          "name": "",
          "type": "uint256"
        }
      ],
      "stateMutability": "view",
      "type": "function"
    },
    {
      "inputs": [
        {
          "internalType": "uint256[]",
          "name": "_totalMintedLeafs",
          "type": "uint256[]"
        },
        {
          "internalType": "uint256[]",
          "name": "_nullifiers",
          "type": "uint256[]"
        },
        {
          "internalType": "uint256",
          "name": "_root",
          "type": "uint256"
        },
        {
          "internalType": "bytes",
          "name": "_snarkProof",
          "type": "bytes"
        },
        {
          "components": [
            {
              "internalType": "address",
              "name": "recipient",
              "type": "address"
            },
            {
              "internalType": "uint256",
              "name": "amountToReMint",
              "type": "uint256"
            },
            {
              "internalType": "bytes",
              "name": "callData",
              "type": "bytes"
            },
            {
              "internalType": "bool",
              "name": "callCanFail",
              "type": "bool"
            },
            {
              "internalType": "uint256",
              "name": "callValue",
              "type": "uint256"
            },
            {
              "internalType": "bytes[]",
              "name": "encryptedTotalMinted",
              "type": "bytes[]"
            }
          ],
          "internalType": "struct SignatureInputs",
          "name": "_signatureInputs",
          "type": "tuple"
        }
      ],
      "name": "reMint",
      "outputs": [],
      "stateMutability": "nonpayable",
      "type": "function"
    },
    {
      "inputs": [
        {
          "internalType": "uint256[]",
          "name": "_totalMintedLeafs",
          "type": "uint256[]"
        },
        {
          "internalType": "uint256[]",
          "name": "_nullifiers",
          "type": "uint256[]"
        },
        {
          "internalType": "uint256",
          "name": "_root",
          "type": "uint256"
        },
        {
          "internalType": "bytes",
          "name": "_snarkProof",
          "type": "bytes"
        },
        {
          "components": [
            {
              "internalType": "address",
              "name": "recipient",
              "type": "address"
            },
            {
              "internalType": "uint256",
              "name": "amountToReMint",
              "type": "uint256"
            },
            {
              "internalType": "bytes",
              "name": "callData",
              "type": "bytes"
            },
            {
              "internalType": "bool",
              "name": "callCanFail",
              "type": "bool"
            },
            {
              "internalType": "uint256",
              "name": "callValue",
              "type": "uint256"
            },
            {
              "internalType": "bytes[]",
              "name": "encryptedTotalMinted",
              "type": "bytes[]"
            }
          ],
          "internalType": "struct SignatureInputs",
          "name": "_signatureInputs",
          "type": "tuple"
        },
        {
          "components": [
            {
              "internalType": "uint256",
              "name": "tokensPerEthPrice",
              "type": "uint256"
            },
            {
              "internalType": "uint256",
              "name": "maxFee",
              "type": "uint256"
            },
            {
              "internalType": "uint256",
              "name": "amountForRecipient",
              "type": "uint256"
            },
            {
              "internalType": "uint256",
              "name": "relayerBonus",
              "type": "uint256"
            },
            {
              "internalType": "uint256",
              "name": "estimatedGasCost",
              "type": "uint256"
            },
            {
              "internalType": "uint256",
              "name": "estimatedPriorityFee",
              "type": "uint256"
            },
            {
              "internalType": "address",
              "name": "refundAddress",
              "type": "address"
            },
            {
              "internalType": "address",
              "name": "relayerAddress",
              "type": "address"
            }
          ],
          "internalType": "struct FeeData",
          "name": "_feeData",
          "type": "tuple"
        }
      ],
      "name": "reMintRelayer",
      "outputs": [],
      "stateMutability": "nonpayable",
      "type": "function"
    },
    {
      "inputs": [],
      "name": "root",
      "outputs": [
        {
          "internalType": "uint256",
          "name": "",
          "type": "uint256"
        }
      ],
      "stateMutability": "view",
      "type": "function"
    },
    {
      "inputs": [
        {
          "internalType": "uint256",
          "name": "",
          "type": "uint256"
        }
      ],
      "name": "roots",
      "outputs": [
        {
          "internalType": "bool",
          "name": "",
          "type": "bool"
        }
      ],
      "stateMutability": "view",
      "type": "function"
    },
    {
      "inputs": [],
      "name": "symbol",
      "outputs": [
        {
          "internalType": "string",
          "name": "",
          "type": "string"
        }
      ],
      "stateMutability": "view",
      "type": "function"
    },
    {
      "inputs": [],
      "name": "totalSupply",
      "outputs": [
        {
          "internalType": "uint256",
          "name": "",
          "type": "uint256"
        }
      ],
      "stateMutability": "view",
      "type": "function"
    },
    {
      "inputs": [
        {
          "internalType": "address",
          "name": "to",
          "type": "address"
        },
        {
          "internalType": "uint256",
          "name": "value",
          "type": "uint256"
        }
      ],
      "name": "transfer",
      "outputs": [
        {
          "internalType": "bool",
          "name": "",
          "type": "bool"
        }
      ],
      "stateMutability": "nonpayable",
      "type": "function"
    },
    {
      "inputs": [
        {
          "internalType": "address",
          "name": "from",
          "type": "address"
        },
        {
          "internalType": "address",
          "name": "to",
          "type": "address"
        },
        {
          "internalType": "uint256",
          "name": "value",
          "type": "uint256"
        }
      ],
      "name": "transferFrom",
      "outputs": [
        {
          "internalType": "bool",
          "name": "",
          "type": "bool"
        }
      ],
      "stateMutability": "nonpayable",
      "type": "function"
    },
    {
      "inputs": [],
      "name": "tree",
      "outputs": [
        {
          "internalType": "uint256",
          "name": "size",
          "type": "uint256"
        },
        {
          "internalType": "uint256",
          "name": "depth",
          "type": "uint256"
        }
      ],
      "stateMutability": "view",
      "type": "function"
    },
    {
      "inputs": [],
      "name": "treeSize",
      "outputs": [
        {
          "internalType": "uint256",
          "name": "",
          "type": "uint256"
        }
      ],
      "stateMutability": "view",
      "type": "function"
    },
    {
      "inputs": [
        {
          "internalType": "uint8",
          "name": "",
          "type": "uint8"
        }
      ],
      "name": "verifierPerSize",
      "outputs": [
        {
          "internalType": "address",
          "name": "",
          "type": "address"
        }
      ],
      "stateMutability": "view",
      "type": "function"
    }
  ],
  "bytecode": "0x6101606040526100116012600a610469565b61001e90620f424061047e565b600a556008600b55348015610031575f5ffd5b50604051613a99380380613a9983398101604081905261005091610517565b6040805180820182526011808252703d35bbb7b936b437b632b996ba37b5b2b760791b60208084018290528451808601865260018152603160f81b8183015285518087018752938452838201929092528451808601909552600585526415d493521360da1b90850152919260036100c783826106b6565b5060046100d482826106b6565b506100e491508390506005610303565b610120526100f3816006610303565b61014052815160208084019190912060e052815190820120610100524660a05261017f60e05161010051604080517f8b73c3c69bb8fe3d512ecc4cf759cc79239f7b179b0ffacaa9a75d522b39400f60208201529081019290925260608201524660808201523060a08201525f9060c00160405160208183030381529060405280519060200120905090565b60805250503060c05283516012805460ff191660ff9092169190911790555f805b85518110156102dd575f8682815181106101bc576101bc610770565b60200260200101519050806020015160ff168360ff161061024a5760405162461bcd60e51b815260206004820152603b60248201527f5f766572696669657273206e6565647320746f20626520736f7274656420667260448201527f6f6d20736d616c6c65737420746f206c6172676573742073697a65000000000060648201526084015b60405180910390fd5b60208082018051925160ff8085165f908152601085526040812080546001600160a01b039094166001600160a01b03199094169390931790925591516011805460018181018355919093529382047f31ecc21a745e3968a04e9570e4425bc18fa8019c68028196b546d1669c200c68018054918416601f9093166101000a928302929093021916179055909250016101a0565b50506013929092556014556015805461ffff191661ffff909216919091179055506107dc565b5f60208351101561031e5761031783610335565b905061032f565b8161032984826106b6565b5060ff90505b92915050565b5f5f829050601f8151111561035f578260405163305a27a960e01b81526004016102419190610784565b805161036a826107b9565b179392505050565b634e487b7160e01b5f52601160045260245ffd5b6001815b60018411156103c1578085048111156103a5576103a5610372565b60018416156103b357908102905b60019390931c92800261038a565b935093915050565b5f826103d75750600161032f565b816103e357505f61032f565b81600181146103f957600281146104035761041f565b600191505061032f565b60ff84111561041457610414610372565b50506001821b61032f565b5060208310610133831016604e8410600b8410161715610442575081810a61032f565b61044e5f198484610386565b805f190482111561046157610461610372565b029392505050565b5f61047760ff8416836103c9565b9392505050565b808202811582820484141761032f5761032f610372565b634e487b7160e01b5f52604160045260245ffd5b604080519081016001600160401b03811182821017156104cb576104cb610495565b60405290565b604051601f8201601f191681016001600160401b03811182821017156104f9576104f9610495565b604052919050565b805161ffff81168114610512575f5ffd5b919050565b5f5f5f5f6080858703121561052a575f5ffd5b84516001600160401b0381111561053f575f5ffd5b8501601f8101871361054f575f5ffd5b80516001600160401b0381111561056857610568610495565b61057760208260051b016104d1565b8082825260208201915060208360061b850101925089831115610598575f5ffd5b6020840193505b82841015610605576040848b0312156105b6575f5ffd5b6105be6104a9565b84516001600160a01b03811681146105d4575f5ffd5b8152602085015160ff811681146105e9575f5ffd5b806020830152508083525060208201915060408401935061059f565b602089015160408a015191985096509450610627925050606087019050610501565b905092959194509250565b600181811c9082168061064657607f821691505b60208210810361066457634e487b7160e01b5f52602260045260245ffd5b50919050565b601f8211156106b157805f5260205f20601f840160051c8101602085101561068f5750805b601f840160051c820191505b818110156106ae575f815560010161069b565b50505b505050565b81516001600160401b038111156106cf576106cf610495565b6106e3816106dd8454610632565b8461066a565b6020601f821160018114610715575f83156106fe5750848201515b5f19600385901b1c1916600184901b1784556106ae565b5f84815260208120601f198516915b828110156107445787850151825560209485019460019092019101610724565b508482101561076157868401515f19600387901b60f8161c191681555b50505050600190811b01905550565b634e487b7160e01b5f52603260045260245ffd5b602081525f82518060208401528060208501604085015e5f604082850101526040601f19601f83011684010191505092915050565b80516020808301519190811015610664575f1960209190910360031b1b16919050565b60805160a05160c05160e05161010051610120516101405161326c61082d5f395f61148701525f61145a01525f611b3101525f611b0901525f611a6401525f611a8e01525f611ab8015261326c5ff3fe608060405234801561000f575f5ffd5b50600436106101a3575f3560e01c806384b0196e116100e757806384b0196e146103215780638d1ddfb11461033c57806395d89b4114610344578063a38535ff1461034c578063a9059cbb1461035f578063bc8910b714610372578063bf86232e14610385578063c2b40ae414610398578063c6570bfb146103ba578063d21e82ab146103c3578063dd62ed3e146103e2578063e1c5d751146103f5578063e38df5f014610402578063ebf0c71714610423578063f09220681461042b578063f21df1fa14610460578063fd54b22814610473575f5ffd5b80630290faea146101a757806306fdde03146101c3578063095ea7b3146101d85780631012c212146101fb57806318160ddd1461020e57806323b872dd1461021657806330d8c55d14610229578063313ce567146102325780633a53af40146102475780633d59e5e21461025a5780634a2ef36a1461026f5780634b164c0f1461028257806366678575146102a25780636b2ee80b146102ab57806370a08231146102be57806377d066f7146102e65780637c32ba9d146102f9575b5f5ffd5b6101b060135481565b6040519081526020015b60405180910390f35b6101cb610481565b6040516101ba9190612437565b6101eb6101e6366004612464565b610511565b60405190151581526020016101ba565b6101b06b544f54414c5f4255524e454481565b6002546101b0565b6101eb61022436600461248c565b61052a565b6101b0600b5481565b60125b60405160ff90911681526020016101ba565b6101b0610255366004612533565b61054d565b61026d610268366004612599565b6105ea565b005b6101b061027d3660046125b2565b6105f9565b61029561029036600461267f565b61062a565b6040516101ba9190612737565b6101b0600a5481565b6101b06102b936600461275f565b61083a565b6101b06102cc366004612599565b6001600160a01b03165f9081526020819052604090205490565b6101b06102f43660046127a1565b61092a565b61030c6103073660046127ed565b610a31565b604080519283526020830191909152016101ba565b610329610bc5565b6040516101ba9796959493929190612818565b600c546101b0565b6101cb610c07565b61026d61035a36600461292b565b610c16565b6101eb61036d366004612464565b610e80565b61026d610380366004612a04565b610e8d565b610235610393366004612ac6565b610ee6565b6101eb6103a6366004612ac6565b60086020525f908152604090205460ff1681565b6101b060145481565b6101b06103d1366004612ac6565b60076020525f908152604090205481565b6101b06103f0366004612add565b610f17565b6012546102359060ff1681565b6015546104109061ffff1681565b60405161ffff90911681526020016101ba565b6101b0610f41565b610453610439366004612b05565b60106020525f90815260409020546001600160a01b031681565b6040516101ba9190612b25565b61026d61046e366004612b39565b610fba565b600c54600d5461030c919082565b60606003805461049090612c0e565b80601f01602080910402602001604051908101604052809291908181526020018280546104bc90612c0e565b80156105075780601f106104de57610100808354040283529160200191610507565b820191905f5260205f20905b8154815290600101906020018083116104ea57829003601f168201915b5050505050905090565b5f3361051e8185856111a3565b60019150505b92915050565b5f336105378582856111b5565b610542858585611206565b506001949350505050565b5f5f73382abef9789c1b5fee54c72bd9aaf7983726841c6001600160a01b03168360405160200161057e9190612c40565b60408051601f198184030181529082905261059891612c70565b5f60405180830381855afa9150503d805f81146105d0576040519150601f19603f3d011682016040523d82523d5f602084013e6105d5565b606091505b50915050806105e390612c86565b9392505050565b6105f681600a54611263565b50565b5f5f73382abef9789c1b5fee54c72bd9aaf7983726841c6001600160a01b03168360405160200161057e9190612ca9565b80516060905f61063b826002612ce4565b610646906024612cfb565b6001600160401b0381111561065d5761065d6124c6565b604051908082528060200260200182016040528015610686578160200160208202803683370190505b509050875f1b815f8151811061069e5761069e612d0e565b602002602001018181525050865f1b816001815181106106c0576106c0612d0e565b602002602001018181525050601354816002815181106106e2576106e2612d0e565b6020026020010181815250506014548160038151811061070457610704612d0e565b602090810291909101015260045f5b602081101561075d5787816020811061072e5761072e612d0e565b1a8361073a8484612cfb565b8151811061074a5761074a612d0e565b6020908102919091010152600101610713565b505f61076a826020612cfb565b90505f5b875181101561082b5787818151811061078957610789612d0e565b60200260200101515f1b84838360026107a29190612ce4565b6107ac9190612cfb565b815181106107bc576107bc612d0e565b6020026020010181815250508681815181106107da576107da612d0e565b60200260200101515f1b84838360026107f39190612ce4565b6107fd9190612cfb565b610808906001612cfb565b8151811061081857610818612d0e565b602090810291909101015260010161076e565b50919998505050505050505050565b5f807ffc224f0d69baf4948a0b7ab26dc9ed36c96e034655f46eeabf2a78d7412f938761086a6020850185612599565b602085013561087c6040870187612d22565b60405161088a929190612d64565b6040519081900390206108a36080880160608901612d80565b60808801356108c66108b860a08b018b612d9b565b6108c191612de0565b61129b565b6040805160208101989098526001600160a01b039096169587019590955260608601939093526080850191909152151560a084015260c083015260e0820152610100016040516020818303038152906040528051906020012090506105e381611363565b5f807f07ae049f3f20ebe41828674330bedaea71a8a4b2cac5a9c2796ae088228f426e61095a6020860186612599565b602086013561096c6040880188612d22565b60405161097a929190612d64565b6040519081900390206109936080890160608a01612d80565b60808901356109a86108b860a08c018c612d9b565b6109bf6109ba368c90038c018c612ea0565b61138f565b6040805160208101999099526001600160a01b039097169688019690965260608701949094526080860192909252151560a085015260c084015260e083015261010082015261012001604051602081830303815290604052805190602001209050610a2981611363565b949350505050565b5f8080610a4260a086013548612cfb565b610a50906080870135612ce4565b90505f8560600135600b54600a610a679190612ffd565b610a72883585612ce4565b610a7c9190613008565b610a869190612cfb565b905085602001358110610ada5760405162461bcd60e51b81526020600482015260176024820152760e4cad8c2f2cae440cccaca40d2e640e8dede40d0d2ced604b1b60448201526064015b60405180910390fd5b808511610b385760405162461bcd60e51b815260206004820152602660248201527f666565206973206d6f7265207468656e20616d6f756e74206265696e67207265604482015265135a5b9d195960d21b6064820152608401610ad1565b6040860135610b478287613027565b1015610ba65760405162461bcd60e51b815260206004820152602860248201527f6e6f7420656e6f756768206c656674206166746572206665657320666f7220726044820152671958da5c1a595b9d60c21b6064820152608401610ad1565b5f610bb5826020890135613027565b91945090925050505b9250929050565b5f6060805f5f5f6060610bd6611453565b610bde611480565b604080515f80825260208201909252600f60f81b9b939a50919850469750309650945092509050565b60606004805461049090612c0e565b5f8681526008602052604090205460ff16610c625760405162461bcd60e51b815260206004820152600c60248201526b1a5b9d985b1a59081c9bdbdd60a21b6044820152606401610ad1565b5f5b8751811015610d5c575f888281518110610c8057610c80612d0e565b60200260200101519050805f14610d53575f8181526007602052604090205415610ce65760405162461bcd60e51b81526020600482015260176024820152761b9d5b1b1a599a595c88185b1c9958591e48195e1a5cdd604a1b6044820152606401610ad1565b5f818152600760205260409020439055807fdea71a061c0e15a14191f2e29163dac18565965624c0422ba9025b541d0abc99868685818110610d2a57610d2a612d0e565b9050602002810190610d3c9190612d22565b604051610d4a929190613062565b60405180910390a25b50600101610c64565b505f610d6b878b848c8c61062a565b885160ff81165f90815260106020526040902054919250906001600160a01b031680610de55760405162461bcd60e51b815260206004820152602360248201527f616d6f756e74206f66206e6f746520686173686573206e6f7420737570706f726044820152621d195960ea1b6064820152608401610ad1565b604051633a94343960e21b81526001600160a01b0382169063ea50d0e490610e15908b908b908890600401613075565b6020604051808303815f875af1158015610e31573d5f5f3e3d5ffd5b505050506040513d601f19601f82011682018060405250810190610e5591906130a4565b610e725760405163439cc0cd60e01b815260040160405180910390fd5b505050505050505050505050565b5f3361051e818585611206565b5f610e978261083a565b9050610eb960208301358888888888610eb360a08a018a612d9b565b89610c16565b610ed4610ec96020840184612599565b8360200135896114ad565b610edd8261158a565b50505050505050565b60118181548110610ef5575f80fd5b905f5260205f209060209182820401919006915054906101000a900460ff1681565b6001600160a01b039182165f90815260016020908152604080832093909416825291909152205490565b604051637a3e5e1d60e11b8152600c60048201525f9073__$81047e2420497af1f397e161c4153f8e32$__9063f47cbc3a90602401602060405180830381865af4158015610f91573d5f5f3e3d5ffd5b505050506040513d601f19601f82011682018060405250810190610fb591906130bf565b905090565b5f5f610fca838560200135610a31565b915091505f610fd9858561092a565b9050610ff560208601358b8b8b8b8b610eb360a08d018d612d9b565b5f6001611009610100870160e08801612599565b6001600160a01b03160361101e575033611032565b61102f610100860160e08701612599565b90505b604080516003808252608082019092525f91602082016060803683370190505090506110616020880188612599565b815f8151811061107357611073612d0e565b6001600160a01b039092166020928302919091019091015261109b60e0870160c08801612599565b816001815181106110ae576110ae612d0e565b60200260200101906001600160a01b031690816001600160a01b03168152505081816002815181106110e2576110e2612d0e565b6001600160a01b0392909216602092830291909101820152604080516003808252608082019092525f9290919082016060803683370190505090508660400135815f8151811061113457611134612d0e565b602002602001018181525050848160018151811061115457611154612d0e565b602002602001018181525050858160028151811061117457611174612d0e565b60200260200101818152505061118b82828f61169e565b6111948861158a565b50505050505050505050505050565b6111b0838383600161183b565b505050565b5f6111c08484610f17565b90505f1981101561120057818110156111f257828183604051637dc7a0d960e11b8152600401610ad1939291906130d6565b61120084848484035f61183b565b50505050565b6001600160a01b03831661122f575f604051634b637e8f60e11b8152600401610ad19190612b25565b6001600160a01b038216611258575f60405163ec442f0560e01b8152600401610ad19190612b25565b6111b08383836118ff565b6001600160a01b03821661128c575f60405163ec442f0560e01b8152600401610ad19190612b25565b6112975f83836118ff565b5050565b5f5f82516001600160401b038111156112b6576112b66124c6565b6040519080825280602002602001820160405280156112df578160200160208202803683370190505b5090505f5b8351811015611333578381815181106112ff576112ff612d0e565b60200260200101518051906020012082828151811061132057611320612d0e565b60209081029190910101526001016112e4565b508060405160200161134591906130f7565b60405160208183030381529060405280519060200120915050919050565b5f61052461136f611a58565b8360405161190160f01b8152600281019290925260228201526042902090565b5f7f23ebbcc1e130851ed075a3c8252e154cf333d2ba187b279850791bf66764188f825f015183602001518460400151856060015186608001518760a001518860c001518960e0015160405160200161143699989796959493929190988952602089019790975260408801959095526060870193909352608086019190915260a085015260c08401526001600160a01b0390811660e0840152166101008201526101200190565b604051602081830303815290604052805190602001209050919050565b6060610fb57f00000000000000000000000000000000000000000000000000000000000000006005611b81565b6060610fb57f00000000000000000000000000000000000000000000000000000000000000006006611b81565b5f6114b782611c2a565b90506001600160a01b0384166114de576002805484900390556114d981611cf5565b611556565b6001600160a01b0384165f90815260208190526040812054611501908590612cfb565b6001600160a01b0386165f90815260208190526040902081905590505f5160206131d75f395f51905f5281106115495760405162461bcd60e51b8152600401610ad19061312c565b611554858284611e5e565b505b6040518381526001600160a01b038516905f905f5160206131f75f395f51905f52906020015b60405180910390a350505050565b6115976040820182612d22565b15159050806115a957505f8160800135115b156105f6575f6115bc6020830183612599565b6001600160a01b031660808301356115d76040850185612d22565b6040516115e5929190612d64565b5f6040518083038185875af1925050503d805f811461161f576040519150601f19603f3d011682016040523d82523d5f602084013e611624565b606091505b5090915061163a90506080830160608401612d80565b806116425750805b6112975760405162461bcd60e51b815260206004820152602760248201527f63616c6c206661696c656420616e6420776173206e6f7420616c6c6f776564206044820152661d1bc819985a5b60ca1b6064820152608401610ad1565b5f6116a882611c2a565b90505f83516001600160401b038111156116c4576116c46124c6565b6040519080825280602002602001820160405280156116ed578160200160208202803683370190505b5090505f5b8551811015611828575f86828151811061170e5761170e612d0e565b602002602001015190505f86838151811061172b5761172b612d0e565b602002602001015190505f6001600160a01b0316826001600160a01b0316036117655760028054829003905561176085611cf5565b6117f1565b6001600160a01b0382165f90815260208190526040812054611788908390612cfb565b6001600160a01b0384165f90815260208190526040902081905590505f5160206131d75f395f51905f5281106117d05760405162461bcd60e51b8152600401610ad19061312c565b808585815181106117e3576117e3612d0e565b602002602001018181525050505b6040518181526001600160a01b038316905f905f5160206131f75f395f51905f529060200160405180910390a350506001016116f2565b50611834858284611fe1565b5050505050565b6001600160a01b038416611864575f60405163e602df0560e01b8152600401610ad19190612b25565b6001600160a01b03831661188d575f604051634a1406b160e11b8152600401610ad19190612b25565b6001600160a01b038085165f908152600160209081526040808320938716835292905220829055801561120057826001600160a01b0316846001600160a01b03167f8c5be1e5ebec7d5bd14f71427d1e84f3dd0314c0f7b2291e5b200ac8c7c3b9258460405161157c91815260200190565b6001600160a01b038316611929578060025f82825461191e9190612cfb565b909155506119869050565b6001600160a01b0383165f90815260208190526040902054818110156119685783818360405163391434e360e21b8152600401610ad1939291906130d6565b6001600160a01b0384165f9081526020819052604090209082900390555b6001600160a01b0382166119a257600280548290039055611a19565b6001600160a01b0382165f908152602081905260408120546119c5908390612cfb565b90505f5160206131d75f395f51905f5281106119f35760405162461bcd60e51b8152600401610ad19061312c565b6001600160a01b0383165f908152602081905260409020819055611a1783826121c8565b505b816001600160a01b0316836001600160a01b03165f5160206131f75f395f51905f5283604051611a4b91815260200190565b60405180910390a3505050565b5f306001600160a01b037f000000000000000000000000000000000000000000000000000000000000000016148015611ab057507f000000000000000000000000000000000000000000000000000000000000000046145b15611ada57507f000000000000000000000000000000000000000000000000000000000000000090565b610fb5604080517f8b73c3c69bb8fe3d512ecc4cf759cc79239f7b179b0ffacaa9a75d522b39400f60208201527f0000000000000000000000000000000000000000000000000000000000000000918101919091527f000000000000000000000000000000000000000000000000000000000000000060608201524660808201523060a08201525f9060c00160405160208183030381529060405280519060200120905090565b606060ff8314611b9b57611b9483612276565b9050610524565b818054611ba790612c0e565b80601f0160208091040260200160405190810160405280929190818152602001828054611bd390612c0e565b8015611c1e5780601f10611bf557610100808354040283529160200191611c1e565b820191905f5260205f20905b815481529060010190602001808311611c0157829003601f168201915b50505050509050610524565b60605f82516001600160401b03811115611c4657611c466124c6565b604051908082528060200260200182016040528015611c6f578160200160208202803683370190505b5090505f805b8451811015611cec57848181518110611c9057611c90612d0e565b6020026020010151838281518110611caa57611caa612d0e565b602002602001018181525050848181518110611cc857611cc8612d0e565b60200260200101515f14611ce457611ce1816001612cfb565b91505b600101611c75565b50815292915050565b604051630649a08560e01b815273__$81047e2420497af1f397e161c4153f8e32$__90630649a08590611d2f90600c908590600401613171565b602060405180830381865af4158015611d4a573d5f5f3e3d5ffd5b505050506040513d601f19601f82011682018060405250810190611d6e91906130bf565b505f5b8151811015611dc1575f5160206132175f395f51905f52828281518110611d9a57611d9a612d0e565b6020026020010151604051611db191815260200190565b60405180910390a1600101611d71565b50604051637a3e5e1d60e11b8152600c60048201526001906008905f9073__$81047e2420497af1f397e161c4153f8e32$__9063f47cbc3a906024015b602060405180830381865af4158015611e19573d5f5f3e3d5ffd5b505050506040513d601f19601f82011682018060405250810190611e3d91906130bf565b815260208101919091526040015f20805460ff191691151591909117905550565b6001600160a01b0383163203611e77576111b081611cf5565b5f611e8284846122b3565b60405163bc167a3160e01b8152600c60048201526024810182905290915073__$81047e2420497af1f397e161c4153f8e32$__9063bc167a3190604401602060405180830381865af4158015611eda573d5f5f3e3d5ffd5b505050506040513d601f19601f82011682018060405250810190611efe91906130a4565b15611f1157611f0c82611cf5565b611200565b5f82516001611f209190612cfb565b6001600160401b03811115611f3757611f376124c6565b604051908082528060200260200182016040528015611f60578160200160208202803683370190505b50905081815f81518110611f7657611f76612d0e565b60209081029190910101525f5b8351811015611fd757838181518110611f9e57611f9e612d0e565b602002602001015182826001611fb49190612cfb565b81518110611fc457611fc4612d0e565b6020908102919091010152600101611f83565b5061183481611cf5565b5f81518451611ff09190612cfb565b6001600160401b03811115612007576120076124c6565b604051908082528060200260200182016040528015612030578160200160208202803683370190505b5090505f805b85518110156121645785818151811061205157612051612d0e565b60200260200101516001600160a01b0316326001600160a01b03161461215c575f6120ae87838151811061208757612087612d0e565b60200260200101518784815181106120a1576120a1612d0e565b60200260200101516122b3565b60405163bc167a3160e01b8152600c60048201526024810182905290915073__$81047e2420497af1f397e161c4153f8e32$__9063bc167a3190604401602060405180830381865af4158015612106573d5f5f3e3d5ffd5b505050506040513d601f19601f8201168201806040525081019061212a91906130a4565b1561215a5780848461213b816131be565b95508151811061214d5761214d612d0e565b6020026020010181815250505b505b600101612036565b505f5b83518110156121bb5783818151811061218257612182612d0e565b6020026020010151838380612196906131be565b9450815181106121a8576121a8612d0e565b6020908102919091010152600101612167565b5080825261183482611cf5565b6001600160a01b03821632036121dc575050565b5f6121e783836122b3565b60405163bc167a3160e01b8152600c60048201526024810182905290915073__$81047e2420497af1f397e161c4153f8e32$__9063bc167a3190604401602060405180830381865af415801561223f573d5f5f3e3d5ffd5b505050506040513d601f19601f8201168201806040525081019061226391906130a4565b1561226d57505050565b6111b0816122ea565b60605f612282836123c4565b6040805160208082528183019092529192505f91906020820181803683375050509182525060208101929092525090565b5f6122bc6123eb565b6001600160a01b0384168152602081018390526b544f54414c5f4255524e45446040820152610a29816105f9565b604051632f85497160e01b8152600c60048201526024810182905273__$81047e2420497af1f397e161c4153f8e32$__90632f85497190604401602060405180830381865af415801561233f573d5f5f3e3d5ffd5b505050506040513d601f19601f8201168201806040525081019061236391906130bf565b506040518181525f5160206132175f395f51905f529060200160405180910390a1604051637a3e5e1d60e11b8152600c60048201526001906008905f9073__$81047e2420497af1f397e161c4153f8e32$__9063f47cbc3a90602401611dfe565b5f60ff8216601f81111561052457604051632cd44ac360e21b815260040160405180910390fd5b60405180606001604052806003906020820280368337509192915050565b5f81518084528060208401602086015e5f602082860101526020601f19601f83011685010191505092915050565b602081525f6105e36020830184612409565b80356001600160a01b038116811461245f575f5ffd5b919050565b5f5f60408385031215612475575f5ffd5b61247e83612449565b946020939093013593505050565b5f5f5f6060848603121561249e575f5ffd5b6124a784612449565b92506124b560208501612449565b929592945050506040919091013590565b634e487b7160e01b5f52604160045260245ffd5b60405161010081016001600160401b03811182821017156124fd576124fd6124c6565b60405290565b604051601f8201601f191681016001600160401b038111828210171561252b5761252b6124c6565b604052919050565b5f60c08284031215612543575f5ffd5b5f83601f840112612552575f5ffd5b505f8061255f60c0612503565b905080915060c0840185811115612574575f5ffd5b845b8181101561258e578035845260209384019301612576565b509095945050505050565b5f602082840312156125a9575f5ffd5b6105e382612449565b5f606082840312156125c2575f5ffd5b5f83601f8401126125d1575f5ffd5b505f806125de6060612503565b90508091506060840185811115612574575f5ffd5b5f6001600160401b0382111561260b5761260b6124c6565b5060051b60200190565b5f82601f830112612624575f5ffd5b8135612637612632826125f3565b612503565b8082825260208201915060208360051b860101925085831115612658575f5ffd5b602085015b8381101561267557803583526020928301920161265d565b5095945050505050565b5f5f5f5f5f60a08688031215612693575f5ffd5b85359450602086013593506040860135925060608601356001600160401b038111156126bd575f5ffd5b6126c988828901612615565b92505060808601356001600160401b038111156126e4575f5ffd5b6126f088828901612615565b9150509295509295909350565b5f8151808452602084019350602083015f5b8281101561272d57815186526020958601959091019060010161270f565b5093949350505050565b602081525f6105e360208301846126fd565b5f60c08284031215612759575f5ffd5b50919050565b5f6020828403121561276f575f5ffd5b81356001600160401b03811115612784575f5ffd5b610a2984828501612749565b5f6101008284031215612759575f5ffd5b5f5f61012083850312156127b3575f5ffd5b82356001600160401b038111156127c8575f5ffd5b6127d485828601612749565b9250506127e48460208501612790565b90509250929050565b5f5f61012083850312156127ff575f5ffd5b6128098484612790565b94610100939093013593505050565b60ff60f81b8816815260e060208201525f61283660e0830189612409565b82810360408401526128488189612409565b606084018890526001600160a01b038716608085015260a0840186905283810360c0850152845180825260208087019350909101905f5b8181101561289d57835183526020938401939092019160010161287f565b50909b9a5050505050505050505050565b5f5f83601f8401126128be575f5ffd5b5081356001600160401b038111156128d4575f5ffd5b602083019150836020828501011115610bbe575f5ffd5b5f5f83601f8401126128fb575f5ffd5b5081356001600160401b03811115612911575f5ffd5b6020830191508360208260051b8501011115610bbe575f5ffd5b5f5f5f5f5f5f5f5f5f60e08a8c031215612943575f5ffd5b8935985060208a01356001600160401b0381111561295f575f5ffd5b61296b8c828d01612615565b98505060408a01356001600160401b03811115612986575f5ffd5b6129928c828d01612615565b97505060608a0135955060808a01356001600160401b038111156129b4575f5ffd5b6129c08c828d016128ae565b90965094505060a08a01356001600160401b038111156129de575f5ffd5b6129ea8c828d016128eb565b9a9d999c50979a9699959894979660c00135949350505050565b5f5f5f5f5f5f60a08789031215612a19575f5ffd5b86356001600160401b03811115612a2e575f5ffd5b612a3a89828a01612615565b96505060208701356001600160401b03811115612a55575f5ffd5b612a6189828a01612615565b9550506040870135935060608701356001600160401b03811115612a83575f5ffd5b612a8f89828a016128ae565b90945092505060808701356001600160401b03811115612aad575f5ffd5b612ab989828a01612749565b9150509295509295509295565b5f60208284031215612ad6575f5ffd5b5035919050565b5f5f60408385031215612aee575f5ffd5b612af783612449565b91506127e460208401612449565b5f60208284031215612b15575f5ffd5b813560ff811681146105e3575f5ffd5b6001600160a01b0391909116815260200190565b5f5f5f5f5f5f5f6101a0888a031215612b50575f5ffd5b87356001600160401b03811115612b65575f5ffd5b612b718a828b01612615565b97505060208801356001600160401b03811115612b8c575f5ffd5b612b988a828b01612615565b9650506040880135945060608801356001600160401b03811115612bba575f5ffd5b612bc68a828b016128ae565b90955093505060808801356001600160401b03811115612be4575f5ffd5b612bf08a828b01612749565b925050612c008960a08a01612790565b905092959891949750929550565b600181811c90821680612c2257607f821691505b60208210810361275957634e487b7160e01b5f52602260045260245ffd5b60c0810181835f5b6006811015612c67578151835260209283019290910190600101612c48565b50505092915050565b5f82518060208501845e5f920191825250919050565b80516020808301519190811015612759575f1960209190910360031b1b16919050565b6060810181835f5b6003811015612c67578151835260209283019290910190600101612cb1565b634e487b7160e01b5f52601160045260245ffd5b808202811582820484141761052457610524612cd0565b8082018082111561052457610524612cd0565b634e487b7160e01b5f52603260045260245ffd5b5f5f8335601e19843603018112612d37575f5ffd5b8301803591506001600160401b03821115612d50575f5ffd5b602001915036819003821315610bbe575f5ffd5b818382375f9101908152919050565b80151581146105f6575f5ffd5b5f60208284031215612d90575f5ffd5b81356105e381612d73565b5f5f8335601e19843603018112612db0575f5ffd5b8301803591506001600160401b03821115612dc9575f5ffd5b6020019150600581901b3603821315610bbe575f5ffd5b5f612ded612632846125f3565b8381526020810190600585901b840136811115612e08575f5ffd5b845b8181101561258e5780356001600160401b03811115612e27575f5ffd5b860136601f820112612e37575f5ffd5b80356001600160401b03811115612e5057612e506124c6565b612e63601f8201601f1916602001612503565b818152366020838501011115612e77575f5ffd5b816020840160208301375f60208383010152808752505050602084019350602081019050612e0a565b5f610100828403128015612eb2575f5ffd5b50612ebb6124da565b823581526020808401359082015260408084013590820152606080840135908201526080808401359082015260a08084013590820152612efd60c08401612449565b60c0820152612f0e60e08401612449565b60e08201529392505050565b6001815b6001841115612f5557808504811115612f3957612f39612cd0565b6001841615612f4757908102905b60019390931c928002612f1e565b935093915050565b5f82612f6b57506001610524565b81612f7757505f610524565b8160018114612f8d5760028114612f9757612fb3565b6001915050610524565b60ff841115612fa857612fa8612cd0565b50506001821b610524565b5060208310610133831016604e8410600b8410161715612fd6575081810a610524565b612fe25f198484612f1a565b805f1904821115612ff557612ff5612cd0565b029392505050565b5f6105e38383612f5d565b5f8261302257634e487b7160e01b5f52601260045260245ffd5b500490565b8181038181111561052457610524612cd0565b81835281816020850137505f828201602090810191909152601f909101601f19169091010190565b602081525f610a2960208301848661303a565b604081525f61308860408301858761303a565b828103602084015261309a81856126fd565b9695505050505050565b5f602082840312156130b4575f5ffd5b81516105e381612d73565b5f602082840312156130cf575f5ffd5b5051919050565b6001600160a01b039390931683526020830191909152604082015260600190565b81515f90829060208501835b82811015613121578151845260209384019390910190600101613103565b509195945050505050565b60208082526025908201527f62616c616e63652063616e277420676f206f76657220746865204649454c4420604082015264131253525560da1b606082015260800190565b5f60408201848352604060208401528084518083526060850191506020860192505f5b818110156131b2578351835260209384019390920191600101613194565b50909695505050505050565b5f600182016131cf576131cf612cd0565b506001019056fe30644e72e131a029b85045b68181585d2833e84879b9709143e1f593f0000001ddf252ad1be2c89b69c2b068fc378daa952ba7f163c4a11628f55a4df523b3ef297d88d6449509e687c2769e1358fbeb521f447c0ec5786c512f8f9676b4d9b1a2646970667358221220e51c738b3c58732c4da189b569e27cd294f02b1f99debcdabaf200270180493464736f6c634300081c0033",
  "linkReferences": {
    "project/contracts/leanIMTPoseidon2.sol": {
      "leanIMTPoseidon2": [
        {
          "length": 20,
          "start": 6022
        },
        {
          "length": 20,
          "start": 9521
        },
        {
          "length": 20,
          "start": 9741
        },
        {
          "length": 20,
          "start": 9935
        },
        {
          "length": 20,
          "start": 10491
        },
        {
          "length": 20,
          "start": 10804
        },
        {
          "length": 20,
          "start": 11060
        },
        {
          "length": 20,
          "start": 11215
        }
      ]
    }
  },
  "deployedLinkReferences": {
    "project/contracts/leanIMTPoseidon2.sol": {
      "leanIMTPoseidon2": [
        {
          "length": 20,
          "start": 3929
        },
        {
          "length": 20,
          "start": 7428
        },
        {
          "length": 20,
          "start": 7648
        },
        {
          "length": 20,
          "start": 7842
        },
        {
          "length": 20,
          "start": 8398
        },
        {
          "length": 20,
          "start": 8711
        },
        {
          "length": 20,
          "start": 8967
        },
        {
          "length": 20,
          "start": 9122
        }
      ]
    }
  },
  "immutableReferences": {
    "3020": [
      {
        "length": 32,
        "start": 6840
      }
    ],
    "3022": [
      {
        "length": 32,
        "start": 6798
      }
    ],
    "3024": [
      {
        "length": 32,
        "start": 6756
      }
    ],
    "3026": [
      {
        "length": 32,
        "start": 6921
      }
    ],
    "3028": [
      {
        "length": 32,
        "start": 6961
      }
    ],
    "3031": [
      {
        "length": 32,
        "start": 5210
      }
    ],
    "3034": [
      {
        "length": 32,
        "start": 5255
      }
    ]
  },
  "inputSourceName": "project/contracts/WormholeToken.sol",
  "buildInfoId": "solc-0_8_28-f2b1b41b98a85246d3ae3529d2a3f1fbee1414ed"
}