{
  "_format": "hh3-artifact-1",
  "contractName": "WormholeToken",
  "sourceName": "contracts/WormholeToken.sol",
  "abi": [
    {
      "inputs": [
        {
          "internalType": "bytes32",
          "name": "_powDifficulty",
          "type": "bytes32"
        },
        {
          "internalType": "uint256",
          "name": "_reMintLimit",
          "type": "uint256"
        },
        {
          "internalType": "uint16",
          "name": "_maxTreeDepth",
          "type": "uint16"
        },
        {
          "internalType": "bool",
          "name": "_isCrossChain",
          "type": "bool"
        },
        {
          "internalType": "string",
          "name": "_tokenName",
          "type": "string"
        },
        {
          "internalType": "string",
          "name": "_tokenSymbol",
          "type": "string"
        },
        {
          "internalType": "string",
          "name": "_712Version",
          "type": "string"
        },
        {
          "components": [
            {
              "internalType": "address",
              "name": "contractAddress",
              "type": "address"
            },
            {
              "internalType": "uint8",
              "name": "size",
              "type": "uint8"
            }
          ],
          "internalType": "struct Verifier[]",
          "name": "_verifiers",
          "type": "tuple[]"
        },
        {
          "internalType": "uint256[]",
          "name": "_acceptedChainIds",
          "type": "uint256[]"
        }
      ],
      "stateMutability": "nonpayable",
      "type": "constructor"
    },
    {
      "inputs": [
        {
          "internalType": "address",
          "name": "spender",
          "type": "address"
        },
        {
          "internalType": "uint256",
          "name": "allowance",
          "type": "uint256"
        },
        {
          "internalType": "uint256",
          "name": "needed",
          "type": "uint256"
        }
      ],
      "name": "ERC20InsufficientAllowance",
      "type": "error"
    },
    {
      "inputs": [
        {
          "internalType": "address",
          "name": "sender",
          "type": "address"
        },
        {
          "internalType": "uint256",
          "name": "balance",
          "type": "uint256"
        },
        {
          "internalType": "uint256",
          "name": "needed",
          "type": "uint256"
        }
      ],
      "name": "ERC20InsufficientBalance",
      "type": "error"
    },
    {
      "inputs": [
        {
          "internalType": "address",
          "name": "approver",
          "type": "address"
        }
      ],
      "name": "ERC20InvalidApprover",
      "type": "error"
    },
    {
      "inputs": [
        {
          "internalType": "address",
          "name": "receiver",
          "type": "address"
        }
      ],
      "name": "ERC20InvalidReceiver",
      "type": "error"
    },
    {
      "inputs": [
        {
          "internalType": "address",
          "name": "sender",
          "type": "address"
        }
      ],
      "name": "ERC20InvalidSender",
      "type": "error"
    },
    {
      "inputs": [
        {
          "internalType": "address",
          "name": "spender",
          "type": "address"
        }
      ],
      "name": "ERC20InvalidSpender",
      "type": "error"
    },
    {
      "inputs": [],
      "name": "InvalidShortString",
      "type": "error"
    },
    {
      "inputs": [
        {
          "internalType": "string",
          "name": "str",
          "type": "string"
        }
      ],
      "name": "StringTooLong",
      "type": "error"
    },
    {
      "inputs": [],
      "name": "VerificationFailed",
      "type": "error"
    },
    {
      "anonymous": false,
      "inputs": [
        {
          "indexed": true,
          "internalType": "address",
          "name": "owner",
          "type": "address"
        },
        {
          "indexed": true,
          "internalType": "address",
          "name": "spender",
          "type": "address"
        },
        {
          "indexed": false,
          "internalType": "uint256",
          "name": "value",
          "type": "uint256"
        }
      ],
      "name": "Approval",
      "type": "event"
    },
    {
      "anonymous": false,
      "inputs": [],
      "name": "EIP712DomainChanged",
      "type": "event"
    },
    {
      "anonymous": false,
      "inputs": [
        {
          "indexed": false,
          "internalType": "uint256",
          "name": "leaf",
          "type": "uint256"
        }
      ],
      "name": "NewLeaf",
      "type": "event"
    },
    {
      "anonymous": false,
      "inputs": [
        {
          "indexed": true,
          "internalType": "uint256",
          "name": "nullifier",
          "type": "uint256"
        },
        {
          "indexed": false,
          "internalType": "bytes",
          "name": "encryptedTotalMinted",
          "type": "bytes"
        }
      ],
      "name": "Nullified",
      "type": "event"
    },
    {
      "anonymous": false,
      "inputs": [
        {
          "indexed": true,
          "internalType": "address",
          "name": "from",
          "type": "address"
        },
        {
          "indexed": true,
          "internalType": "address",
          "name": "to",
          "type": "address"
        },
        {
          "indexed": false,
          "internalType": "uint256",
          "name": "value",
          "type": "uint256"
        }
      ],
      "name": "Transfer",
      "type": "event"
    },
    {
      "inputs": [
        {
          "internalType": "uint256",
          "name": "",
          "type": "uint256"
        }
      ],
      "name": "ACCEPTED_CHAIN_IDS",
      "outputs": [
        {
          "internalType": "uint256",
          "name": "",
          "type": "uint256"
        }
      ],
      "stateMutability": "view",
      "type": "function"
    },
    {
      "inputs": [],
      "name": "AMOUNT_OF_CHAIN_IDS",
      "outputs": [
        {
          "internalType": "uint8",
          "name": "",
          "type": "uint8"
        }
      ],
      "stateMutability": "view",
      "type": "function"
    },
    {
      "inputs": [],
      "name": "AMOUNT_OF_VERIFIERS",
      "outputs": [
        {
          "internalType": "uint8",
          "name": "",
          "type": "uint8"
        }
      ],
      "stateMutability": "view",
      "type": "function"
    },
    {
      "inputs": [],
      "name": "DEPLOYMENT_BLOCK",
      "outputs": [
        {
          "internalType": "uint256",
          "name": "",
          "type": "uint256"
        }
      ],
      "stateMutability": "view",
      "type": "function"
    },
    {
      "inputs": [],
      "name": "IS_CROSS_CHAIN",
      "outputs": [
        {
          "internalType": "bool",
          "name": "",
          "type": "bool"
        }
      ],
      "stateMutability": "view",
      "type": "function"
    },
    {
      "inputs": [],
      "name": "MAX_TREE_DEPTH",
      "outputs": [
        {
          "internalType": "uint16",
          "name": "",
          "type": "uint16"
        }
      ],
      "stateMutability": "view",
      "type": "function"
    },
    {
      "inputs": [],
      "name": "POW_DIFFICULTY",
      "outputs": [
        {
          "internalType": "bytes32",
          "name": "",
          "type": "bytes32"
        }
      ],
      "stateMutability": "view",
      "type": "function"
    },
    {
      "inputs": [],
      "name": "RE_MINT_LIMIT",
      "outputs": [
        {
          "internalType": "bytes32",
          "name": "",
          "type": "bytes32"
        }
      ],
      "stateMutability": "view",
      "type": "function"
    },
    {
      "inputs": [],
      "name": "TOTAL_BURNED_DOMAIN",
      "outputs": [
        {
          "internalType": "uint256",
          "name": "",
          "type": "uint256"
        }
      ],
      "stateMutability": "view",
      "type": "function"
    },
    {
      "inputs": [
        {
          "internalType": "uint8",
          "name": "",
          "type": "uint8"
        }
      ],
      "name": "VERIFIERS_PER_SIZE",
      "outputs": [
        {
          "internalType": "address",
          "name": "",
          "type": "address"
        }
      ],
      "stateMutability": "view",
      "type": "function"
    },
    {
      "inputs": [
        {
          "internalType": "uint256",
          "name": "",
          "type": "uint256"
        }
      ],
      "name": "VERIFIER_SIZES",
      "outputs": [
        {
          "internalType": "uint8",
          "name": "",
          "type": "uint8"
        }
      ],
      "stateMutability": "view",
      "type": "function"
    },
    {
      "inputs": [
        {
          "components": [
            {
              "internalType": "uint256",
              "name": "tokensPerEthPrice",
              "type": "uint256"
            },
            {
              "internalType": "uint256",
              "name": "maxFee",
              "type": "uint256"
            },
            {
              "internalType": "uint256",
              "name": "amountForRecipient",
              "type": "uint256"
            },
            {
              "internalType": "uint256",
              "name": "relayerBonus",
              "type": "uint256"
            },
            {
              "internalType": "uint256",
              "name": "estimatedGasCost",
              "type": "uint256"
            },
            {
              "internalType": "uint256",
              "name": "estimatedPriorityFee",
              "type": "uint256"
            },
            {
              "internalType": "address",
              "name": "refundAddress",
              "type": "address"
            },
            {
              "internalType": "address",
              "name": "relayerAddress",
              "type": "address"
            }
          ],
          "internalType": "struct FeeData",
          "name": "_feeData",
          "type": "tuple"
        },
        {
          "internalType": "uint256",
          "name": "_amountToReMint",
          "type": "uint256"
        }
      ],
      "name": "_calculateFee",
      "outputs": [
        {
          "internalType": "uint256",
          "name": "",
          "type": "uint256"
        },
        {
          "internalType": "uint256",
          "name": "",
          "type": "uint256"
        }
      ],
      "stateMutability": "view",
      "type": "function"
    },
    {
      "inputs": [
        {
          "internalType": "uint256",
          "name": "_root",
          "type": "uint256"
        },
        {
          "internalType": "uint256",
          "name": "_chainId",
          "type": "uint256"
        },
        {
          "internalType": "uint256",
          "name": "_amount",
          "type": "uint256"
        },
        {
          "internalType": "bytes32",
          "name": "_signatureHash",
          "type": "bytes32"
        },
        {
          "internalType": "uint256[]",
          "name": "_totalMintedLeafs",
          "type": "uint256[]"
        },
        {
          "internalType": "uint256[]",
          "name": "_nullifiers",
          "type": "uint256[]"
        }
      ],
      "name": "_formatPublicInputs",
      "outputs": [
        {
          "internalType": "bytes32[]",
          "name": "",
          "type": "bytes32[]"
        }
      ],
      "stateMutability": "view",
      "type": "function"
    },
    {
      "inputs": [
        {
          "components": [
            {
              "internalType": "address",
              "name": "recipient",
              "type": "address"
            },
            {
              "internalType": "uint256",
              "name": "amountToReMint",
              "type": "uint256"
            },
            {
              "internalType": "bytes",
              "name": "callData",
              "type": "bytes"
            },
            {
              "internalType": "bool",
              "name": "callCanFail",
              "type": "bool"
            },
            {
              "internalType": "uint256",
              "name": "callValue",
              "type": "uint256"
            },
            {
              "internalType": "bytes[]",
              "name": "encryptedTotalMinted",
              "type": "bytes[]"
            }
          ],
          "internalType": "struct SignatureInputs",
          "name": "_signatureInputs",
          "type": "tuple"
        }
      ],
      "name": "_hashSignatureInputs",
      "outputs": [
        {
          "internalType": "bytes32",
          "name": "",
          "type": "bytes32"
        }
      ],
      "stateMutability": "view",
      "type": "function"
    },
    {
      "inputs": [
        {
          "components": [
            {
              "internalType": "address",
              "name": "recipient",
              "type": "address"
            },
            {
              "internalType": "uint256",
              "name": "amountToReMint",
              "type": "uint256"
            },
            {
              "internalType": "bytes",
              "name": "callData",
              "type": "bytes"
            },
            {
              "internalType": "bool",
              "name": "callCanFail",
              "type": "bool"
            },
            {
              "internalType": "uint256",
              "name": "callValue",
              "type": "uint256"
            },
            {
              "internalType": "bytes[]",
              "name": "encryptedTotalMinted",
              "type": "bytes[]"
            }
          ],
          "internalType": "struct SignatureInputs",
          "name": "_signatureInputs",
          "type": "tuple"
        },
        {
          "components": [
            {
              "internalType": "uint256",
              "name": "tokensPerEthPrice",
              "type": "uint256"
            },
            {
              "internalType": "uint256",
              "name": "maxFee",
              "type": "uint256"
            },
            {
              "internalType": "uint256",
              "name": "amountForRecipient",
              "type": "uint256"
            },
            {
              "internalType": "uint256",
              "name": "relayerBonus",
              "type": "uint256"
            },
            {
              "internalType": "uint256",
              "name": "estimatedGasCost",
              "type": "uint256"
            },
            {
              "internalType": "uint256",
              "name": "estimatedPriorityFee",
              "type": "uint256"
            },
            {
              "internalType": "address",
              "name": "refundAddress",
              "type": "address"
            },
            {
              "internalType": "address",
              "name": "relayerAddress",
              "type": "address"
            }
          ],
          "internalType": "struct FeeData",
          "name": "_feeData",
          "type": "tuple"
        }
      ],
      "name": "_hashSignatureInputsRelayer",
      "outputs": [
        {
          "internalType": "bytes32",
          "name": "",
          "type": "bytes32"
        }
      ],
      "stateMutability": "view",
      "type": "function"
    },
    {
      "inputs": [
        {
          "internalType": "uint256",
          "name": "_root",
          "type": "uint256"
        },
        {
          "internalType": "uint256",
          "name": "_chainId",
          "type": "uint256"
        },
        {
          "internalType": "uint256",
          "name": "_amount",
          "type": "uint256"
        },
        {
          "internalType": "bytes32",
          "name": "signatureHash",
          "type": "bytes32"
        },
        {
          "internalType": "uint256[]",
          "name": "_totalMintedLeafs",
          "type": "uint256[]"
        },
        {
          "internalType": "uint256[]",
          "name": "_nullifiers",
          "type": "uint256[]"
        },
        {
          "internalType": "bytes[]",
          "name": "_encryptedTotalMinted",
          "type": "bytes[]"
        },
        {
          "internalType": "bytes",
          "name": "_snarkProof",
          "type": "bytes"
        }
      ],
      "name": "_verifyReMint",
      "outputs": [],
      "stateMutability": "nonpayable",
      "type": "function"
    },
    {
      "inputs": [
        {
          "internalType": "address",
          "name": "owner",
          "type": "address"
        },
        {
          "internalType": "address",
          "name": "spender",
          "type": "address"
        }
      ],
      "name": "allowance",
      "outputs": [
        {
          "internalType": "uint256",
          "name": "",
          "type": "uint256"
        }
      ],
      "stateMutability": "view",
      "type": "function"
    },
    {
      "inputs": [],
      "name": "amountFreeTokens",
      "outputs": [
        {
          "internalType": "uint256",
          "name": "",
          "type": "uint256"
        }
      ],
      "stateMutability": "view",
      "type": "function"
    },
    {
      "inputs": [
        {
          "internalType": "address",
          "name": "spender",
          "type": "address"
        },
        {
          "internalType": "uint256",
          "name": "value",
          "type": "uint256"
        }
      ],
      "name": "approve",
      "outputs": [
        {
          "internalType": "bool",
          "name": "",
          "type": "bool"
        }
      ],
      "stateMutability": "nonpayable",
      "type": "function"
    },
    {
      "inputs": [
        {
          "internalType": "address",
          "name": "account",
          "type": "address"
        }
      ],
      "name": "balanceOf",
      "outputs": [
        {
          "internalType": "uint256",
          "name": "",
          "type": "uint256"
        }
      ],
      "stateMutability": "view",
      "type": "function"
    },
    {
      "inputs": [],
      "name": "decimals",
      "outputs": [
        {
          "internalType": "uint8",
          "name": "",
          "type": "uint8"
        }
      ],
      "stateMutability": "view",
      "type": "function"
    },
    {
      "inputs": [],
      "name": "decimalsTokenPrice",
      "outputs": [
        {
          "internalType": "uint256",
          "name": "",
          "type": "uint256"
        }
      ],
      "stateMutability": "view",
      "type": "function"
    },
    {
      "inputs": [],
      "name": "eip712Domain",
      "outputs": [
        {
          "internalType": "bytes1",
          "name": "fields",
          "type": "bytes1"
        },
        {
          "internalType": "string",
          "name": "name",
          "type": "string"
        },
        {
          "internalType": "string",
          "name": "version",
          "type": "string"
        },
        {
          "internalType": "uint256",
          "name": "chainId",
          "type": "uint256"
        },
        {
          "internalType": "address",
          "name": "verifyingContract",
          "type": "address"
        },
        {
          "internalType": "bytes32",
          "name": "salt",
          "type": "bytes32"
        },
        {
          "internalType": "uint256[]",
          "name": "extensions",
          "type": "uint256[]"
        }
      ],
      "stateMutability": "view",
      "type": "function"
    },
    {
      "inputs": [],
      "name": "getAcceptedChainIds",
      "outputs": [
        {
          "internalType": "uint256[]",
          "name": "",
          "type": "uint256[]"
        }
      ],
      "stateMutability": "view",
      "type": "function"
    },
    {
      "inputs": [
        {
          "internalType": "address",
          "name": "_to",
          "type": "address"
        }
      ],
      "name": "getFreeTokens",
      "outputs": [],
      "stateMutability": "nonpayable",
      "type": "function"
    },
    {
      "inputs": [
        {
          "internalType": "uint256[3]",
          "name": "input",
          "type": "uint256[3]"
        }
      ],
      "name": "hashPoseidon2T3",
      "outputs": [
        {
          "internalType": "uint256",
          "name": "",
          "type": "uint256"
        }
      ],
      "stateMutability": "view",
      "type": "function"
    },
    {
      "inputs": [
        {
          "internalType": "uint256[6]",
          "name": "input",
          "type": "uint256[6]"
        }
      ],
      "name": "hashPoseidon2T6",
      "outputs": [
        {
          "internalType": "uint256",
          "name": "",
          "type": "uint256"
        }
      ],
      "stateMutability": "view",
      "type": "function"
    },
    {
      "inputs": [],
      "name": "name",
      "outputs": [
        {
          "internalType": "string",
          "name": "",
          "type": "string"
        }
      ],
      "stateMutability": "view",
      "type": "function"
    },
    {
      "inputs": [
        {
          "internalType": "uint256",
          "name": "",
          "type": "uint256"
        }
      ],
      "name": "nullifiers",
      "outputs": [
        {
          "internalType": "uint256",
          "name": "",
          "type": "uint256"
        }
      ],
      "stateMutability": "view",
      "type": "function"
    },
    {
      "inputs": [
        {
          "internalType": "uint256",
          "name": "_root",
          "type": "uint256"
        },
        {
          "internalType": "uint256",
          "name": "_chainId",
          "type": "uint256"
        },
        {
          "internalType": "uint256[]",
          "name": "_totalMintedLeafs",
          "type": "uint256[]"
        },
        {
          "internalType": "uint256[]",
          "name": "_nullifiers",
          "type": "uint256[]"
        },
        {
          "internalType": "bytes",
          "name": "_snarkProof",
          "type": "bytes"
        },
        {
          "components": [
            {
              "internalType": "address",
              "name": "recipient",
              "type": "address"
            },
            {
              "internalType": "uint256",
              "name": "amountToReMint",
              "type": "uint256"
            },
            {
              "internalType": "bytes",
              "name": "callData",
              "type": "bytes"
            },
            {
              "internalType": "bool",
              "name": "callCanFail",
              "type": "bool"
            },
            {
              "internalType": "uint256",
              "name": "callValue",
              "type": "uint256"
            },
            {
              "internalType": "bytes[]",
              "name": "encryptedTotalMinted",
              "type": "bytes[]"
            }
          ],
          "internalType": "struct SignatureInputs",
          "name": "_signatureInputs",
          "type": "tuple"
        }
      ],
      "name": "reMint",
      "outputs": [],
      "stateMutability": "nonpayable",
      "type": "function"
    },
    {
      "inputs": [
        {
          "internalType": "uint256",
          "name": "_root",
          "type": "uint256"
        },
        {
          "internalType": "uint256",
          "name": "_chainId",
          "type": "uint256"
        },
        {
          "internalType": "uint256[]",
          "name": "_totalMintedLeafs",
          "type": "uint256[]"
        },
        {
          "internalType": "uint256[]",
          "name": "_nullifiers",
          "type": "uint256[]"
        },
        {
          "internalType": "bytes",
          "name": "_snarkProof",
          "type": "bytes"
        },
        {
          "components": [
            {
              "internalType": "address",
              "name": "recipient",
              "type": "address"
            },
            {
              "internalType": "uint256",
              "name": "amountToReMint",
              "type": "uint256"
            },
            {
              "internalType": "bytes",
              "name": "callData",
              "type": "bytes"
            },
            {
              "internalType": "bool",
              "name": "callCanFail",
              "type": "bool"
            },
            {
              "internalType": "uint256",
              "name": "callValue",
              "type": "uint256"
            },
            {
              "internalType": "bytes[]",
              "name": "encryptedTotalMinted",
              "type": "bytes[]"
            }
          ],
          "internalType": "struct SignatureInputs",
          "name": "_signatureInputs",
          "type": "tuple"
        },
        {
          "components": [
            {
              "internalType": "uint256",
              "name": "tokensPerEthPrice",
              "type": "uint256"
            },
            {
              "internalType": "uint256",
              "name": "maxFee",
              "type": "uint256"
            },
            {
              "internalType": "uint256",
              "name": "amountForRecipient",
              "type": "uint256"
            },
            {
              "internalType": "uint256",
              "name": "relayerBonus",
              "type": "uint256"
            },
            {
              "internalType": "uint256",
              "name": "estimatedGasCost",
              "type": "uint256"
            },
            {
              "internalType": "uint256",
              "name": "estimatedPriorityFee",
              "type": "uint256"
            },
            {
              "internalType": "address",
              "name": "refundAddress",
              "type": "address"
            },
            {
              "internalType": "address",
              "name": "relayerAddress",
              "type": "address"
            }
          ],
          "internalType": "struct FeeData",
          "name": "_feeData",
          "type": "tuple"
        }
      ],
      "name": "reMintRelayer",
      "outputs": [],
      "stateMutability": "nonpayable",
      "type": "function"
    },
    {
      "inputs": [],
      "name": "root",
      "outputs": [
        {
          "internalType": "uint256",
          "name": "",
          "type": "uint256"
        }
      ],
      "stateMutability": "view",
      "type": "function"
    },
    {
      "inputs": [
        {
          "internalType": "uint256",
          "name": "",
          "type": "uint256"
        }
      ],
      "name": "roots",
      "outputs": [
        {
          "internalType": "bool",
          "name": "",
          "type": "bool"
        }
      ],
      "stateMutability": "view",
      "type": "function"
    },
    {
      "inputs": [],
      "name": "symbol",
      "outputs": [
        {
          "internalType": "string",
          "name": "",
          "type": "string"
        }
      ],
      "stateMutability": "view",
      "type": "function"
    },
    {
      "inputs": [],
      "name": "totalSupply",
      "outputs": [
        {
          "internalType": "uint256",
          "name": "",
          "type": "uint256"
        }
      ],
      "stateMutability": "view",
      "type": "function"
    },
    {
      "inputs": [
        {
          "internalType": "address",
          "name": "to",
          "type": "address"
        },
        {
          "internalType": "uint256",
          "name": "value",
          "type": "uint256"
        }
      ],
      "name": "transfer",
      "outputs": [
        {
          "internalType": "bool",
          "name": "",
          "type": "bool"
        }
      ],
      "stateMutability": "nonpayable",
      "type": "function"
    },
    {
      "inputs": [
        {
          "internalType": "address",
          "name": "from",
          "type": "address"
        },
        {
          "internalType": "address",
          "name": "to",
          "type": "address"
        },
        {
          "internalType": "uint256",
          "name": "value",
          "type": "uint256"
        }
      ],
      "name": "transferFrom",
      "outputs": [
        {
          "internalType": "bool",
          "name": "",
          "type": "bool"
        }
      ],
      "stateMutability": "nonpayable",
      "type": "function"
    },
    {
      "inputs": [],
      "name": "tree",
      "outputs": [
        {
          "internalType": "uint256",
          "name": "size",
          "type": "uint256"
        },
        {
          "internalType": "uint256",
          "name": "depth",
          "type": "uint256"
        }
      ],
      "stateMutability": "view",
      "type": "function"
    },
    {
      "inputs": [],
      "name": "treeSize",
      "outputs": [
        {
          "internalType": "uint256",
          "name": "",
          "type": "uint256"
        }
      ],
      "stateMutability": "view",
      "type": "function"
    }
  ],
  "bytecode": "0x6101606040526100116012600a61047d565b61001e90620f4240610492565b600a556008600b55348015610031575f5ffd5b50604051613eae380380613eae833981016040819052610050916106d7565b8483818660036100608382610876565b50600461006d8282610876565b5061007d91508390506005610317565b6101205261008c816006610317565b61014052815160208084019190912060e052815190820120610100524660a05261011860e05161010051604080517f8b73c3c69bb8fe3d512ecc4cf759cc79239f7b179b0ffacaa9a75d522b39400f60208201529081019290925260608201524660808201523060a08201525f9060c00160405160208183030381529060405280519060200120905090565b60805250503060c05281516012805460ff191660ff9092169190911790555f805b8351811015610276575f84828151811061015557610155610930565b60200260200101519050806020015160ff168360ff16106101e35760405162461bcd60e51b815260206004820152603b60248201527f5f766572696669657273206e6565647320746f20626520736f7274656420667260448201527f6f6d20736d616c6c65737420746f206c6172676573742073697a65000000000060648201526084015b60405180910390fd5b60208082018051925160ff8085165f908152601085526040812080546001600160a01b039094166001600160a01b03199094169390931790925591516011805460018181018355919093529382047f31ecc21a745e3968a04e9570e4425bc18fa8019c68028196b546d1669c200c68018054918416601f9093166101000a92830292909302191617905590925001610139565b5081516014805460ff191660ff9092169190911790555f5b82518110156102d7578281815181106102a9576102a9610930565b6020026020010151601382815481106102c4576102c4610930565b5f9182526020909120015560010161028e565b50505060159790975550505060169290925560178054921515620100000262ffffff1990931661ffff90921691909117919091179055504360185561099c565b5f6020835110156103325761032b83610349565b9050610343565b8161033d8482610876565b5060ff90505b92915050565b5f5f829050601f81511115610373578260405163305a27a960e01b81526004016101da9190610944565b805161037e82610979565b179392505050565b634e487b7160e01b5f52601160045260245ffd5b6001815b60018411156103d5578085048111156103b9576103b9610386565b60018416156103c757908102905b60019390931c92800261039e565b935093915050565b5f826103eb57506001610343565b816103f757505f610343565b816001811461040d576002811461041757610433565b6001915050610343565b60ff84111561042857610428610386565b50506001821b610343565b5060208310610133831016604e8410600b8410161715610456575081810a610343565b6104625f19848461039a565b805f190482111561047557610475610386565b029392505050565b5f61048b60ff8416836103dd565b9392505050565b808202811582820484141761034357610343610386565b805161ffff811681146104ba575f5ffd5b919050565b805180151581146104ba575f5ffd5b634e487b7160e01b5f52604160045260245ffd5b604080519081016001600160401b0381118282101715610504576105046104ce565b60405290565b604051601f8201601f191681016001600160401b0381118282101715610532576105326104ce565b604052919050565b5f82601f830112610549575f5ffd5b81516001600160401b03811115610562576105626104ce565b610575601f8201601f191660200161050a565b818152846020838601011115610589575f5ffd5b8160208501602083015e5f918101602001919091529392505050565b5f6001600160401b038211156105bd576105bd6104ce565b5060051b60200190565b5f82601f8301126105d6575f5ffd5b81516105e96105e4826105a5565b61050a565b8082825260208201915060208360061b86010192508583111561060a575f5ffd5b602085015b838110156106725760408188031215610626575f5ffd5b61062e6104e2565b81516001600160a01b0381168114610644575f5ffd5b8152602082015160ff81168114610659575f5ffd5b602082810191909152908452929092019160400161060f565b5095945050505050565b5f82601f83011261068b575f5ffd5b81516106996105e4826105a5565b8082825260208201915060208360051b8601019250858311156106ba575f5ffd5b602085015b838110156106725780518352602092830192016106bf565b5f5f5f5f5f5f5f5f5f6101208a8c0312156106f0575f5ffd5b895160208b0151909950975061070860408b016104a9565b965061071660608b016104bf565b60808b01519096506001600160401b03811115610731575f5ffd5b61073d8c828d0161053a565b60a08c015190965090506001600160401b0381111561075a575f5ffd5b6107668c828d0161053a565b60c08c015190955090506001600160401b03811115610783575f5ffd5b61078f8c828d0161053a565b60e08c015190945090506001600160401b038111156107ac575f5ffd5b6107b88c828d016105c7565b6101008c015190935090506001600160401b038111156107d6575f5ffd5b6107e28c828d0161067c565b9150509295985092959850929598565b600181811c9082168061080657607f821691505b60208210810361082457634e487b7160e01b5f52602260045260245ffd5b50919050565b601f82111561087157805f5260205f20601f840160051c8101602085101561084f5750805b601f840160051c820191505b8181101561086e575f815560010161085b565b50505b505050565b81516001600160401b0381111561088f5761088f6104ce565b6108a38161089d84546107f2565b8461082a565b6020601f8211600181146108d5575f83156108be5750848201515b5f19600385901b1c1916600184901b17845561086e565b5f84815260208120601f198516915b8281101561090457878501518255602094850194600190920191016108e4565b508482101561092157868401515f19600387901b60f8161c191681555b50505050600190811b01905550565b634e487b7160e01b5f52603260045260245ffd5b602081525f82518060208401528060208501604085015e5f604082850101526040601f19601f83011684010191505092915050565b80516020808301519190811015610824575f1960209190910360031b1b16919050565b60805160a05160c05160e0516101005161012051610140516134c16109ed5f395f611a4e01525f611a2101525f61218501525f61215d01525f6120b801525f6120e201525f61210c01526134c15ff3fe608060405234801561000f575f5ffd5b50600436106101da575f3560e01c80637586ff77116101085780637586ff771461035e57806377d066f7146103715780637c32ba9d146103845780637c52f621146103ac57806384b0196e146103e15780638d1ddfb1146103fc57806395d89b4114610404578063a0ba18ac1461040c578063a9059cbb1461041f578063bf86232e14610432578063c2b40ae414610445578063c6570bfb14610467578063d21e82ab14610470578063d4d588781461048f578063dd62ed3e14610498578063e1c5d751146104ab578063e30d408c146104b8578063e38df5f0146104c5578063ebf0c717146104e6578063fd54b228146104ee575f5ffd5b80630290faea146101de57806306fdde03146101fa578063095ea7b31461020f5780631012c2121461023257806313fab1a91461024557806318160ddd1461025a5780631fe431dc1461026257806323b872dd1461028257806330d8c55d14610295578063313ce5671461029e5780633a53af40146102b35780633be01781146102c65780633d59e5e2146102d95780633edc0db5146102ec5780634a2ef36a146102f4578063518e922014610307578063666785751461031a5780636b2ee80b1461032357806370a0823114610336575b5f5ffd5b6101e760155481565b6040519081526020015b60405180910390f35b6102026104fc565b6040516101f19190612670565b61022261021d36600461269d565b61058c565b60405190151581526020016101f1565b6101e76b544f54414c5f4255524e454481565b610258610253366004612822565b6105a5565b005b6002546101e7565b610275610270366004612900565b610796565b6040516101f191906129c0565b6102226102903660046129d2565b6109d4565b6101e7600b5481565b60125b60405160ff90911681526020016101f1565b6101e76102c1366004612a0c565b6109f7565b6017546102229062010000900460ff1681565b6102586102e7366004612a72565b610a94565b610275610aa3565b6101e7610302366004612a8b565b610b7d565b6101e7610315366004612acc565b610bae565b6101e7600a5481565b6101e7610331366004612ae3565b610bcd565b6101e7610344366004612a72565b6001600160a01b03165f9081526020819052604090205490565b61025861036c366004612b14565b610cbd565b6101e761037f366004612be0565b610d18565b610397610392366004612c2c565b610e1f565b604080519283526020830191909152016101f1565b6103d46103ba366004612c57565b60106020525f90815260409020546001600160a01b031681565b6040516101f19190612c77565b6103e9610fb3565b6040516101f19796959493929190612c8b565b600c546101e7565b610202610ff5565b61025861041a366004612d3a565b611004565b61022261042d36600461269d565b6112fb565b6102a1610440366004612acc565b611308565b610222610453366004612acc565b60086020525f908152604090205460ff1681565b6101e760165481565b6101e761047e366004612acc565b60076020525f908152604090205481565b6101e760185481565b6101e76104a6366004612e22565b611339565b6012546102a19060ff1681565b6014546102a19060ff1681565b6017546104d39061ffff1681565b60405161ffff90911681526020016101f1565b6101e7611363565b600c54600d54610397919082565b60606003805461050b90612e4a565b80601f016020809104026020016040519081016040528092919081815260200182805461053790612e4a565b80156105825780601f1061055957610100808354040283529160200191610582565b820191905f5260205f20905b81548152906001019060200180831161056557829003601f168201915b5050505050905090565b5f336105998185856113dc565b60019150505b92915050565b5f5f6105b5838560200135610e1f565b915091505f6105c48585610d18565b90506105e78b8b6020880135848d8d6105e060a08d018d612e7c565b8f8f611004565b5f60016105fb610100870160e08801612a72565b6001600160a01b031603610610575033610624565b610621610100860160e08701612a72565b90505b604080516003808252608082019092525f91602082016060803683370190505090506106536020880188612a72565b815f8151811061066557610665612ec1565b6001600160a01b039092166020928302919091019091015261068d60e0870160c08801612a72565b816001815181106106a0576106a0612ec1565b60200260200101906001600160a01b031690816001600160a01b03168152505081816002815181106106d4576106d4612ec1565b6001600160a01b0392909216602092830291909101820152604080516003808252608082019092525f9290919082016060803683370190505090508660400135815f8151811061072657610726612ec1565b602002602001018181525050848160018151811061074657610746612ec1565b602002602001018181525050858160028151811061076657610766612ec1565b60200260200101818152505061077d82828e6113ee565b6107868861158b565b5050505050505050505050505050565b80516060906005905f6107aa826002612ee9565b6107b5846020612f00565b6107bf9190612f00565b6001600160401b038111156107d6576107d66126c5565b6040519080825280602002602001820160405280156107ff578160200160208202803683370190505b509050895f1b815f8151811061081757610817612ec1565b602002602001018181525050885f1b8160018151811061083957610839612ec1565b602002602001018181525050875f1b8160028151811061085b5761085b612ec1565b6020026020010181815250506015548160038151811061087d5761087d612ec1565b6020026020010181815250506016548160048151811061089f5761089f612ec1565b60209081029190910101525f5b60208110156108f6578781602081106108c7576108c7612ec1565b1a826108d38684612f00565b815181106108e3576108e3612ec1565b60209081029190910101526001016108ac565b505f610903846020612f00565b90505f5b87518110156109c45787818151811061092257610922612ec1565b60200260200101515f1b838383600261093b9190612ee9565b6109459190612f00565b8151811061095557610955612ec1565b60200260200101818152505086818151811061097357610973612ec1565b60200260200101515f1b838383600261098c9190612ee9565b6109969190612f00565b6109a1906001612f00565b815181106109b1576109b1612ec1565b6020908102919091010152600101610907565b50909a9950505050505050505050565b5f336109e18582856116a3565b6109ec8585856116f4565b506001949350505050565b5f5f73382abef9789c1b5fee54c72bd9aaf7983726841c6001600160a01b031683604051602001610a289190612f13565b60408051601f1981840301815290829052610a4291612f43565b5f60405180830381855afa9150503d805f8114610a7a576040519150601f19603f3d011682016040523d82523d5f602084013e610a7f565b606091505b5091505080610a8d90612f59565b9392505050565b610aa081600a54611751565b50565b6014546060905f90610ab99060ff166001612f7c565b60ff166001600160401b03811115610ad357610ad36126c5565b604051908082528060200260200182016040528015610afc578160200160208202803683370190505b5090505f5b60145460ff16811015610b4f5760138181548110610b2157610b21612ec1565b905f5260205f200154828281518110610b3c57610b3c612ec1565b6020908102919091010152600101610b01565b5060145481514691839160ff909116908110610b6d57610b6d612ec1565b6020908102919091010152919050565b5f5f73382abef9789c1b5fee54c72bd9aaf7983726841c6001600160a01b031683604051602001610a289190612f95565b60138181548110610bbd575f80fd5b5f91825260209091200154905081565b5f807ffc224f0d69baf4948a0b7ab26dc9ed36c96e034655f46eeabf2a78d7412f9387610bfd6020850185612a72565b6020850135610c0f6040870187612fbc565b604051610c1d929190612ffe565b604051908190039020610c36608088016060890161301a565b6080880135610c59610c4b60a08b018b612e7c565b610c5491613035565b611785565b6040805160208101989098526001600160a01b039096169587019590955260608601939093526080850191909152151560a084015260c083015260e082015261010001604051602081830303815290604052805190602001209050610a8d8161184d565b5f610cc782610bcd565b9050610cea88886020850135848a8a610ce360a08a018a612e7c565b8c8c611004565b610d05610cfa6020840184612a72565b836020013588611879565b610d0e8261158b565b5050505050505050565b5f807f07ae049f3f20ebe41828674330bedaea71a8a4b2cac5a9c2796ae088228f426e610d486020860186612a72565b6020860135610d5a6040880188612fbc565b604051610d68929190612ffe565b604051908190039020610d816080890160608a0161301a565b6080890135610d96610c4b60a08c018c612e7c565b610dad610da8368c90038c018c6130f5565b611956565b6040805160208101999099526001600160a01b039097169688019690965260608701949094526080860192909252151560a085015260c084015260e083015261010082015261012001604051602081830303815290604052805190602001209050610e178161184d565b949350505050565b5f8080610e3060a086013548612f00565b610e3e906080870135612ee9565b90505f8560600135600b54600a610e559190613252565b610e60883585612ee9565b610e6a919061325d565b610e749190612f00565b905085602001358110610ec85760405162461bcd60e51b81526020600482015260176024820152760e4cad8c2f2cae440cccaca40d2e640e8dede40d0d2ced604b1b60448201526064015b60405180910390fd5b808511610f265760405162461bcd60e51b815260206004820152602660248201527f666565206973206d6f7265207468656e20616d6f756e74206265696e67207265604482015265135a5b9d195960d21b6064820152608401610ebf565b6040860135610f35828761327c565b1015610f945760405162461bcd60e51b815260206004820152602860248201527f6e6f7420656e6f756768206c656674206166746572206665657320666f7220726044820152671958da5c1a595b9d60c21b6064820152608401610ebf565b5f610fa382602089013561327c565b91945090925050505b9250929050565b5f6060805f5f5f6060610fc4611a1a565b610fcc611a47565b604080515f80825260208201909252600f60f81b9b939a50919850469750309650945092509050565b60606004805461050b90612e4a565b4689148061101b575060175462010000900460ff16155b61108f576040805162461bcd60e51b81526020600482015260248101919091527f636861696e4964206e6f74206d6174636865642c2063616e2774207370656e6460448201527f2074686973206275726e206163636f756e74206f6e207468697320636861696e6064820152608401610ebf565b5f8a81526008602052604090205460ff166110db5760405162461bcd60e51b815260206004820152600c60248201526b1a5b9d985b1a59081c9bdbdd60a21b6044820152606401610ebf565b5f5b85518110156111d5575f8682815181106110f9576110f9612ec1565b60200260200101519050805f146111cc575f818152600760205260409020541561115f5760405162461bcd60e51b81526020600482015260176024820152761b9d5b1b1a599a595c88185b1c9958591e48195e1a5cdd604a1b6044820152606401610ebf565b5f818152600760205260409020439055807fdea71a061c0e15a14191f2e29163dac18565965624c0422ba9025b541d0abc998787858181106111a3576111a3612ec1565b90506020028101906111b59190612fbc565b6040516111c39291906132b7565b60405180910390a25b506001016110dd565b505f6111e58b8b8b8b8b8b610796565b865160ff81165f90815260106020526040902054919250906001600160a01b03168061125f5760405162461bcd60e51b815260206004820152602360248201527f616d6f756e74206f66206e6f746520686173686573206e6f7420737570706f726044820152621d195960ea1b6064820152608401610ebf565b604051633a94343960e21b81526001600160a01b0382169063ea50d0e49061128f908890889088906004016132ca565b6020604051808303815f875af11580156112ab573d5f5f3e3d5ffd5b505050506040513d601f19601f820116820180604052508101906112cf91906132f9565b6112ec5760405163439cc0cd60e01b815260040160405180910390fd5b50505050505050505050505050565b5f336105998185856116f4565b60118181548110611317575f80fd5b905f5260205f209060209182820401919006915054906101000a900460ff1681565b6001600160a01b039182165f90815260016020908152604080832093909416825291909152205490565b604051637a3e5e1d60e11b8152600c60048201525f9073__$81047e2420497af1f397e161c4153f8e32$__9063f47cbc3a90602401602060405180830381865af41580156113b3573d5f5f3e3d5ffd5b505050506040513d601f19601f820116820180604052508101906113d79190613314565b905090565b6113e98383836001611a74565b505050565b5f6113f882611b38565b90505f83516001600160401b03811115611414576114146126c5565b60405190808252806020026020018201604052801561143d578160200160208202803683370190505b5090505f5b8551811015611578575f86828151811061145e5761145e612ec1565b602002602001015190505f86838151811061147b5761147b612ec1565b602002602001015190505f6001600160a01b0316826001600160a01b0316036114b5576002805482900390556114b085611c03565b611541565b6001600160a01b0382165f908152602081905260408120546114d8908390612f00565b6001600160a01b0384165f90815260208190526040902081905590505f51602061342c5f395f51905f5281106115205760405162461bcd60e51b8152600401610ebf9061332b565b8085858151811061153357611533612ec1565b602002602001018181525050505b6040518181526001600160a01b038316905f905f51602061344c5f395f51905f529060200160405180910390a35050600101611442565b50611584858284611d6c565b5050505050565b6115986040820182612fbc565b15159050806115aa57505f8160800135115b15610aa0575f6115bd6020830183612a72565b6001600160a01b031660808301356115d86040850185612fbc565b6040516115e6929190612ffe565b5f6040518083038185875af1925050503d805f8114611620576040519150601f19603f3d011682016040523d82523d5f602084013e611625565b606091505b5090915061163b9050608083016060840161301a565b806116435750805b61169f5760405162461bcd60e51b815260206004820152602760248201527f63616c6c206661696c656420616e6420776173206e6f7420616c6c6f776564206044820152661d1bc819985a5b60ca1b6064820152608401610ebf565b5050565b5f6116ae8484611339565b90505f198110156116ee57818110156116e057828183604051637dc7a0d960e11b8152600401610ebf93929190613370565b6116ee84848484035f611a74565b50505050565b6001600160a01b03831661171d575f604051634b637e8f60e11b8152600401610ebf9190612c77565b6001600160a01b038216611746575f60405163ec442f0560e01b8152600401610ebf9190612c77565b6113e9838383611f53565b6001600160a01b03821661177a575f60405163ec442f0560e01b8152600401610ebf9190612c77565b61169f5f8383611f53565b5f5f82516001600160401b038111156117a0576117a06126c5565b6040519080825280602002602001820160405280156117c9578160200160208202803683370190505b5090505f5b835181101561181d578381815181106117e9576117e9612ec1565b60200260200101518051906020012082828151811061180a5761180a612ec1565b60209081029190910101526001016117ce565b508060405160200161182f9190613391565b60405160208183030381529060405280519060200120915050919050565b5f61059f6118596120ac565b8360405161190160f01b8152600281019290925260228201526042902090565b5f61188382611b38565b90506001600160a01b0384166118aa576002805484900390556118a581611c03565b611922565b6001600160a01b0384165f908152602081905260408120546118cd908590612f00565b6001600160a01b0386165f90815260208190526040902081905590505f51602061342c5f395f51905f5281106119155760405162461bcd60e51b8152600401610ebf9061332b565b6119208582846121d5565b505b6040518381526001600160a01b038516905f905f51602061344c5f395f51905f52906020015b60405180910390a350505050565b5f7f23ebbcc1e130851ed075a3c8252e154cf333d2ba187b279850791bf66764188f825f015183602001518460400151856060015186608001518760a001518860c001518960e001516040516020016119fd99989796959493929190988952602089019790975260408801959095526060870193909352608086019190915260a085015260c08401526001600160a01b0390811660e0840152166101008201526101200190565b604051602081830303815290604052805190602001209050919050565b60606113d77f00000000000000000000000000000000000000000000000000000000000000006005612358565b60606113d77f00000000000000000000000000000000000000000000000000000000000000006006612358565b6001600160a01b038416611a9d575f60405163e602df0560e01b8152600401610ebf9190612c77565b6001600160a01b038316611ac6575f604051634a1406b160e11b8152600401610ebf9190612c77565b6001600160a01b038085165f90815260016020908152604080832093871683529290522082905580156116ee57826001600160a01b0316846001600160a01b03167f8c5be1e5ebec7d5bd14f71427d1e84f3dd0314c0f7b2291e5b200ac8c7c3b9258460405161194891815260200190565b60605f82516001600160401b03811115611b5457611b546126c5565b604051908082528060200260200182016040528015611b7d578160200160208202803683370190505b5090505f805b8451811015611bfa57848181518110611b9e57611b9e612ec1565b6020026020010151838281518110611bb857611bb8612ec1565b602002602001018181525050848181518110611bd657611bd6612ec1565b60200260200101515f14611bf257611bef816001612f00565b91505b600101611b83565b50815292915050565b604051630649a08560e01b815273__$81047e2420497af1f397e161c4153f8e32$__90630649a08590611c3d90600c9085906004016133c6565b602060405180830381865af4158015611c58573d5f5f3e3d5ffd5b505050506040513d601f19601f82011682018060405250810190611c7c9190613314565b505f5b8151811015611ccf575f51602061346c5f395f51905f52828281518110611ca857611ca8612ec1565b6020026020010151604051611cbf91815260200190565b60405180910390a1600101611c7f565b50604051637a3e5e1d60e11b8152600c60048201526001906008905f9073__$81047e2420497af1f397e161c4153f8e32$__9063f47cbc3a906024015b602060405180830381865af4158015611d27573d5f5f3e3d5ffd5b505050506040513d601f19601f82011682018060405250810190611d4b9190613314565b815260208101919091526040015f20805460ff191691151591909117905550565b5f81518451611d7b9190612f00565b6001600160401b03811115611d9257611d926126c5565b604051908082528060200260200182016040528015611dbb578160200160208202803683370190505b5090505f805b8551811015611eef57858181518110611ddc57611ddc612ec1565b60200260200101516001600160a01b0316326001600160a01b031614611ee7575f611e39878381518110611e1257611e12612ec1565b6020026020010151878481518110611e2c57611e2c612ec1565b6020026020010151612401565b60405163bc167a3160e01b8152600c60048201526024810182905290915073__$81047e2420497af1f397e161c4153f8e32$__9063bc167a3190604401602060405180830381865af4158015611e91573d5f5f3e3d5ffd5b505050506040513d601f19601f82011682018060405250810190611eb591906132f9565b15611ee557808484611ec681613413565b955081518110611ed857611ed8612ec1565b6020026020010181815250505b505b600101611dc1565b505f5b8351811015611f4657838181518110611f0d57611f0d612ec1565b6020026020010151838380611f2190613413565b945081518110611f3357611f33612ec1565b6020908102919091010152600101611ef2565b5080825261158482611c03565b6001600160a01b038316611f7d578060025f828254611f729190612f00565b90915550611fda9050565b6001600160a01b0383165f9081526020819052604090205481811015611fbc5783818360405163391434e360e21b8152600401610ebf93929190613370565b6001600160a01b0384165f9081526020819052604090209082900390555b6001600160a01b038216611ff65760028054829003905561206d565b6001600160a01b0382165f90815260208190526040812054612019908390612f00565b90505f51602061342c5f395f51905f5281106120475760405162461bcd60e51b8152600401610ebf9061332b565b6001600160a01b0383165f90815260208190526040902081905561206b8382612438565b505b816001600160a01b0316836001600160a01b03165f51602061344c5f395f51905f528360405161209f91815260200190565b60405180910390a3505050565b5f306001600160a01b037f00000000000000000000000000000000000000000000000000000000000000001614801561210457507f000000000000000000000000000000000000000000000000000000000000000046145b1561212e57507f000000000000000000000000000000000000000000000000000000000000000090565b6113d7604080517f8b73c3c69bb8fe3d512ecc4cf759cc79239f7b179b0ffacaa9a75d522b39400f60208201527f0000000000000000000000000000000000000000000000000000000000000000918101919091527f000000000000000000000000000000000000000000000000000000000000000060608201524660808201523060a08201525f9060c00160405160208183030381529060405280519060200120905090565b6001600160a01b03831632036121ee576113e981611c03565b5f6121f98484612401565b60405163bc167a3160e01b8152600c60048201526024810182905290915073__$81047e2420497af1f397e161c4153f8e32$__9063bc167a3190604401602060405180830381865af4158015612251573d5f5f3e3d5ffd5b505050506040513d601f19601f8201168201806040525081019061227591906132f9565b156122885761228382611c03565b6116ee565b5f825160016122979190612f00565b6001600160401b038111156122ae576122ae6126c5565b6040519080825280602002602001820160405280156122d7578160200160208202803683370190505b50905081815f815181106122ed576122ed612ec1565b60209081029190910101525f5b835181101561234e5783818151811061231557612315612ec1565b60200260200101518282600161232b9190612f00565b8151811061233b5761233b612ec1565b60209081029190910101526001016122fa565b5061158481611c03565b606060ff83146123725761236b836124e6565b905061059f565b81805461237e90612e4a565b80601f01602080910402602001604051908101604052809291908181526020018280546123aa90612e4a565b80156123f55780601f106123cc576101008083540402835291602001916123f5565b820191905f5260205f20905b8154815290600101906020018083116123d857829003601f168201915b5050505050905061059f565b5f61240a612624565b6001600160a01b0384168152602081018390526b544f54414c5f4255524e45446040820152610e1781610b7d565b6001600160a01b038216320361244c575050565b5f6124578383612401565b60405163bc167a3160e01b8152600c60048201526024810182905290915073__$81047e2420497af1f397e161c4153f8e32$__9063bc167a3190604401602060405180830381865af41580156124af573d5f5f3e3d5ffd5b505050506040513d601f19601f820116820180604052508101906124d391906132f9565b156124dd57505050565b6113e981612523565b60605f6124f2836125fd565b6040805160208082528183019092529192505f91906020820181803683375050509182525060208101929092525090565b604051632f85497160e01b8152600c60048201526024810182905273__$81047e2420497af1f397e161c4153f8e32$__90632f85497190604401602060405180830381865af4158015612578573d5f5f3e3d5ffd5b505050506040513d601f19601f8201168201806040525081019061259c9190613314565b506040518181525f51602061346c5f395f51905f529060200160405180910390a1604051637a3e5e1d60e11b8152600c60048201526001906008905f9073__$81047e2420497af1f397e161c4153f8e32$__9063f47cbc3a90602401611d0c565b5f60ff8216601f81111561059f57604051632cd44ac360e21b815260040160405180910390fd5b60405180606001604052806003906020820280368337509192915050565b5f81518084528060208401602086015e5f602082860101526020601f19601f83011685010191505092915050565b602081525f610a8d6020830184612642565b80356001600160a01b0381168114612698575f5ffd5b919050565b5f5f604083850312156126ae575f5ffd5b6126b783612682565b946020939093013593505050565b634e487b7160e01b5f52604160045260245ffd5b60405161010081016001600160401b03811182821017156126fc576126fc6126c5565b60405290565b604051601f8201601f191681016001600160401b038111828210171561272a5761272a6126c5565b604052919050565b5f6001600160401b0382111561274a5761274a6126c5565b5060051b60200190565b5f82601f830112612763575f5ffd5b813561277661277182612732565b612702565b8082825260208201915060208360051b860101925085831115612797575f5ffd5b602085015b838110156127b457803583526020928301920161279c565b5095945050505050565b5f5f83601f8401126127ce575f5ffd5b5081356001600160401b038111156127e4575f5ffd5b602083019150836020828501011115610fac575f5ffd5b5f60c0828403121561280b575f5ffd5b50919050565b5f610100828403121561280b575f5ffd5b5f5f5f5f5f5f5f5f6101c0898b03121561283a575f5ffd5b883597506020890135965060408901356001600160401b0381111561285d575f5ffd5b6128698b828c01612754565b96505060608901356001600160401b03811115612884575f5ffd5b6128908b828c01612754565b95505060808901356001600160401b038111156128ab575f5ffd5b6128b78b828c016127be565b90955093505060a08901356001600160401b038111156128d5575f5ffd5b6128e18b828c016127fb565b9250506128f18a60c08b01612811565b90509295985092959890939650565b5f5f5f5f5f5f60c08789031215612915575f5ffd5b8635955060208701359450604087013593506060870135925060808701356001600160401b03811115612946575f5ffd5b61295289828a01612754565b92505060a08701356001600160401b0381111561296d575f5ffd5b61297989828a01612754565b9150509295509295509295565b5f8151808452602084019350602083015f5b828110156129b6578151865260209586019590910190600101612998565b5093949350505050565b602081525f610a8d6020830184612986565b5f5f5f606084860312156129e4575f5ffd5b6129ed84612682565b92506129fb60208501612682565b929592945050506040919091013590565b5f60c08284031215612a1c575f5ffd5b5f83601f840112612a2b575f5ffd5b505f80612a3860c0612702565b905080915060c0840185811115612a4d575f5ffd5b845b81811015612a67578035845260209384019301612a4f565b509095945050505050565b5f60208284031215612a82575f5ffd5b610a8d82612682565b5f60608284031215612a9b575f5ffd5b5f83601f840112612aaa575f5ffd5b505f80612ab76060612702565b90508091506060840185811115612a4d575f5ffd5b5f60208284031215612adc575f5ffd5b5035919050565b5f60208284031215612af3575f5ffd5b81356001600160401b03811115612b08575f5ffd5b610e17848285016127fb565b5f5f5f5f5f5f5f60c0888a031215612b2a575f5ffd5b873596506020880135955060408801356001600160401b03811115612b4d575f5ffd5b612b598a828b01612754565b95505060608801356001600160401b03811115612b74575f5ffd5b612b808a828b01612754565b94505060808801356001600160401b03811115612b9b575f5ffd5b612ba78a828b016127be565b90945092505060a08801356001600160401b03811115612bc5575f5ffd5b612bd18a828b016127fb565b91505092959891949750929550565b5f5f6101208385031215612bf2575f5ffd5b82356001600160401b03811115612c07575f5ffd5b612c13858286016127fb565b925050612c238460208501612811565b90509250929050565b5f5f6101208385031215612c3e575f5ffd5b612c488484612811565b94610100939093013593505050565b5f60208284031215612c67575f5ffd5b813560ff81168114610a8d575f5ffd5b6001600160a01b0391909116815260200190565b60ff60f81b8816815260e060208201525f612ca960e0830189612642565b8281036040840152612cbb8189612642565b606084018890526001600160a01b038716608085015260a0840186905283810360c08501529050612cec8185612986565b9a9950505050505050505050565b5f5f83601f840112612d0a575f5ffd5b5081356001600160401b03811115612d20575f5ffd5b6020830191508360208260051b8501011115610fac575f5ffd5b5f5f5f5f5f5f5f5f5f5f6101008b8d031215612d54575f5ffd5b8a35995060208b0135985060408b0135975060608b0135965060808b01356001600160401b03811115612d85575f5ffd5b612d918d828e01612754565b96505060a08b01356001600160401b03811115612dac575f5ffd5b612db88d828e01612754565b95505060c08b01356001600160401b03811115612dd3575f5ffd5b612ddf8d828e01612cfa565b90955093505060e08b01356001600160401b03811115612dfd575f5ffd5b612e098d828e016127be565b915080935050809150509295989b9194979a5092959850565b5f5f60408385031215612e33575f5ffd5b612e3c83612682565b9150612c2360208401612682565b600181811c90821680612e5e57607f821691505b60208210810361280b57634e487b7160e01b5f52602260045260245ffd5b5f5f8335601e19843603018112612e91575f5ffd5b8301803591506001600160401b03821115612eaa575f5ffd5b6020019150600581901b3603821315610fac575f5ffd5b634e487b7160e01b5f52603260045260245ffd5b634e487b7160e01b5f52601160045260245ffd5b808202811582820484141761059f5761059f612ed5565b8082018082111561059f5761059f612ed5565b60c0810181835f5b6006811015612f3a578151835260209283019290910190600101612f1b565b50505092915050565b5f82518060208501845e5f920191825250919050565b8051602080830151919081101561280b575f1960209190910360031b1b16919050565b60ff818116838216019081111561059f5761059f612ed5565b6060810181835f5b6003811015612f3a578151835260209283019290910190600101612f9d565b5f5f8335601e19843603018112612fd1575f5ffd5b8301803591506001600160401b03821115612fea575f5ffd5b602001915036819003821315610fac575f5ffd5b818382375f9101908152919050565b8015158114610aa0575f5ffd5b5f6020828403121561302a575f5ffd5b8135610a8d8161300d565b5f61304261277184612732565b8381526020810190600585901b84013681111561305d575f5ffd5b845b81811015612a675780356001600160401b0381111561307c575f5ffd5b860136601f82011261308c575f5ffd5b80356001600160401b038111156130a5576130a56126c5565b6130b8601f8201601f1916602001612702565b8181523660208385010111156130cc575f5ffd5b816020840160208301375f6020838301015280875250505060208401935060208101905061305f565b5f610100828403128015613107575f5ffd5b506131106126d9565b823581526020808401359082015260408084013590820152606080840135908201526080808401359082015260a0808401359082015261315260c08401612682565b60c082015261316360e08401612682565b60e08201529392505050565b6001815b60018411156131aa5780850481111561318e5761318e612ed5565b600184161561319c57908102905b60019390931c928002613173565b935093915050565b5f826131c05750600161059f565b816131cc57505f61059f565b81600181146131e257600281146131ec57613208565b600191505061059f565b60ff8411156131fd576131fd612ed5565b50506001821b61059f565b5060208310610133831016604e8410600b841016171561322b575081810a61059f565b6132375f19848461316f565b805f190482111561324a5761324a612ed5565b029392505050565b5f610a8d83836131b2565b5f8261327757634e487b7160e01b5f52601260045260245ffd5b500490565b8181038181111561059f5761059f612ed5565b81835281816020850137505f828201602090810191909152601f909101601f19169091010190565b602081525f610e1760208301848661328f565b604081525f6132dd60408301858761328f565b82810360208401526132ef8185612986565b9695505050505050565b5f60208284031215613309575f5ffd5b8151610a8d8161300d565b5f60208284031215613324575f5ffd5b5051919050565b60208082526025908201527f62616c616e63652063616e277420676f206f76657220746865204649454c4420604082015264131253525560da1b606082015260800190565b6001600160a01b039390931683526020830191909152604082015260600190565b81515f90829060208501835b828110156133bb57815184526020938401939091019060010161339d565b509195945050505050565b5f60408201848352604060208401528084518083526060850191506020860192505f5b818110156134075783518352602093840193909201916001016133e9565b50909695505050505050565b5f6001820161342457613424612ed5565b506001019056fe30644e72e131a029b85045b68181585d2833e84879b9709143e1f593f0000001ddf252ad1be2c89b69c2b068fc378daa952ba7f163c4a11628f55a4df523b3ef297d88d6449509e687c2769e1358fbeb521f447c0ec5786c512f8f9676b4d9b1a26469706673582212209f10eb39329177ecaca4c507e1e51bf7b09dd7a5e537db415632b3e003fd61c364736f6c634300081c0033",
  "linkReferences": {
    "project/contracts/leanIMTPoseidon2.sol": {
      "leanIMTPoseidon2": [
        {
          "length": 20,
          "start": 7528
        },
        {
          "length": 20,
          "start": 9727
        },
        {
          "length": 20,
          "start": 9947
        },
        {
          "length": 20,
          "start": 10310
        },
        {
          "length": 20,
          "start": 11270
        },
        {
          "length": 20,
          "start": 11876
        },
        {
          "length": 20,
          "start": 12077
        },
        {
          "length": 20,
          "start": 12232
        }
      ]
    }
  },
  "deployedLinkReferences": {
    "project/contracts/leanIMTPoseidon2.sol": {
      "leanIMTPoseidon2": [
        {
          "length": 20,
          "start": 4987
        },
        {
          "length": 20,
          "start": 7186
        },
        {
          "length": 20,
          "start": 7406
        },
        {
          "length": 20,
          "start": 7769
        },
        {
          "length": 20,
          "start": 8729
        },
        {
          "length": 20,
          "start": 9335
        },
        {
          "length": 20,
          "start": 9536
        },
        {
          "length": 20,
          "start": 9691
        }
      ]
    }
  },
  "immutableReferences": {
    "3020": [
      {
        "length": 32,
        "start": 8460
      }
    ],
    "3022": [
      {
        "length": 32,
        "start": 8418
      }
    ],
    "3024": [
      {
        "length": 32,
        "start": 8376
      }
    ],
    "3026": [
      {
        "length": 32,
        "start": 8541
      }
    ],
    "3028": [
      {
        "length": 32,
        "start": 8581
      }
    ],
    "3031": [
      {
        "length": 32,
        "start": 6689
      }
    ],
    "3034": [
      {
        "length": 32,
        "start": 6734
      }
    ]
  },
  "inputSourceName": "project/contracts/WormholeToken.sol",
  "buildInfoId": "solc-0_8_28-1533ac8e829ea1bb2a23d20b32c216df189fce9c"
}