{
  "_format": "hh3-artifact-1",
  "contractName": "reMint100Verifier",
  "sourceName": "contracts/reMint100Verifier.sol",
  "abi": [
    {
      "inputs": [],
      "name": "ConsistencyCheckFailed",
      "type": "error"
    },
    {
      "inputs": [],
      "name": "GeminiChallengeInSubgroup",
      "type": "error"
    },
    {
      "inputs": [],
      "name": "ProofLengthWrong",
      "type": "error"
    },
    {
      "inputs": [
        {
          "internalType": "uint256",
          "name": "logN",
          "type": "uint256"
        },
        {
          "internalType": "uint256",
          "name": "actualLength",
          "type": "uint256"
        },
        {
          "internalType": "uint256",
          "name": "expectedLength",
          "type": "uint256"
        }
      ],
      "name": "ProofLengthWrongWithLogN",
      "type": "error"
    },
    {
      "inputs": [],
      "name": "PublicInputsLengthWrong",
      "type": "error"
    },
    {
      "inputs": [],
      "name": "ShpleminiFailed",
      "type": "error"
    },
    {
      "inputs": [],
      "name": "SumcheckFailed",
      "type": "error"
    },
    {
      "inputs": [
        {
          "internalType": "bytes",
          "name": "proof",
          "type": "bytes"
        },
        {
          "internalType": "bytes32[]",
          "name": "publicInputs",
          "type": "bytes32[]"
        }
      ],
      "name": "verify",
      "outputs": [
        {
          "internalType": "bool",
          "name": "verified",
          "type": "bool"
        }
      ],
      "stateMutability": "view",
      "type": "function"
    }
  ],
  "bytecode": "0x610100604052348015610010575f5ffd5b5062100000608052601460a0527f2ae6c256f9df700172991bbfe6c2ccaf64d818f3cd941e1ad2e57f202862263960c05260fd60e05260805160a05160c05160e051615cac6100dd5f395f81816101b0015261090201525f61018e01525f8181605b01528181609401528181610101015281816101d201528181610a3001528181610b3d01528181610bdc01528181610c0a01528181610c9001528181611524015281816115d3015281816116060152818161181001528181612b490152612e4c01525f5050615cac5ff3fe608060405234801561000f575f5ffd5b5060043610610029575f3560e01c8063ea50d0e41461002d575b5f5ffd5b61004061003b366004615475565b610054565b604051901515815260200160405180910390f35b5f5f61007f7f00000000000000000000000000000000000000000000000000000000000000006102ee565b905061008c81602061554d565b85146100ee577f0000000000000000000000000000000000000000000000000000000000000000856100bf83602061554d565b6040516359895a5360e01b81526004810193909352602483019190915260448201526064015b60405180910390fd5b5f6100f76103e4565b90505f61012588887f00000000000000000000000000000000000000000000000000000000000000006103f9565b9050601082604001516101389190615564565b85146101575760405163fa06659360e01b815260040160405180910390fd5b60405163995bf45760e01b81525f9073__$1a5d2a6a191b83b16bb3986513de612d69$__9063995bf457906101fa9085908b908b907f0000000000000000000000000000000000000000000000000000000000000000907f0000000000000000000000000000000000000000000000000000000000000000907f0000000000000000000000000000000000000000000000000000000000000000906004016156e2565b610be060405180830381865af4158015610216573d5f5f3e3d5ffd5b505050506040513d601f19601f8201168201806040525081019061023a91906159f8565b905061028a8787808060200260200160405190810160405280939291908181526020018383602002808284375f9201919091525050855185516060810151608090910151919350915060016108ac565b815160a0015261029a8282610a13565b6102b7576040516313f8744360e31b815260040160405180910390fd5b6102c2828483610bc8565b6102df576040516352ec174560e11b815260040160405180910390fd5b50600198975050505050505050565b5f806102fc6002600861554d565b905061030a6002600461554d565b6103149082615aa2565b9050600161032360098561554d565b61032d919061554d565b6103379082615aa2565b90506103456001602961554d565b61034f9082615aa2565b905061035d6001600361554d565b6103679082615aa2565b905061037460018461554d565b61037e9082615aa2565b905061038c6001600461554d565b6103969082615aa2565b905060026103a5600185615564565b6103af919061554d565b6103b99082615aa2565b90506103c660028061554d565b6103d09082615aa2565b90506103dd601082615aa2565b9392505050565b6103ec614fc1565b6103f4611c0a565b905090565b61040161514b565b5f805b60108110156104635761043086838761041e602083615aa2565b9261042b93929190615ab5565b612544565b8351826010811061044357610443615adc565b6020020181815250506020826104599190615aa2565b9150600101610404565b50610487858286610475604083615aa2565b9261048293929190615ab5565b612557565b6020830152610497604082615aa2565b90506104aa858286610475604083615aa2565b6040808401919091526104bd9082615aa2565b90506104d0858286610475604083615aa2565b60608301526104e0604082615aa2565b90506104f3858286610475604083615aa2565b60a0830152610503604082615aa2565b9050610516858286610475604083615aa2565b60c0830152610526604082615aa2565b9050610539858286610475604083615aa2565b6080830152610549604082615aa2565b905061055c858286610475604083615aa2565b60e083015261056c604082615aa2565b905061057f858286610475604083615aa2565b610100830152610590604082615aa2565b90506105a3858286610475604083615aa2565b610120830151526105b5604082615aa2565b90506105c885828661041e602083615aa2565b6101408301526105d9602082615aa2565b90505f5b83811015610657575f5b600981101561064e5761060187848861041e602083615aa2565b84610160015183601c811061061857610618615adc565b6020020151826009811061062e5761062e615adc565b6020020181815250506020836106449190615aa2565b92506001016105e7565b506001016105dd565b505f5b60298110156106ab5761067486838761041e602083615aa2565b836101800151826029811061068b5761068b615adc565b6020020181815250506020826106a19190615aa2565b915060010161065a565b506106bd85828661041e602083615aa2565b6101a08301526106ce602082615aa2565b90506106e1858286610475604083615aa2565b610120830151602001526106f6604082615aa2565b9050610709858286610475604083615aa2565b61012083015160026020020152610721604082615aa2565b9050610734858286610475604083615aa2565b6101c0830152610745604082615aa2565b905061075885828661041e602083615aa2565b6101e0830152610769602082615aa2565b90505f5b610778600185615564565b8110156107c157610790868387610475604083615aa2565b83610200015182601b81106107a7576107a7615adc565b60200201526107b7604083615aa2565b915060010161076d565b505f5b83811015610814576107dd86838761041e602083615aa2565b83610220015182601c81106107f4576107f4615adc565b60200201818152505060208261080a9190615aa2565b91506001016107c4565b505f5b60048110156108685761083186838761041e602083615aa2565b836102400151826004811061084857610848615adc565b60200201818152505060208261085e9190615aa2565b9150600101610817565b5061087a858286610475604083615aa2565b61026083015261088b604082615aa2565b905061089e858286610475604083615aa2565b610280830152509392505050565b5f600180826108d9866108d4896108cf6108ca8a6310000000615aa2565b6125d9565b6125f1565b61260c565b90505f6108f7876108f28a6108cf6108ca8b6001615aa2565b612625565b90505f5b61092660107f0000000000000000000000000000000000000000000000000000000000000000615564565b811015610993575f6109508c838151811061094357610943615adc565b602002602001015161264d565b9050610960866108cf868461260c565b9550610970856108cf858461260c565b945061097c848b61260c565b9350610988838b612625565b9250506001016108fb565b505f5b60108110156109fa575f8a82601081106109b2576109b2615adc565b602002015190506109c7866108cf868461260c565b95506109d7856108cf858461260c565b94506109e3848b61260c565b93506109ef838b612625565b925050600101610996565b50610a058484612662565b9a9950505050505050505050565b5f5f610a2883606001518561014001516125f1565b905060015f5b7f0000000000000000000000000000000000000000000000000000000000000000811015610b1a575f86610160015182601c8110610a6e57610a6e615adc565b602002015180519091505f90610a8c908360015b602002015161260c565b9050848114610aae576040516313f8744360e31b815260040160405180910390fd5b5f876080015184601c8110610ac557610ac5615adc565b60200201519050610ad68382612670565b9550610b0a856108cf60016108d4856108cf8e604001518b601c8110610afe57610afe615adc565b60200201516001612625565b9450505050806001019050610a2e565b505f610b34866101800151865f01518760200151856127d2565b9050600160025b7f0000000000000000000000000000000000000000000000000000000000000000811015610b9157610b8782886080015183601c8110610b7d57610b7d615adc565b60200201516125f1565b9150600101610b3b565b50610bb7610ba4836108cf600185612625565b6108d4896101a0015189606001516125f1565b91508382145b979650505050505050565b5f610bd1615234565b5f610c008460c001517f000000000000000000000000000000000000000000000000000000000000000061284b565b90505f6003610c307f00000000000000000000000000000000000000000000000000000000000000006024615aa2565b610c3a9190615aa2565b610c45906003615aa2565b6001600160401b03811115610c5c57610c5c6158a9565b604051908082528060200260200182016040528015610c85578160200160208202803683370190505b5090505f6003610cb67f00000000000000000000000000000000000000000000000000000000000000006024615aa2565b610cc09190615aa2565b610ccb906003615aa2565b6001600160401b03811115610ce257610ce26158a9565b604051908082528060200260200182016040528015610d1b57816020015b610d086152a4565b815260200190600190039081610d005790505b509050610d4e610d49876101000151855f81518110610d3c57610d3c615adc565b6020026020010151612625565b612914565b84610120018181525050610d83610d49876101000151855f81518110610d7657610d76615adc565b602002602001015161260c565b610140850181905261012085015160e0880151610da4926108d491906125f1565b845260c0860151610dd490610db890612914565b6108cf8661012001516108f28a60e001518961014001516125f1565b6020850152815160019083905f90610dee57610dee615adc565b602002602001018181525050876102600151815f81518110610e1257610e12615adc565b60209081029190910101526101e088015160c085015260a080870151908501528351610e3d90612984565b60408501526020840151610e5090612984565b60608501526040840151825183906001908110610e6f57610e6f615adc565b60209081029190910101525f5b6024811015610f1657610e9785604001518660a001516125f1565b83610ea3836002615aa2565b81518110610eb357610eb3615adc565b602002602001018181525050610ef08560c001516108d48b61018001518460298110610ee157610ee1615adc565b60200201518860a001516125f1565b60c086015260a08086015190880151610f0991906125f1565b60a0860152600101610e7c565b505f5b6005811015610fe4575f610f2e601e83615aa2565b90505f610f3c602484615aa2565b9050610f6d858381518110610f5357610f53615adc565b60200260200101516108d489606001518a60a001516125f1565b858381518110610f7f57610f7f615adc565b602002602001018181525050610fbc8760c001516108d48d61018001518460298110610fad57610fad615adc565b60200201518a60a001516125f1565b60c088015260a080880151908a0151610fd591906125f1565b60a08801525050600101610f19565b50876101c0015181600181518110610ffe57610ffe615adc565b602002602001018190525086606001518160028151811061102157611021615adc565b602002602001018190525086608001518160038151811061104457611044615adc565b60200260200101819052508660a001518160048151811061106757611067615adc565b60200260200101819052508660c001518160058151811061108a5761108a615adc565b60200260200101819052508660e00151816006815181106110ad576110ad615adc565b6020026020010181905250866101000151816007815181106110d1576110d1615adc565b6020026020010181905250866101200151816008815181106110f5576110f5615adc565b60200260200101819052508661014001518160098151811061111957611119615adc565b602002602001018190525086610160015181600a8151811061113d5761113d615adc565b6020026020010181905250866101c0015181600b8151811061116157611161615adc565b602002602001018190525086610180015181600c8151811061118557611185615adc565b6020026020010181905250866101a0015181600d815181106111a9576111a9615adc565b6020026020010181905250866101e0015181600e815181106111cd576111cd615adc565b602002602001018190525086610200015181600f815181106111f1576111f1615adc565b60200260200101819052508661022001518160108151811061121557611215615adc565b60200260200101819052508661024001518160118151811061123957611239615adc565b60200260200101819052508661026001518160128151811061125d5761125d615adc565b60200260200101819052508661028001518160138151811061128157611281615adc565b6020026020010181905250866102a00151816014815181106112a5576112a5615adc565b6020026020010181905250866102c00151816015815181106112c9576112c9615adc565b6020026020010181905250866102e00151816016815181106112ed576112ed615adc565b60200260200101819052508661030001518160178151811061131157611311615adc565b60200260200101819052508661032001518160188151811061133557611335615adc565b60200260200101819052508661034001518160198151811061135957611359615adc565b602002602001018190525086610360015181601a8151811061137d5761137d615adc565b602002602001018190525086610380015181601b815181106113a1576113a1615adc565b6020026020010181905250866103a0015181601c815181106113c5576113c5615adc565b6020026020010181905250866103c0015181601d815181106113e9576113e9615adc565b6020026020010181905250876020015181601e8151811061140c5761140c615adc565b6020026020010181905250876040015181601f8151811061142f5761142f615adc565b602002602001018190525087606001518160208151811061145257611452615adc565b602002602001018190525087608001518160218151811061147557611475615adc565b60200260200101819052508761010001518160228151811061149957611499615adc565b60200260200101819052508760e00151816023815181106114bc576114bc615adc565b60200260200101819052508760a00151816024815181106114df576114df615adc565b60200260200101819052508760c001518160258151811061150257611502615adc565b60200260200101819052505f61154887608001518660c001518b6102200151877f0000000000000000000000000000000000000000000000000000000000000000612996565b9050611572815f8151811061155f5761155f615adc565b60200260200101518661012001516125f1565b608086018190526102208a01515160e08901516115a392916108d49161159891906125f1565b8861014001516125f1565b608086015260e08701516115b690612af4565b60a08601525f6115c860246002615aa2565b90505f5b6115f760017f0000000000000000000000000000000000000000000000000000000000000000615564565b811015611808575f61162a60017f0000000000000000000000000000000000000000000000000000000000000000615564565b8210159050806117995761165e610d498b61010001518985600161164e9190615aa2565b81518110610d3c57610d3c615adc565b6101208901526101008a015161168e90610d49908961167e866001615aa2565b81518110610d7657610d76615adc565b61014089015260a08801516101208901516116a991906125f1565b61016089015260a088015160e08b01516116d1916116c6916125f1565b8961014001516125f1565b61018089018190526116f4906116e690612984565b6108d48a6101600151612984565b866116ff8486615aa2565b8151811061170f5761170f615adc565b6020026020010181815250505f6117488961018001518e61022001518560016117389190615aa2565b601c8110610b7d57610b7d615adc565b9050611782816108d48b6101600151888760016117659190615aa2565b8151811061177557611775615adc565b60200260200101516125f1565b905061179289608001518261260c565b60808a0152505b6117b86117ae8960a001518c60e001516125f1565b8b60e001516125f1565b60a08901526102008c015182601b81106117d4576117d4615adc565b6020020151856117e48486615aa2565b815181106117f4576117f4615adc565b6020908102919091010152506001016115cc565b5061183460017f0000000000000000000000000000000000000000000000000000000000000000615564565b61183e9082615aa2565b905061185e6118568961010001518a60c00151612625565b600190612662565b60e08701515261010088015160c08901516118a291611856916108f2907f07b0c561a6148404f086204a9f36ffb0617942546750f230c893619174a57a76906125f1565b60e0878101805160200192909252815180516040909101529051805160609091015260a0870151908901516118e4916118da916125f1565b8960e001516125f1565b60a08701525f5b6004811015611992575f61191d8860e00151836004811061190e5761190e615adc565b60200201518960a001516125f1565b905061192881612984565b886101000151836004811061193f5761193f615adc565b602002015260a088015160e08b015161195891906125f1565b8860a001818152505061198488608001516108d4838f61024001518660048110610b7d57610b7d615adc565b6080890152506001016118eb565b506101008601515184518590839081106119ae576119ae615adc565b602090810291909101810191909152610100870151908101516119d2916002610a82565b846119de836001615aa2565b815181106119ee576119ee615adc565b60209081029190910101526101008601516060015184611a0f836002615aa2565b81518110611a1f57611a1f615adc565b60209081029190910101525f5b6003811015611a81578a61012001518160038110611a4c57611a4c615adc565b60200201518483611a5c81615af0565b945081518110611a6e57611a6e615adc565b6020908102919091010152600101611a2c565b506040518060400160405280600181526020016002815250838281518110611aab57611aab615adc565b60200260200101819052508560800151848280611ac790615af0565b935081518110611ad957611ad9615adc565b602002602001018181525050611b038a61024001518960c001518a608001518d6101a00151612aff565b611b205760405163a2a2ac8360e01b815260040160405180910390fd5b5f8a6102800151905080848381518110611b3c57611b3c615adc565b6020026020010181905250886101000151858381518110611b5f57611b5f615adc565b602002602001018181525050611b736152bc565b611b7d8587612e3c565b8152611b8882612f58565b602082018190528c5182515f92611ba0929190612f9e565b90505f5f611bb08f5f0151613024565b91509150611bbd826130e5565b611bc6816130e5565b8351611bd3908385613184565b84526020840151611be5908285613184565b602085018190528451611bf7916131b3565b9f9e505050505050505050505050505050565b611c12614fc1565b50604080516103e081018252621000008152601460208083019190915260fd82840152825180840184527f2920aa9f261447d3c33527bc8069bb89065fff70b702b0d2c839f0516b49dbf081527f12887de609819bc846f04d910951b5456b850b4cabec942a303efee086cc3336818301526060830152825180840184527f2c27bd51f5c945ab0b00da3139fe9421965ac6f74121e8c96036a6e1e34a171081527f211bb06770c13f7d8c9bb179b4d32be151a0b5678c99b8db29cc503b050de8ea818301526080830152825180840184527f16818ec4650f438a57ef17d396c815ba982bd489f45a7bd03916b35d135c7c0281527f2d2e77719f3282831b1f5a9e4161125836dc80f739328c5e6a7f4a326a946c978183015260a0830152825180840184527f0a74c50411faa6858c38518402a3602352faf5b8b3fc8ca49ce45e3d4ff52ad381527f272efc8b103e2df28771adf7726a933e5f248636776c32138d660d79e2b698fb8183015260c0830152825180840184527f08a8489b8c6ed0a74c6b1f6a22eb9132ce262bec99013ff20ebb9cc7d5ab376e81527f0431e4553b9350516486bab1af84a5417d90dc87463c6bec94470f5f8178daaf8183015260e0830152825180840184527f1fd288bc8834d2885252d7bd70643258ff0f2107ec8bab8a7f0d1c636186c43a81527f10883e4870481ba9367331c12b4b577849e6afc84ba3f3599ed409d4a47856e881830152610100830152825180840184527f152a2783eece020fed05a3383a559f830bd3947a5939a9cfd2c8f9220835b5ee81527f040e67b3cfb495e302305a932be4d9ffab609cf3826b4194bde336c6bf1b1aee81830152610120830152825180840184527f19b5a238d59918b9789ddd638b338403df8bfc50047a7c91a06eb69f0ee601ff81527f1ed179f1259b3a9ae96676dcd4465a1c585837505a14983080aa6c84481d603581830152610140830152825180840184527f2c3336b3f200618327f8155a59daf7ef27151c4b64e7d0e04c2171501da23ef581527f048acbff80365281546d07da0cf067c2102a54be7dd4a80cb985f5564761ba0081830152610160830152825180840184527f12dc88b6ced3d1e540961522ddd28d2e71b2dfc8b08106ad96af989e936d470281527f23937a3f136121566dd95f9ca214fe097e31518c5e75be17d41ca733d750b79d81830152610180830152825180840184527e1d980be02acce404f6c0df40bb833601bd2d075496bf67cee5c8253ec038ac81527f1d90fb0c48de5b51e119968bc71a69d3132b3def0b1695cda71a0f8fe2f74edc818301526101a0830152825180840184527f07400d03fab915b4bd21a6a49ac3aafd68a5bbf63f4acfb80b7e19ac8336bec181527f0964d0a7025dd86175bfdd28d5782c1e948fae74c09205b00cceafa953a3f013818301526101c0830152825180840184527f031ba5031d8f0fc00ac08ec14a3dc2e6cd75f8d4ca5967a9cb125e3585d03cbd81527f1dd911500fb2ded3eb8e4df55f71b5ac646f64ae6ef0985c72c95fbe28450824818301526101e0830152825180840184527f012a4f96f7de63a6ff4a618c4288f1b5d65acb261d566aabec07a9f5c2daf0e981527f0f264b2c720b833dd18e07c2442a6c76aadb7744e0048841e8522919e6a828e481830152610200830152825180840184527f08b27340ebb4a91d6cc634510f6ffa0fea8d167280898895fdb08fe5530e544a81527f18a983573bd8ee81126b54feac79bc9c6d87b220cd0ba2a7ab760b2b6f6c5cb981830152610220830152825180840184527f28880733c9d6724719ad781d39c703d9b6599f1d7bffd2ff4d06aadabaf440b781527f177b9a477051942f839ede7b6f6c18eecd3c5d17f9d88bfc0a27fc1e9607eb1d81830152610240830152825180840184527f07aa94f2f257ce2e8773d0c7331c0e72bf752de0858ee69a4830debad95ef2b081527f1b5a8e615f042bc3a7b4da3f99e600bb6d8e8910d8fce6d75f926a62f6cd32d281830152610260830152825180840184527f23504d5553b4f523d6b24236f3efe2210fc518807b9984dbb969664c93d38d5381527f250e37baceea6eedd6c82d3ce4f776124c42aa8fd4d99dda2ff53271b7cec05981830152610280830152825180840184527f08c844d7e16e89ad0a4ca12c594a87d01069d02565a6655e3188265f631bedb681527f0dfb6ac3eb8e999ea2e5a99019fec51a02490a7fb68d113e86c011e848d3a712818301526102a0830152825180840184527f0b7289837767583d7b343617f5024f8d2a80c47b1e1ed61a0beeb9be413f74f381527f2c282230c8eb2188383e404d0b881c566a828823112494d3b465bf22ed970a3b818301526102c0830152825180840184527f1ac6fe513952710a95037b45a0c574a31f38d1b7278941f5b4a40c2c02c8ebdd81527f13d8ab126380ed9c86e6bbb385d77b6cd217d82f44a93aa40de1c39a103bce75818301526102e0830152825180840184527f1c305885a1661303e1494fd22aaf7c0ac5ac1e7bd5a93b2fe8d14d4721984b9781527f079f78a5653769842446ecb6936ee8163117ed0fdece743759839a123342c2f581830152610300830152825180840184527f146bd15649e0c9cfdd3088d33677a15465f6f4c3c031ce36a2c03b7fdd036efe81527f13f36ca5218d300a77f2027a11f43abaf96c56c27e5206d5bde4044f60e5c81381830152610320830152825180840184527f1b60d695d8a2df16c11604f56b94687388296bfb8068a26812b907fe6b6fff7681527f19a5151364918e8fa0f72378b21a3c78e013b5de119163b2432418a53ec80e2a81830152610340830152825180840184527f0ca74b7b723968d0352369d989524dab36d1b2c7a78759801e66efb314ae55d181527f1cdb97051b3269d183737e2984ea63a7df07058b2a09d3dad28e68e8ecc5b80581830152610360830152825180840184527f17002f56bd86090dab7d100016ede4ce893c6690a0d787727e6d17373ce528ec81527f07a9365b235aaf9f921e99d1a08f70bece66a411c484a11a1a4590252787953c8183015261038083015282518084018452600181526002818301526103a083015282518084019093527f06f5d5da05fd11fc4f17967c7e253fdc202dc4461f233010b8ab86444270cc5b83527f27248e99a3b9941c5726e017dda7c9b43047eb2a0c5592d36e1317f9fa7089bb908301526103c081019190915290565b5f6103dd6125528385615b08565b61264d565b61255f6152a4565b60408051808201909152805f516020615bf75f395f51905f5261258560205f8789615ab5565b61258e91615b08565b6125989190615b25565b81526020908101905f516020615bf75f395f51905f52906125bd906040908789615ab5565b6125c691615b08565b6125d09190615b25565b90529392505050565b5f5f516020615c375f395f51905f52825b0692915050565b5f5f516020615c375f395f51905f5282840990505b92915050565b5f5f516020615c375f395f51905f528284089392505050565b5f5f516020615c375f395f51905f52825f516020615c375f395f51905f520384089392505050565b5f5f516020615c375f395f51905f52826125ea565b5f6103dd836108cf84612914565b5f5f604051806101200160405280619d8081526020015f516020615c575f395f51905f5281526020016105a081526020015f516020615bd75f395f51905f52815260200161024081526020015f516020615bd75f395f51905f5281526020016105a081526020015f516020615c575f395f51905f528152602001619d8081525090505f600190505f5f90505b600981101561271d57612713826108cf8784612625565b91506001016126fc565b506127266152cf565b5f5b600981101561277757612758610d4985836009811061274957612749615adc565b60200201516108cf8985612625565b82826009811061276a5761276a615adc565b6020020152600101612728565b505f5b60098110156127bd576127b3856108d489846009811061279c5761279c615adc565b6020020151858560098110610b7d57610b7d615adc565b945060010161277a565b506127c884836125f1565b9695505050505050565b5f6127db6152ee565b6127e68682856133a7565b6127f286868386613553565b6127fe8686838661373f565b612809868285613964565b612814868285613b58565b61282086868386613ea1565b61282b86828561434d565b61283686828561475f565b612841868285614b20565b6127c88185614e20565b60605f826001600160401b03811115612866576128666158a9565b60405190808252806020026020018201604052801561288f578160200160208202803683370190505b50905083815f815181106128a5576128a5615adc565b602090810291909101015260015b8381101561290c576128e7826128ca600184615564565b815181106128da576128da615adc565b6020026020010151612af4565b8282815181106128f9576128f9615adc565b60209081029190910101526001016128b3565b509392505050565b5f5f8290505f604051602081526020808201526020604082015282606082015260025f516020615c375f395f51905f520360808201525f516020615c375f395f51905f5260a082015260205f60c08360055afa80612970575f5ffd5b505f51608091909101604052949350505050565b5f516020615c375f395f51905f520390565b60605f826001600160401b038111156129b1576129b16158a9565b6040519080825280602002602001820160405280156129da578160200160208202803683370190505b509050825b8015612ae9575f856129f2600184615564565b81518110612a0257612a02615adc565b602002602001015190505f89600184612a1b9190615564565b601c8110612a2b57612a2b615adc565b602002015190505f612a86612a4a612a43858d6125f1565b60026125f1565b6108f28b612a59600189615564565b601c8110612a6957612a69615adc565b60200201516108cf612a80886108cf60018a612625565b87612625565b9050612aa7816108cf610d49612aa1876108cf600189612625565b8661260c565b99508990508085612ab9600187615564565b81518110612ac957612ac9615adc565b60200260200101818152505050505080612ae290615b44565b90506129df565b509695505050505050565b5f61260682836125f1565b5f600181612b18612b1287610100614e79565b83612625565b905080612b385760405163835eb8f760e01b815260040160405180910390fd5b612b4061530d565b80518390525f5b7f0000000000000000000000000000000000000000000000000000000000000000811015612c29575f612b7b82600961554d565b612b86906001615aa2565b905084835f0151826101008110612b9f57612b9f615adc565b60200201525f612bb0826001615aa2565b90505b612bbe600983615aa2565b811015612c1f578351612bfe90612bd6600184615564565b6101008110612be757612be7615adc565b60200201518a85601c8110610b7d57610b7d615adc565b8451826101008110612c1257612c12615adc565b6020020152600101612bb3565b5050600101612b47565b50608081018390525f602082018190525b610100811015612d2757612c5b612c5583608001518a6125f1565b85612625565b8260a00151826101008110612c7257612c72615adc565b602002015260a0820151612c9c90826101008110612c9257612c92615adc565b6020020151612914565b8260a00151826101008110612cb357612cb3615adc565b602002018181525050612cf982602001516108d4845f0151846101008110612cdd57612cdd615adc565b60200201518560a00151856101008110610b7d57610b7d615adc565b60208301526080820151612d1a905f516020615c175f395f51905f526125f1565b6080830152600101612c3a565b505f612d38836108cf610100612914565b9050612d488260200151826125f1565b602083015260a0820151612d63905f5b6020020151826125f1565b604083015260a0820151612d8f90612d7e6001610100615564565b6101008110612d5857612d58615adc565b60608301526040820151612da5908a6002610b7d565b60c08301819052612df2906108d4612dca8b5f516020615c175f395f51905f52612625565b60208d015160408e01516108cf91612de191612625565b8e5160208901516108f291906125f1565b60c083018190526060830151612e2791612e1b916108d4906108cf8e600260200201518c612625565b6108f2858c6003610b7d565b60c08301819052159998505050505050505050565b612e446152a4565b5f6003612e727f00000000000000000000000000000000000000000000000000000000000000006024615aa2565b612e7c9190615aa2565b612e87906003615aa2565b90505f5b81811015612ebd57612eb5858281518110612ea857612ea8615adc565b60200260200101516130e5565b600101612e8b565b50604051600190815b60018401811015612f225760208102870160208202870181515160408501528151602001516060850152805160808501525050604080830160606040850160075afa8316925060408260808460065afa90921691600101612ec6565b5080518452602081015160208501525080612f50576040516352ec174560e11b815260040160405180910390fd5b505092915050565b612f606152a4565b5f516020615bf75f395f51905f5282602001515f516020615bf75f395f51905f52612f8b9190615564565b612f959190615b25565b60208301525090565b5f5f5f612faa86613024565b91509150612fb6615351565b82518152602080840151818301528251604080840191909152838201516060840152875160808401528782015160a0840152865160c08401528682015160e084015251610bbd9161300991849101615b59565b6040516020818303038152906040528051906020012061264d565b61302c6152a4565b6130346152a4565b82516020808501516040860151606087015160cc90811b608892831b604494851b90961795909517949094178652608087015160a088015160c089015160e08a0151871b90841b91851b9092171717868401526101008701516101208801516101408901516101608a0151871b90841b91851b909217171785526101808701516101a08801516101c08901516101e09099015190951b9790911b9390911b1791909117939093179281019290925291565b805160208201515f5f516020615bf75f395f51905f528380095f516020615bf75f395f51905f5260035f516020615bf75f395f51905f52838709085f516020615bf75f395f51905f52848509149150508061317e5760405162461bcd60e51b8152602060048201526019602482015278706f696e74206973206e6f74206f6e2074686520637572766560381b60448201526064016100e5565b50505050565b61318c6152a4565b6131946152a4565b61319e8386614eda565b90506131aa8185614f30565b95945050505050565b81516020808401518351848301516040805194850195909552938301919091527f198e9393920d483a7260bfb731fb5d25f1aa493335a9e71297e485b7aef312c260608301527f1800deef121f1e76426a00665e5c4479674322d4f75edadd46debd5cd992f6ed60808301527f090689d0585ff075ec9e99ad690c3395bc4b313370b38ef355acdadcd122975b60a08301527f12c85ea5db8c6deb4aab71808dcb408fe3d1e7690c43d37b4ce6cc0166fa7daa60c083015260e08201526101008101919091527f260e01b251f6f1c7e7ff4e580791dee8ea51d87a358e038b4efe30fac09383c16101208201527f0118c4d5b837bcc2bc89b5b398b5974e9f5944073b32078b7e231fec938883b06101408201527f04fc6369f7110fe3d25156c1bb9a72859cf2a04641f99ba4ee413c80da6a5fe46101608201527f22febda3c0c0632a56475b4214e5615e11e6dd3f96e6cea2854a87d4dacc5e556101808201525f9081906101a00160405160208183030381529060405290505f5f60086001600160a01b0316836040516133499190615b8d565b5f60405180830381855afa9150503d805f8114613381576040519150601f19603f3d011682016040523d82523d5f602084013e613386565b606091505b50915091508180156127c85750808060200190518101906127c89190615ba3565b5f6133b3846007614f91565b90507f183227397098d014dc2822db40c0ac2e9419f4243cdcb848a1f0fac9f80000005f61341461340e6133e8856003612625565b6108cf6134036133f88b5f614f91565b6108cf8c601d614f91565b6108cf8b601c614f91565b836125f1565b905061349561348a61347161345861343f856108d46134348d6002614f91565b6108cf8e601c614f91565b6108d461344d8c6003614f91565b6108cf8d601d614f91565b6108d46134668b6004614f91565b6108cf8c601e614f91565b6108d461347f8a6005614f91565b6108cf8b601f614f91565b6108d4886001614f91565b90506134b4816108d46134a9866001612625565b6108cf8a6027614f91565b90506134c081846125f1565b90506134cc81856125f1565b8552505f90506135066134fc6134f16134e688601c614f91565b6108d489601f614f91565b6108f2886024614f91565b6108d4875f614f91565b9050613517816108cf846002612625565b9050613528816108cf846001612625565b905061353481836125f1565b905061354081846125f1565b9050808460015b60200201525050505050565b5f5f5f61358961357f61356789601c614f91565b6108d46135758b6012614f91565b8a606001516125f1565b876080015161260c565b90506135c2816108cf6135b86135a08b601d614f91565b6108d46135ae8d6013614f91565b8c606001516125f1565b896080015161260c565b90506135e7816108cf6135b86135d98b601e614f91565b6108d46135ae8d6014614f91565b905061360c816108cf6135b86135fe8b601f614f91565b6108d46135ae8d6015614f91565b92505f905061363061357f61362289601c614f91565b6108d46135758b600e614f91565b9050613655816108cf6135b86136478b601d614f91565b6108d46135ae8d600f614f91565b905061367a816108cf6135b861366c8b601e614f91565b6108d46135ae8d6010614f91565b905061369f816108cf6135b86136918b601f614f91565b6108d46135ae8d6011614f91565b91505f90506136c66136c06136b5896020614f91565b6108d48a601a614f91565b846125f1565b90506136fb816108f26136f56136dd8b6028614f91565b6108d46136eb8d601b614f91565b8c60a001516125f1565b856125f1565b905061370781856125f1565b6040860152505f61372a6136f561371f89601b614f91565b6108cf8a6028614f91565b9050808560035b602002015250505050505050565b5f5f61379d61378561376d6137586135b88a6016614f91565b6108d46137668b6017614f91565b8a516125f1565b6108d461377b8a6018614f91565b89602001516125f1565b6108d4613793896019614f91565b88604001516125f1565b91505f6137d46137bb6137b189601c614f91565b886080015161260c565b6108d46137c98a6003614f91565b6108cf8b6024614f91565b90505f6137fd6137e589601d614f91565b6108d46137f28b5f614f91565b6108cf8c6025614f91565b90505f61382761380e8a601e614f91565b6108d461381c8c6001614f91565b6108cf8d6026614f91565b905061386661384e613840856108d4868d5f01516125f1565b6108d4848c602001516125f1565b6108d461385c8c6004614f91565b8b604001516125f1565b93505050505f61387a6136c0886021614f91565b90505f61388b6136c0896021614f91565b90505f6138c36138aa61389f8b6023614f91565b6108d48c6006614f91565b6108f26138b88c6023614f91565b6108cf8d6006614f91565b90505f6138e1612b126138d687896125f1565b6108cf8d6021614f91565b90506138ed81886125f1565b90505f6139156139076139018d6006614f91565b876125f1565b6108f26139018e6022614f91565b90505f6139238c6023614f91565b90505f613933612b1283846125f1565b60808c0185905260a08c01849052905061394d818b6125f1565b8b6006602002015250505050505050505050505050565b5f6139705f6001612625565b90505f61397e5f6002612625565b90505f61398c5f6003612625565b90505f6139a861399d88601d614f91565b6108f289601c614f91565b90505f6139c46139b989601e614f91565b6108f28a601d614f91565b90505f6139e06139d58a601f614f91565b6108f28b601e614f91565b90505f6139fc6139f18b6024614f91565b6108f28c601f614f91565b905083613a0d816108cf818b61260c565b9050613a1d816108cf878a61260c565b9050613a2d816108cf878961260c565b9050613a3e816108cf8d6008614f91565b9050613a4a818a6125f1565b60e08b01525082613a5f816108cf818b61260c565b9050613a6f816108cf868a61260c565b9050613a7f816108cf868961260c565b9050613a90816108cf8d6008614f91565b9050613a9c818a6125f1565b6101008b01525081613ab2816108cf818b61260c565b9050613ac2816108cf858a61260c565b9050613ad2816108cf858961260c565b9050613ae3816108cf8d6008614f91565b9050613aef818a6125f1565b6101208b01525080613b05816108cf818b61260c565b9050613b15816108cf848a61260c565b9050613b25816108cf848961260c565b9050613b36816108cf8d6008614f91565b9050613b42818a6125f1565b610140909a019990995250505050505050505050565b613b916040518060e001604052805f81526020015f81526020015f81526020015f81526020015f81526020015f81526020015f81525090565b613b9c84601d614f91565b8152613ba984601e614f91565b6020820152613bb9846024614f91565b6040820152613bc9846027614f91565b6060820152613bd9846026614f91565b6080820152613be9846025614f91565b60a08201525f613bfa856002614f91565b90505f613c07865f614f91565b90505f613c1b8460400151855f0151612625565b90505f613c30856020015186602001516125f1565b606086015190915086905f90613c4690806125f1565b90505f613c64613c5e89602001518a606001516125f1565b886125f1565b90505f613c83613c7c8a60a001518b6040015161260c565b8a5161260c565b9050613c9261390182886125f1565b9050613cb9613cb3613cad613ca78487612625565b88612625565b8461260c565b8361260c565b9050613ce1613cd6613ccb83876125f1565b6108cf8f6009614f91565b6108cf60018a612625565b6101608c015250505050602085015160808601515f91613d009161260c565b90505f613d1e613d148860600151886125f1565b8860200151612625565b90505f613d42613d2e84876125f1565b6108d46136f58b60a001518c5f0151612625565b9050613d6a613d5f613d54838c6125f1565b6108cf8e6009614f91565b6108cf600189612625565b6101808b0152505f9150613d8b9050613d8483601161260c565b87516125f1565b90505f613d98838461260c565b9050613da4818261260c565b90505f613db28360096125f1565b9050613ddb613dd56136c0613dce8b60a001518c5f015161260c565b8b5161260c565b82612625565b60c089018190525f90613df690613c5e90613ccb908d6125f1565b9050613e098b600b60200201518261260c565b6101608c0152505086515f9250613e309150613d8490613e29908061260c565b885161260c565b90505f613e70613e4b836108cf8a5f01518b60a00151612625565b60208901516108f290613e5e908061260c565b6108cf8b602001518c6080015161260c565b9050613e8d89600c60200201516108d4613c5e613ccb858d6125f1565b89600c602002015250505050505050505050565b613f0b604051806101e001604052805f81526020015f81526020015f81526020015f81526020015f81526020015f81526020015f81526020015f81526020015f81526020015f81526020015f81526020015f81526020015f81526020015f81526020015f81525090565b613f23613f1986601e614f91565b85604001516125f1565b808252613f42906108d4613f3888601d614f91565b87602001516125f1565b808252613f57906108d4613d8488601c614f91565b808252613f69906108d4876001614f91565b80825260208201819052613f82906108f287601f614f91565b8152613f9d613f92866024614f91565b6108f287601c614f91565b6080820152613fbb613fb0866027614f91565b6108f287601f614f91565b60608201526080810151613fd4906108cf816001612625565b6101c082015260808101516140149061400a90614003906108cf60015f516020615c375f395f51905f52615564565b600161260c565b82606001516125f1565b60a0820181905261404a9061403c906108cf614031896002614f91565b6108cf8a6003614f91565b6108cf6136f588600a614f91565b83600e60200201526101c081015161406e9061403c906108cf614031896002614f91565b6101e08401528051614093906108cf614088886002614f91565b6108cf896003614f91565b6101208201525f6140b26140a887601f614f91565b8360200151612625565b90506140c3816108cf836001612625565b60e08301526140e06140d6876026614f91565b86604001516125f1565b60408301819052614103906108d46140f9896025614f91565b88602001516125f1565b60408301819052614123906108d461411c896024614f91565b88516125f1565b6040830152614140614136876027614f91565b8360400151612625565b60408301525f61415f614154886026614f91565b6108f289601e614f91565b90506141b161418c61340e614003866080015160015f516020615c375f395f51905f526108cf9190615564565b6108cf614003866040015160015f516020615c375f395f51905f526108cf9190615564565b60c084015260408301516141d3906141c990806125f1565b8460400151612625565b61010084015260c08301516141ff906141f1906108cf8a6004614f91565b6108cf6139018a600a614f91565b6102008601526101c083015161421e906141f1906108cf8a6004614f91565b61022086015261010083015161423d906141f1906108cf8a6004614f91565b61024086015260e0830151614257906108cf896004614f91565b61014084015261427661426b886025614f91565b6108f289601d614f91565b61016084015260808301516142b490614154906142a990614003906108cf60015f516020615c375f395f51905f52615564565b8561016001516125f1565b61018084018190526101208401516101a085018190526142eb916108d4906108cf6142e08c6005614f91565b6108cf8d6002614f91565b6101a08401819052835161430b91906108d4906108cf6142e08c5f614f91565b6101a08401819052610140840151614323919061260c565b6101a0840181905261433d906108cf6139018a600a614f91565b6101a0840181905285600d613731565b6143866040518060e001604052805f81526020015f81526020015f81526020015f81526020015f81526020015f81526020015f81525090565b6143bb6143a261439786601c614f91565b6108cf876025614f91565b6108d46143b0876024614f91565b6108cf88601d614f91565b81526144006143f56143dc6143d187601c614f91565b6108cf88601f614f91565b6108d46143ea88601d614f91565b6108cf89601e614f91565b6108f2866026614f91565b6040820181905261441590600160441b6125f1565b6040820181905261442b906108f2866027614f91565b60408201819052815161443e919061260c565b60408201819052614454906108cf866005614f91565b6040820152805161446990600160441b6125f1565b808252614489906108d461447e876024614f91565b6108cf886025614f91565b808252602082018190526144b0906108f26144a587601e614f91565b6108d488601f614f91565b602082018190526144c6906108cf866004614f91565b60208201528051606082018190526144e3906108d486601f614f91565b60608201819052614507906108f26144fc876026614f91565b6108d4886027614f91565b6060820181905261451c906108cf865f614f91565b8160600181815250505f61454561453b8360200151846040015161260c565b836060015161260c565b9050614556816108cf876003614f91565b905061456e614566866025614f91565b6140006125f1565b60808301819052614584906108d4876024614f91565b60808301819052614597906140006125f1565b608083018190526145ad906108d487601e614f91565b608083018190526145c0906140006125f1565b608083018190526145d6906108d487601d614f91565b608083018190526145e9906140006125f1565b608083018190526145ff906108d487601c614f91565b60808301819052614615906108f287601f614f91565b6080830181905261462b906108cf876005614f91565b608083015261463e614566866026614f91565b60a08301819052614654906108d4876025614f91565b60a08301819052614667906140006125f1565b60a0830181905261467d906108d4876024614f91565b60a08301819052614690906140006125f1565b60a083018190526146a6906108d487601f614f91565b60a083018190526146b9906140006125f1565b60a083018190526146cf906108d487601e614f91565b60a083018190526146e5906108f2876027614f91565b60a083018190526146fa906108cf875f614f91565b60a0830181905260808301515f91614712919061260c565b9050614723816108cf886004614f91565b905061472f828261260c565b60c08401819052614748906108cf61390189600b614f91565b60c084018190528560136020020152505050505050565b6147d56040518061022001604052805f81526020015f81526020015f81526020015f81526020015f81526020015f81526020015f81526020015f81526020015f81526020015f81526020015f81526020015f81526020015f81526020015f81526020015f81526020015f81526020015f81525090565b6147ee6147e385601c614f91565b6108d4866002614f91565b81526148096147fe85601d614f91565b6108d4866003614f91565b602082015261482761481c85601e614f91565b6108d4866004614f91565b604082015261484561483a85601f614f91565b6108d4866005614f91565b6060820152805161487790614870906148699061486290806125f1565b84516125f1565b83516125f1565b82516125f1565b608082015260208101516148b5906148ab906148a19061489790806125f1565b84602001516125f1565b83602001516125f1565b82602001516125f1565b60a082015260408101516148f3906148e9906148df906148d590806125f1565b84604001516125f1565b83604001516125f1565b82604001516125f1565b60c082015260608101516149279061400a9061491d9061491390806125f1565b84606001516125f1565b83606001516125f1565b60e0820152608081015160a0820151614940919061260c565b61010082015260c081015160e082015161495a919061260c565b61012082015260a081015161497e90614973908061260c565b82610120015161260c565b61014082015260e08101516149a290614997908061260c565b82610100015161260c565b6101608201526101208101516149b8908061260c565b6101e082018190526149d9906149ce908061260c565b82610160015161260c565b6101e08201526101008101516149ef908061260c565b6101a08201819052614a1090614a05908061260c565b82610140015161260c565b6101a08201819052610160820151614a279161260c565b6101808201526101408101516101e0820151614a43919061260c565b6101c0820152614a5761340e85600c614f91565b6102008201819052610280840151610180830151614a82926108d4916108cf906108f28a6024614f91565b8360146020020152614ab283601560200201516108d48361020001516108cf856101a001516108f28a6025614f91565b8360156020020152614ae283601660200201516108d48361020001516108cf856101c001516108f28a6026614f91565b8360166020020152614b1283601760200201516108d48361020001516108cf856101e001516108f28a6027614f91565b836017602002015250505050565b614b726040518061016001604052805f81526020015f81526020015f81526020015f81526020015f81526020015f81526020015f81526020015f81526020015f81526020015f81526020015f81525090565b5f6040518060800160405280614ba77f10dc6e9c006ea38b04b1e03b4bd9490c0d03f98929ca1d7fb56821fd19d3b6e76125d9565b8152602001614bd57f0c28145b6a44df3e0149b3d0a30b3bb599df9756d4dd9b84a86b38cfb45a740b6125d9565b8152602001614c027e544b8338791518b2c7645a50392798b21f75bb60e3596170067d00141cac156125d9565b8152602001614c307f222c01175718386f2e2e82eb122789e352e105a3b8fa852613bc534433ee428b6125d9565b90529050614c4d614c4286601c614f91565b6108d4876002614f91565b6101208301819052614c8c90614c8190614c7690614c6b90806125f1565b8561012001516125f1565b8461012001516125f1565b8361012001516125f1565b8252614c9985601d614f91565b6020830152614ca985601e614f91565b6040830152614cb985601f614f91565b606083015281516020830151614ce19161453b91614cd7919061260c565b846040015161260c565b6080830152614cf46136c086600d614f91565b6101408301528151614d1590614d0b90835f610b7d565b836080015161260c565b60a0830152614d4184601860200201516108d48461014001516108cf8660a001516108f28b6024614f91565b6103008501526020820151614d5c90614d0b90836001610b7d565b60c0830152614d8884601960200201516108d48461014001516108cf8660c001516108f28b6025614f91565b6103208501526040820151614da390614d0b90836002610b7d565b60e0830152614dcf84601a60200201516108d48461014001516108cf8660e001516108f28b6026614f91565b6103408501526060820151614dea90614d0b90836003610b7d565b610100830152614e1884601b60200201516108d48461014001516108cf8661010001516108f28b6027614f91565b84601b613547565b815160015b601c811015614e7257614e68826108d48684601c8110614e4757614e47615adc565b602002015186614e58600187615564565b601b8110610b7d57610b7d615adc565b9150600101614e25565b5092915050565b5f5f8390505f60405160208152602080820152602060408201528260608201528460808201525f516020615c375f395f51905f5260a082015260205f60c08360055afa80614ec5575f5ffd5b505f5160809190910160405295945050505050565b614ee26152a4565b614eea6152a4565b604051835181526020840151602082015284604082015260408160608360075afa80614f14575f5ffd5b5080518252602080820151908301526060016040529392505050565b614f386152a4565b614f406152a4565b6040518451815260208501516020820152835160408201526020840151606082015260408160808360065afa80614f75575f5ffd5b5080518252602080820151908301526080016040529392505050565b5f82826028811115614fa557614fa5615bc2565b60298110614fb557614fb5615adc565b60200201519392505050565b604051806103e001604052805f81526020015f81526020015f8152602001614fe76152a4565b8152602001614ff46152a4565b81526020016150016152a4565b815260200161500e6152a4565b815260200161501b6152a4565b81526020016150286152a4565b81526020016150356152a4565b81526020016150426152a4565b815260200161504f6152a4565b815260200161505c6152a4565b81526020016150696152a4565b81526020016150766152a4565b81526020016150836152a4565b81526020016150906152a4565b815260200161509d6152a4565b81526020016150aa6152a4565b81526020016150b76152a4565b81526020016150c46152a4565b81526020016150d16152a4565b81526020016150de6152a4565b81526020016150eb6152a4565b81526020016150f86152a4565b81526020016151056152a4565b81526020016151126152a4565b815260200161511f6152a4565b815260200161512c6152a4565b81526020016151396152a4565b81526020016151466152a4565b905290565b604051806102a0016040528061515f615370565b815260200161516c6152a4565b81526020016151796152a4565b81526020016151866152a4565b81526020016151936152a4565b81526020016151a06152a4565b81526020016151ad6152a4565b81526020016151ba6152a4565b81526020016151c76152a4565b81526020016151d461538f565b81526020015f81526020016151e76153bc565b81526020016151f46153ea565b81526020015f81526020016152076152a4565b81526020015f815260200161521a615409565b81526020016152276152ee565b815260200161512c615437565b604051806101c001604052805f81526020015f81526020015f81526020015f81526020015f81526020015f81526020015f8152602001615272615437565b815260200161527f615437565b81526020015f81526020015f81526020015f81526020015f8152602001606081525090565b60405180604001604052805f81526020015f81525090565b60405180604001604052806151396152a4565b6040518061012001604052806009906020820280368337509192915050565b604051806103800160405280601c906020820280368337509192915050565b6040518060e00160405280615320615455565b81526020015f81526020015f81526020015f81526020015f8152602001615345615455565b81526020015f81525090565b6040518061010001604052806008906020820280368337509192915050565b6040518061020001604052806010906020820280368337509192915050565b60405180606001604052806003905b6153a66152a4565b81526020019060019003908161539e5790505090565b604051806103800160405280601c905b6153d46152cf565b8152602001906001900390816153cc5790505090565b6040518061052001604052806029906020820280368337509192915050565b604051806103600160405280601b905b6154216152a4565b8152602001906001900390816154195790505090565b60405180608001604052806004906020820280368337509192915050565b604051806120000160405280610100906020820280368337509192915050565b5f5f5f5f60408587031215615488575f5ffd5b84356001600160401b0381111561549d575f5ffd5b8501601f810187136154ad575f5ffd5b80356001600160401b038111156154c2575f5ffd5b8760208284010111156154d3575f5ffd5b6020918201955093508501356001600160401b038111156154f2575f5ffd5b8501601f81018713615502575f5ffd5b80356001600160401b03811115615517575f5ffd5b8760208260051b840101111561552b575f5ffd5b949793965060200194505050565b634e487b7160e01b5f52601160045260245ffd5b808202811582820484141761260657612606615539565b8181038181111561260657612606615539565b805f5b601081101561317e57815184526020938401939091019060010161557a565b80518252602090810151910152565b805f5b600381101561317e576155bf848351615599565b60409390930192602091909101906001016155ab565b805f5b601c81101561317e578151845f5b60098110156156055782518252602092830192909101906001016155e6565b5050506101209390930192602091909101906001016155d8565b805f5b602981101561317e578151845260209384019390910190600101615622565b805f5b601b81101561317e57615658848351615599565b6040939093019260209190910190600101615644565b805f5b601c81101561317e578151845260209384019390910190600101615671565b805f5b600481101561317e578151845260209384019390910190600101615693565b8183525f6001600160fb1b038311156156c9575f5ffd5b8260051b80836020870137939093016020019392505050565b6156ed818851615577565b5f6020880151615701610200840182615599565b506040880151615715610240840182615599565b506060880151615729610280840182615599565b50608088015161573d6102c0840182615599565b5060a0880151615751610300840182615599565b5060c0880151615765610340840182615599565b5060e0880151615779610380840182615599565b5061010088015161578e6103c0840182615599565b506101208801516157a36104008401826155a8565b506101408801516104c08301526101608801516157c46104e08401826155d5565b506101808801516157d961246084018261561f565b506101a08801516129808301526101c08801516157fa6129a0840182615599565b506101e08801516129e083015261020088015161581b612a00840182615641565b506102208801516158306130c084018261566e565b50610240880151615845613440840182615690565b5061026088015161585a6134c0840182615599565b5061028088015161586f613500840182615599565b506135c06135408301526158886135c0830187896156b2565b613560830195909552506135808101929092526135a0909101529392505050565b634e487b7160e01b5f52604160045260245ffd5b60405161014081016001600160401b03811182821017156158e0576158e06158a9565b60405290565b604051601f8201601f191681016001600160401b038111828210171561590e5761590e6158a9565b604052919050565b5f60c08284031215615926575f5ffd5b60405160c081016001600160401b0381118282101715615948576159486158a9565b604090815283518252602080850151908301528381015190820152606080840151908201526080808401519082015260a0928301519281019290925250919050565b5f82601f830112615999575f5ffd5b5f6103606159a6816158e6565b9150830181858211156159b7575f5ffd5b845b828110156159d15780518252602091820191016159b9565b509195945050505050565b5f82601f8301126159eb575f5ffd5b5f6103806159a6816158e6565b5f610be0828403128015615a0a575f5ffd5b50615a136158bd565b615a1d8484615916565b8152615a2c8460c0850161598a565b6020820152615a3f8461042085016159dc565b60408201526107a08301516060820152615a5d846107c085016159dc565b6080820152610b4083015160a0820152610b6083015160c0820152610b8083015160e0820152610ba0830151610100820152610bc09092015161012083015250919050565b8082018082111561260657612606615539565b5f5f85851115615ac3575f5ffd5b83861115615acf575f5ffd5b5050820193919092039150565b634e487b7160e01b5f52603260045260245ffd5b5f60018201615b0157615b01615539565b5060010190565b80356020831015612606575f19602084900360031b1b1692915050565b5f82615b3f57634e487b7160e01b5f52601260045260245ffd5b500690565b5f81615b5257615b52615539565b505f190190565b5f8183825b6008811015615b7d578151835260209283019290910190600101615b5e565b5050506101008201905092915050565b5f82518060208501845e5f920191825250919050565b5f60208284031215615bb3575f5ffd5b815180151581146103dd575f5ffd5b634e487b7160e01b5f52602160045260245ffdfe30644e72e131a029b85045b68181585d2833e84879b9709143e1f593effffd3130644e72e131a029b85045b68181585d97816a916871ca8d3c208c16d87cfd47204bd3277422fad364751ad938e2b5e6a54cf8c68712848a692c553d0329f5d630644e72e131a029b85045b68181585d2833e84879b9709143e1f593f000000130644e72e131a029b85045b68181585d2833e84879b9709143e1f593efffec51a26469706673582212205289b93e27264471df7de4f35be4c881d36e393366e14a8c09ec249a09bb2cc964736f6c634300081c0033",
  "linkReferences": {
    "project/contracts/reMint100Verifier.sol": {
      "ZKTranscriptLib": [
        {
          "length": 20,
          "start": 581
        }
      ]
    }
  },
  "deployedLinkReferences": {
    "project/contracts/reMint100Verifier.sol": {
      "ZKTranscriptLib": [
        {
          "length": 20,
          "start": 360
        }
      ]
    }
  },
  "immutableReferences": {
    "7763": [
      {
        "length": 32,
        "start": 91
      },
      {
        "length": 32,
        "start": 148
      },
      {
        "length": 32,
        "start": 257
      },
      {
        "length": 32,
        "start": 466
      },
      {
        "length": 32,
        "start": 2608
      },
      {
        "length": 32,
        "start": 2877
      },
      {
        "length": 32,
        "start": 3036
      },
      {
        "length": 32,
        "start": 3082
      },
      {
        "length": 32,
        "start": 3216
      },
      {
        "length": 32,
        "start": 5412
      },
      {
        "length": 32,
        "start": 5587
      },
      {
        "length": 32,
        "start": 5638
      },
      {
        "length": 32,
        "start": 6160
      },
      {
        "length": 32,
        "start": 11081
      },
      {
        "length": 32,
        "start": 11852
      }
    ],
    "7765": [
      {
        "length": 32,
        "start": 398
      }
    ],
    "7767": [
      {
        "length": 32,
        "start": 432
      },
      {
        "length": 32,
        "start": 2306
      }
    ]
  },
  "inputSourceName": "project/contracts/reMint100Verifier.sol",
  "buildInfoId": "solc-0_8_28-51d867116089f98da45adff59626d95721d2f46e"
}